{"contracts/GovernanceProxy.sol":{"GovernanceProxy":{"abi":[{"inputs":[{"internalType":"address","name":"_mailbox","type":"address"},{"internalType":"address","name":"_governanceToken","type":"address"},{"internalType":"uint32","name":"_homeDomain","type":"uint32"},{"internalType":"bytes32","name":"_homeCoreAddress","type":"bytes32"}],"stateMutability":"nonpayable","type":"constructor"},{"anonymous":false,"inputs":[{"indexed":false,"internalType":"uint256","name":"proposalId","type":"uint256"}],"name":"ProposalExecuted","type":"event"},{"anonymous":false,"inputs":[{"indexed":false,"internalType":"uint256","name":"proposalId","type":"uint256"},{"indexed":false,"internalType":"string","name":"description","type":"string"},{"indexed":false,"internalType":"uint32","name":"executionChain","type":"uint32"}],"name":"ProposalReceived","type":"event"},{"anonymous":false,"inputs":[{"indexed":false,"internalType":"uint256","name":"proposalId","type":"uint256"},{"indexed":false,"internalType":"address","name":"voter","type":"address"},{"indexed":false,"internalType":"bool","name":"support","type":"bool"},{"indexed":false,"internalType":"uint256","name":"weight","type":"uint256"}],"name":"Voted","type":"event"},{"anonymous":false,"inputs":[{"indexed":false,"internalType":"uint256","name":"proposalId","type":"uint256"},{"indexed":false,"internalType":"uint256","name":"forVotes","type":"uint256"},{"indexed":false,"internalType":"uint256","name":"againstVotes","type":"uint256"}],"name":"VotesCollected","type":"event"},{"inputs":[],"name":"governanceToken","outputs":[{"internalType":"contract IGovernanceToken","name":"","type":"address"}],"stateMutability":"view","type":"function"},{"inputs":[{"internalType":"uint32","name":"_origin","type":"uint32"},{"internalType":"bytes32","name":"_sender","type":"bytes32"},{"internalType":"bytes","name":"_body","type":"bytes"}],"name":"handle","outputs":[],"stateMutability":"nonpayable","type":"function"},{"inputs":[],"name":"homeCoreAddress","outputs":[{"internalType":"bytes32","name":"","type":"bytes32"}],"stateMutability":"view","type":"function"},{"inputs":[],"name":"homeDomain","outputs":[{"internalType":"uint32","name":"","type":"uint32"}],"stateMutability":"view","type":"function"},{"inputs":[],"name":"mailbox","outputs":[{"internalType":"contract IMailbox","name":"","type":"address"}],"stateMutability":"view","type":"function"},{"inputs":[],"name":"owner","outputs":[{"internalType":"address","name":"","type":"address"}],"stateMutability":"view","type":"function"},{"inputs":[{"internalType":"uint256","name":"","type":"uint256"}],"name":"proposals","outputs":[{"internalType":"uint256","name":"id","type":"uint256"},{"internalType":"string","name":"description","type":"string"},{"internalType":"uint256","name":"forVotes","type":"uint256"},{"internalType":"uint256","name":"againstVotes","type":"uint256"},{"internalType":"uint256","name":"startTime","type":"uint256"},{"internalType":"uint256","name":"endTime","type":"uint256"},{"internalType":"uint32","name":"executionChain","type":"uint32"},{"internalType":"address","name":"target","type":"address"},{"internalType":"bytes","name":"callData","type":"bytes"},{"internalType":"bool","name":"executed","type":"bool"}],"stateMutability":"view","type":"function"},{"inputs":[{"internalType":"bytes32","name":"_homeCoreAddress","type":"bytes32"}],"name":"setHomeCoreAddress","outputs":[],"stateMutability":"nonpayable","type":"function"},{"inputs":[{"internalType":"uint256","name":"proposalId","type":"uint256"},{"internalType":"bool","name":"support","type":"bool"}],"name":"vote","outputs":[],"stateMutability":"nonpayable","type":"function"}],"evm":{"bytecode":{"linkReferences":{},"object":"60806040523480156200001157600080fd5b506040516200269f3803806200269f833981810160405281019062000037919062000211565b336000806101000a81548173ffffffffffffffffffffffffffffffffffffffff021916908373ffffffffffffffffffffffffffffffffffffffff16021790555083600160006101000a81548173ffffffffffffffffffffffffffffffffffffffff021916908373ffffffffffffffffffffffffffffffffffffffff16021790555082600260006101000a81548173ffffffffffffffffffffffffffffffffffffffff021916908373ffffffffffffffffffffffffffffffffffffffff16021790555081600260146101000a81548163ffffffff021916908363ffffffff160217905550806003819055505050505062000283565b600080fd5b600073ffffffffffffffffffffffffffffffffffffffff82169050919050565b60006200015d8262000130565b9050919050565b6200016f8162000150565b81146200017b57600080fd5b50565b6000815190506200018f8162000164565b92915050565b600063ffffffff82169050919050565b620001b08162000195565b8114620001bc57600080fd5b50565b600081519050620001d081620001a5565b92915050565b6000819050919050565b620001eb81620001d6565b8114620001f757600080fd5b50565b6000815190506200020b81620001e0565b92915050565b600080600080608085870312156200022e576200022d6200012b565b5b60006200023e878288016200017e565b945050602062000251878288016200017e565b93505060406200026487828801620001bf565b92505060606200027787828801620001fa565b91505092959194509250565b61240c80620002936000396000f3fe608060405234801561001057600080fd5b50600436106100935760003560e01c80639d21af38116100665780639d21af3814610129578063c9d27afe14610145578063d1437b8d14610161578063d5438eae1461017f578063f96dae0a1461019d57610093565b8063013cf08b1461009857806356d5d475146100d157806381786725146100ed5780638da5cb5b1461010b575b600080fd5b6100b260048036038101906100ad9190610e7c565b6101bb565b6040516100c89a99989796959493929190611018565b60405180910390f35b6100eb60048036038101906100e69190611189565b61035c565b005b6100f56104cd565b60405161010291906111fd565b60405180910390f35b6101136104e3565b6040516101209190611218565b60405180910390f35b610143600480360381019061013e9190611233565b610507565b005b61015f600480360381019061015a919061128c565b61059f565b005b610169610895565b60405161017691906112db565b60405180910390f35b61018761089b565b6040516101949190611355565b60405180910390f35b6101a56108c1565b6040516101b29190611391565b60405180910390f35b60046020528060005260406000206000915090508060000154908060010180546101e4906113db565b80601f0160208091040260200160405190810160405280929190818152602001828054610210906113db565b801561025d5780601f106102325761010080835404028352916020019161025d565b820191906000526020600020905b81548152906001019060200180831161024057829003601f168201915b5050505050908060020154908060030154908060040154908060050154908060060160009054906101000a900463ffffffff16908060060160049054906101000a900473ffffffffffffffffffffffffffffffffffffffff16908060070180546102c6906113db565b80601f01602080910402602001604051908101604052809291908181526020018280546102f2906113db565b801561033f5780601f106103145761010080835404028352916020019161033f565b820191906000526020600020905b81548152906001019060200180831161032257829003601f168201915b5050505050908060080160009054906101000a900460ff1690508a565b600160009054906101000a900473ffffffffffffffffffffffffffffffffffffffff1673ffffffffffffffffffffffffffffffffffffffff163373ffffffffffffffffffffffffffffffffffffffff16146103ec576040517f08c379a00000000000000000000000000000000000000000000000000000000081526004016103e39061147e565b60405180910390fd5b6003548314610430576040517f08c379a0000000000000000000000000000000000000000000000000000000008152600401610427906114ea565b60405180910390fd5b60008282810190610441919061163a565b5090506000810361045b5761045683836108e7565b6104c6565b600181036104725761046d8383610a71565b6104c5565b60028103610489576104848383610c5d565b6104c4565b6040517f08c379a00000000000000000000000000000000000000000000000000000000081526004016104bb906116e2565b60405180910390fd5b5b5b5050505050565b600260149054906101000a900463ffffffff1681565b60008054906101000a900473ffffffffffffffffffffffffffffffffffffffff1681565b60008054906101000a900473ffffffffffffffffffffffffffffffffffffffff1673ffffffffffffffffffffffffffffffffffffffff163373ffffffffffffffffffffffffffffffffffffffff1614610595576040517f08c379a000000000000000000000000000000000000000000000000000000000815260040161058c90611774565b60405180910390fd5b8060038190555050565b600060046000848152602001908152602001600020905060008160000154036105fd576040517f08c379a00000000000000000000000000000000000000000000000000000000081526004016105f4906117e0565b60405180910390fd5b8060090160003373ffffffffffffffffffffffffffffffffffffffff1673ffffffffffffffffffffffffffffffffffffffff16815260200190815260200160002060009054906101000a900460ff161561068c576040517f08c379a00000000000000000000000000000000000000000000000000000000081526004016106839061184c565b60405180910390fd5b80600501544211156106d3576040517f08c379a00000000000000000000000000000000000000000000000000000000081526004016106ca906118b8565b60405180910390fd5b6000600260009054906101000a900473ffffffffffffffffffffffffffffffffffffffff1673ffffffffffffffffffffffffffffffffffffffff166370a08231336040518263ffffffff1660e01b81526004016107309190611218565b602060405180830381865afa15801561074d573d6000803e3d6000fd5b505050506040513d601f19601f8201168201806040525081019061077191906118ed565b9050600081116107b6576040517f08c379a00000000000000000000000000000000000000000000000000000000081526004016107ad90611966565b60405180910390fd5b82156107dc57808260020160008282546107d091906119b5565b925050819055506107f8565b808260030160008282546107f091906119b5565b925050819055505b60018260090160003373ffffffffffffffffffffffffffffffffffffffff1673ffffffffffffffffffffffffffffffffffffffff16815260200190815260200160002060006101000a81548160ff0219169083151502179055507f7c2de587c00d75474a0c6c6fa96fd3b45dc974cd4e8a75f712bb84c950dce1b58433858460405161088794939291906119e9565b60405180910390a150505050565b60035481565b600160009054906101000a900473ffffffffffffffffffffffffffffffffffffffff1681565b600260009054906101000a900473ffffffffffffffffffffffffffffffffffffffff1681565b600080600080600086868101906108fe9190611b0d565b95509550955095509550506000600460008781526020019081526020016000206000015414610962576040517f08c379a000000000000000000000000000000000000000000000000000000000815260040161095990611c1e565b60405180910390fd5b6000600460008781526020019081526020016000209050858160000181905550848160010190816109939190611de0565b5042816004018190555062093a80426109ac91906119b5565b8160050181905550838160060160006101000a81548163ffffffff021916908363ffffffff160217905550828160060160046101000a81548173ffffffffffffffffffffffffffffffffffffffff021916908373ffffffffffffffffffffffffffffffffffffffff16021790555081816007019081610a2b9190611f0d565b507f4ba44b2f2cc6680ddb07ed1cbfec32eea742383066950efcb2305eab868e2161868686604051610a5f93929190611fdf565b60405180910390a15050505050505050565b60008282810190610a82919061201d565b91505060006004600083815260200190815260200160002090506000816000015403610ae3576040517f08c379a0000000000000000000000000000000000000000000000000000000008152600401610ada906117e0565b60405180910390fd5b80600501544211610b29576040517f08c379a0000000000000000000000000000000000000000000000000000000008152600401610b20906120a9565b60405180910390fd5b600060018383600201548460030154604051602001610b4b9493929190612111565b6040516020818303038152906040529050600160009054906101000a900473ffffffffffffffffffffffffffffffffffffffff1673ffffffffffffffffffffffffffffffffffffffff1663fa31de01600260149054906101000a900463ffffffff16600354846040518463ffffffff1660e01b8152600401610bcf93929190612156565b6020604051808303816000875af1158015610bee573d6000803e3d6000fd5b505050506040513d601f19601f82011682018060405250810190610c1291906121a9565b507fb7a878643a82614f0ad3432ea0a03b82104efdb339035148b3655609341a37d48383600201548460030154604051610c4e939291906121d6565b60405180910390a15050505050565b60008060008484810190610c71919061220d565b9350935093505060006004600085815260200190815260200160002090506000816000015403610cd6576040517f08c379a0000000000000000000000000000000000000000000000000000000008152600401610ccd906117e0565b60405180910390fd5b8060080160009054906101000a900460ff1615610d28576040517f08c379a0000000000000000000000000000000000000000000000000000000008152600401610d1f906122dc565b60405180910390fd5b60018160080160006101000a81548160ff02191690831515021790555060008373ffffffffffffffffffffffffffffffffffffffff1683604051610d6c9190612338565b6000604051808303816000865af19150503d8060008114610da9576040519150601f19603f3d011682016040523d82523d6000602084013e610dae565b606091505b5050905080610df2576040517f08c379a0000000000000000000000000000000000000000000000000000000008152600401610de99061239b565b60405180910390fd5b7f712ae1383f79ac853f8d882153778e0260ef8f03b504e2866e0593e04d2b291f85604051610e2191906123bb565b60405180910390a150505050505050565b6000604051905090565b600080fd5b600080fd5b6000819050919050565b610e5981610e46565b8114610e6457600080fd5b50565b600081359050610e7681610e50565b92915050565b600060208284031215610e9257610e91610e3c565b5b6000610ea084828501610e67565b91505092915050565b610eb281610e46565b82525050565b600081519050919050565b600082825260208201905092915050565b60005b83811015610ef2578082015181840152602081019050610ed7565b60008484015250505050565b6000601f19601f8301169050919050565b6000610f1a82610eb8565b610f248185610ec3565b9350610f34818560208601610ed4565b610f3d81610efe565b840191505092915050565b600063ffffffff82169050919050565b610f6181610f48565b82525050565b600073ffffffffffffffffffffffffffffffffffffffff82169050919050565b6000610f9282610f67565b9050919050565b610fa281610f87565b82525050565b600081519050919050565b600082825260208201905092915050565b6000610fcf82610fa8565b610fd98185610fb3565b9350610fe9818560208601610ed4565b610ff281610efe565b840191505092915050565b60008115159050919050565b61101281610ffd565b82525050565b60006101408201905061102e600083018d610ea9565b8181036020830152611040818c610f0f565b905061104f604083018b610ea9565b61105c606083018a610ea9565b6110696080830189610ea9565b61107660a0830188610ea9565b61108360c0830187610f58565b61109060e0830186610f99565b8181036101008301526110a38185610fc4565b90506110b3610120830184611009565b9b9a5050505050505050505050565b6110cb81610f48565b81146110d657600080fd5b50565b6000813590506110e8816110c2565b92915050565b6000819050919050565b611101816110ee565b811461110c57600080fd5b50565b60008135905061111e816110f8565b92915050565b600080fd5b600080fd5b600080fd5b60008083601f84011261114957611148611124565b5b8235905067ffffffffffffffff81111561116657611165611129565b5b6020830191508360018202830111156111825761118161112e565b5b9250929050565b600080600080606085870312156111a3576111a2610e3c565b5b60006111b1878288016110d9565b94505060206111c28782880161110f565b935050604085013567ffffffffffffffff8111156111e3576111e2610e41565b5b6111ef87828801611133565b925092505092959194509250565b60006020820190506112126000830184610f58565b92915050565b600060208201905061122d6000830184610f99565b92915050565b60006020828403121561124957611248610e3c565b5b60006112578482850161110f565b91505092915050565b61126981610ffd565b811461127457600080fd5b50565b60008135905061128681611260565b92915050565b600080604083850312156112a3576112a2610e3c565b5b60006112b185828601610e67565b92505060206112c285828601611277565b9150509250929050565b6112d5816110ee565b82525050565b60006020820190506112f060008301846112cc565b92915050565b6000819050919050565b600061131b61131661131184610f67565b6112f6565b610f67565b9050919050565b600061132d82611300565b9050919050565b600061133f82611322565b9050919050565b61134f81611334565b82525050565b600060208201905061136a6000830184611346565b92915050565b600061137b82611322565b9050919050565b61138b81611370565b82525050565b60006020820190506113a66000830184611382565b92915050565b7f4e487b7100000000000000000000000000000000000000000000000000000000600052602260045260246000fd5b600060028204905060018216806113f357607f821691505b602082108103611406576114056113ac565b5b50919050565b7f4f6e6c79204d61696c626f782063616e2063616c6c20746869732066756e637460008201527f696f6e0000000000000000000000000000000000000000000000000000000000602082015250565b6000611468602383610ec3565b91506114738261140c565b604082019050919050565b600060208201905081810360008301526114978161145b565b9050919050565b7f496e76616c69642073656e646572000000000000000000000000000000000000600082015250565b60006114d4600e83610ec3565b91506114df8261149e565b602082019050919050565b60006020820190508181036000830152611503816114c7565b9050919050565b600080fd5b7f4e487b7100000000000000000000000000000000000000000000000000000000600052604160045260246000fd5b61154782610efe565b810181811067ffffffffffffffff821117156115665761156561150f565b5b80604052505050565b6000611579610e32565b9050611585828261153e565b919050565b600067ffffffffffffffff8211156115a5576115a461150f565b5b6115ae82610efe565b9050602081019050919050565b82818337600083830152505050565b60006115dd6115d88461158a565b61156f565b9050828152602081018484840111156115f9576115f861150a565b5b6116048482856115bb565b509392505050565b600082601f83011261162157611620611124565b5b81356116318482602086016115ca565b91505092915050565b6000806040838503121561165157611650610e3c565b5b600061165f85828601610e67565b925050602083013567ffffffffffffffff8111156116805761167f610e41565b5b61168c8582860161160c565b9150509250929050565b7f496e76616c696420616374696f6e207479706500000000000000000000000000600082015250565b60006116cc601383610ec3565b91506116d782611696565b602082019050919050565b600060208201905081810360008301526116fb816116bf565b9050919050565b7f4f6e6c79206f776e65722063616e2063616c6c20746869732066756e6374696f60008201527f6e00000000000000000000000000000000000000000000000000000000000000602082015250565b600061175e602183610ec3565b915061176982611702565b604082019050919050565b6000602082019050818103600083015261178d81611751565b9050919050565b7f50726f706f73616c20646f6573206e6f74206578697374000000000000000000600082015250565b60006117ca601783610ec3565b91506117d582611794565b602082019050919050565b600060208201905081810360008301526117f9816117bd565b9050919050565b7f416c726561647920766f74656400000000000000000000000000000000000000600082015250565b6000611836600d83610ec3565b915061184182611800565b602082019050919050565b6000602082019050818103600083015261186581611829565b9050919050565b7f566f74696e6720706572696f6420656e64656400000000000000000000000000600082015250565b60006118a2601383610ec3565b91506118ad8261186c565b602082019050919050565b600060208201905081810360008301526118d181611895565b9050919050565b6000815190506118e781610e50565b92915050565b60006020828403121561190357611902610e3c565b5b6000611911848285016118d8565b91505092915050565b7f4e6f20766f74696e6720706f7765720000000000000000000000000000000000600082015250565b6000611950600f83610ec3565b915061195b8261191a565b602082019050919050565b6000602082019050818103600083015261197f81611943565b9050919050565b7f4e487b7100000000000000000000000000000000000000000000000000000000600052601160045260246000fd5b60006119c082610e46565b91506119cb83610e46565b92508282019050808211156119e3576119e2611986565b5b92915050565b60006080820190506119fe6000830187610ea9565b611a0b6020830186610f99565b611a186040830185611009565b611a256060830184610ea9565b95945050505050565b600067ffffffffffffffff821115611a4957611a4861150f565b5b611a5282610efe565b9050602081019050919050565b6000611a72611a6d84611a2e565b61156f565b905082815260208101848484011115611a8e57611a8d61150a565b5b611a998482856115bb565b509392505050565b600082601f830112611ab657611ab5611124565b5b8135611ac6848260208601611a5f565b91505092915050565b6000611ada82610f67565b9050919050565b611aea81611acf565b8114611af557600080fd5b50565b600081359050611b0781611ae1565b92915050565b60008060008060008060c08789031215611b2a57611b29610e3c565b5b6000611b3889828a01610e67565b9650506020611b4989828a01610e67565b955050604087013567ffffffffffffffff811115611b6a57611b69610e41565b5b611b7689828a01611aa1565b9450506060611b8789828a016110d9565b9350506080611b9889828a01611af8565b92505060a087013567ffffffffffffffff811115611bb957611bb8610e41565b5b611bc589828a0161160c565b9150509295509295509295565b7f50726f706f73616c20616c726561647920657869737473000000000000000000600082015250565b6000611c08601783610ec3565b9150611c1382611bd2565b602082019050919050565b60006020820190508181036000830152611c3781611bfb565b9050919050565b60008190508160005260206000209050919050565b60006020601f8301049050919050565b600082821b905092915050565b600060088302611ca07fffffffffffffffffffffffffffffffffffffffffffffffffffffffffffffffff82611c63565b611caa8683611c63565b95508019841693508086168417925050509392505050565b6000611cdd611cd8611cd384610e46565b6112f6565b610e46565b9050919050565b6000819050919050565b611cf783611cc2565b611d0b611d0382611ce4565b848454611c70565b825550505050565b600090565b611d20611d13565b611d2b818484611cee565b505050565b5b81811015611d4f57611d44600082611d18565b600181019050611d31565b5050565b601f821115611d9457611d6581611c3e565b611d6e84611c53565b81016020851015611d7d578190505b611d91611d8985611c53565b830182611d30565b50505b505050565b600082821c905092915050565b6000611db760001984600802611d99565b1980831691505092915050565b6000611dd08383611da6565b9150826002028217905092915050565b611de982610eb8565b67ffffffffffffffff811115611e0257611e0161150f565b5b611e0c82546113db565b611e17828285611d53565b600060209050601f831160018114611e4a5760008415611e38578287015190505b611e428582611dc4565b865550611eaa565b601f198416611e5886611c3e565b60005b82811015611e8057848901518255600182019150602085019450602081019050611e5b565b86831015611e9d5784890151611e99601f891682611da6565b8355505b6001600288020188555050505b505050505050565b60008190508160005260206000209050919050565b601f821115611f0857611ed981611eb2565b611ee284611c53565b81016020851015611ef1578190505b611f05611efd85611c53565b830182611d30565b50505b505050565b611f1682610fa8565b67ffffffffffffffff811115611f2f57611f2e61150f565b5b611f3982546113db565b611f44828285611ec7565b600060209050601f831160018114611f775760008415611f65578287015190505b611f6f8582611dc4565b865550611fd7565b601f198416611f8586611eb2565b60005b82811015611fad57848901518255600182019150602085019450602081019050611f88565b86831015611fca5784890151611fc6601f891682611da6565b8355505b6001600288020188555050505b505050505050565b6000606082019050611ff46000830186610ea9565b81810360208301526120068185610f0f565b90506120156040830184610f58565b949350505050565b6000806040838503121561203457612033610e3c565b5b600061204285828601610e67565b925050602061205385828601610e67565b9150509250929050565b7f566f74696e6720706572696f64206e6f7420656e646564000000000000000000600082015250565b6000612093601783610ec3565b915061209e8261205d565b602082019050919050565b600060208201905081810360008301526120c281612086565b9050919050565b6000819050919050565b600060ff82169050919050565b60006120fb6120f66120f1846120c9565b6112f6565b6120d3565b9050919050565b61210b816120e0565b82525050565b60006080820190506121266000830187612102565b6121336020830186610ea9565b6121406040830185610ea9565b61214d6060830184610ea9565b95945050505050565b600060608201905061216b6000830186610f58565b61217860208301856112cc565b818103604083015261218a8184610fc4565b9050949350505050565b6000815190506121a3816110f8565b92915050565b6000602082840312156121bf576121be610e3c565b5b60006121cd84828501612194565b91505092915050565b60006060820190506121eb6000830186610ea9565b6121f86020830185610ea9565b6122056040830184610ea9565b949350505050565b6000806000806080858703121561222757612226610e3c565b5b600061223587828801610e67565b945050602061224687828801610e67565b935050604061225787828801611af8565b925050606085013567ffffffffffffffff81111561227857612277610e41565b5b6122848782880161160c565b91505092959194509250565b7f50726f706f73616c20616c726561647920657865637574656400000000000000600082015250565b60006122c6601983610ec3565b91506122d182612290565b602082019050919050565b600060208201905081810360008301526122f5816122b9565b9050919050565b600081905092915050565b600061231282610fa8565b61231c81856122fc565b935061232c818560208601610ed4565b80840191505092915050565b60006123448284612307565b915081905092915050565b7f50726f706f73616c20657865637574696f6e206661696c656400000000000000600082015250565b6000612385601983610ec3565b91506123908261234f565b602082019050919050565b600060208201905081810360008301526123b481612378565b9050919050565b60006020820190506123d06000830184610ea9565b9291505056fea2646970667358221220b6d1f56d4864eba41c01cf43d6fbd45fe5661075718cadd8d90896c67c34343f64736f6c63430008140033","opcodes":"PUSH1 0x80 PUSH1 0x40 MSTORE CALLVALUE DUP1 ISZERO PUSH3 0x11 JUMPI PUSH1 0x0 DUP1 REVERT JUMPDEST POP PUSH1 0x40 MLOAD PUSH3 0x269F CODESIZE SUB DUP1 PUSH3 0x269F DUP4 CODECOPY DUP2 DUP2 ADD PUSH1 0x40 MSTORE DUP2 ADD SWAP1 PUSH3 0x37 SWAP2 SWAP1 PUSH3 0x211 JUMP JUMPDEST CALLER PUSH1 0x0 DUP1 PUSH2 0x100 EXP DUP2 SLOAD DUP2 PUSH20 0xFFFFFFFFFFFFFFFFFFFFFFFFFFFFFFFFFFFFFFFF MUL NOT AND SWAP1 DUP4 PUSH20 0xFFFFFFFFFFFFFFFFFFFFFFFFFFFFFFFFFFFFFFFF AND MUL OR SWAP1 SSTORE POP DUP4 PUSH1 0x1 PUSH1 0x0 PUSH2 0x100 EXP DUP2 SLOAD DUP2 PUSH20 0xFFFFFFFFFFFFFFFFFFFFFFFFFFFFFFFFFFFFFFFF MUL NOT AND SWAP1 DUP4 PUSH20 0xFFFFFFFFFFFFFFFFFFFFFFFFFFFFFFFFFFFFFFFF AND MUL OR SWAP1 SSTORE POP DUP3 PUSH1 0x2 PUSH1 0x0 PUSH2 0x100 EXP DUP2 SLOAD DUP2 PUSH20 0xFFFFFFFFFFFFFFFFFFFFFFFFFFFFFFFFFFFFFFFF MUL NOT AND SWAP1 DUP4 PUSH20 0xFFFFFFFFFFFFFFFFFFFFFFFFFFFFFFFFFFFFFFFF AND MUL OR SWAP1 SSTORE POP DUP2 PUSH1 0x2 PUSH1 0x14 PUSH2 0x100 EXP DUP2 SLOAD DUP2 PUSH4 0xFFFFFFFF MUL NOT AND SWAP1 DUP4 PUSH4 0xFFFFFFFF AND MUL OR SWAP1 SSTORE POP DUP1 PUSH1 0x3 DUP2 SWAP1 SSTORE POP POP POP POP POP PUSH3 0x283 JUMP JUMPDEST PUSH1 0x0 DUP1 REVERT JUMPDEST PUSH1 0x0 PUSH20 0xFFFFFFFFFFFFFFFFFFFFFFFFFFFFFFFFFFFFFFFF DUP3 AND SWAP1 POP SWAP2 SWAP1 POP JUMP JUMPDEST PUSH1 0x0 PUSH3 0x15D DUP3 PUSH3 0x130 JUMP JUMPDEST SWAP1 POP SWAP2 SWAP1 POP JUMP JUMPDEST PUSH3 0x16F DUP2 PUSH3 0x150 JUMP JUMPDEST DUP2 EQ PUSH3 0x17B JUMPI PUSH1 0x0 DUP1 REVERT JUMPDEST POP JUMP JUMPDEST PUSH1 0x0 DUP2 MLOAD SWAP1 POP PUSH3 0x18F DUP2 PUSH3 0x164 JUMP JUMPDEST SWAP3 SWAP2 POP POP JUMP JUMPDEST PUSH1 0x0 PUSH4 0xFFFFFFFF DUP3 AND SWAP1 POP SWAP2 SWAP1 POP JUMP JUMPDEST PUSH3 0x1B0 DUP2 PUSH3 0x195 JUMP JUMPDEST DUP2 EQ PUSH3 0x1BC JUMPI PUSH1 0x0 DUP1 REVERT JUMPDEST POP JUMP JUMPDEST PUSH1 0x0 DUP2 MLOAD SWAP1 POP PUSH3 0x1D0 DUP2 PUSH3 0x1A5 JUMP JUMPDEST SWAP3 SWAP2 POP POP JUMP JUMPDEST PUSH1 0x0 DUP2 SWAP1 POP SWAP2 SWAP1 POP JUMP JUMPDEST PUSH3 0x1EB DUP2 PUSH3 0x1D6 JUMP JUMPDEST DUP2 EQ PUSH3 0x1F7 JUMPI PUSH1 0x0 DUP1 REVERT JUMPDEST POP JUMP JUMPDEST PUSH1 0x0 DUP2 MLOAD SWAP1 POP PUSH3 0x20B DUP2 PUSH3 0x1E0 JUMP JUMPDEST SWAP3 SWAP2 POP POP JUMP JUMPDEST PUSH1 0x0 DUP1 PUSH1 0x0 DUP1 PUSH1 0x80 DUP6 DUP8 SUB SLT ISZERO PUSH3 0x22E JUMPI PUSH3 0x22D PUSH3 0x12B JUMP JUMPDEST JUMPDEST PUSH1 0x0 PUSH3 0x23E DUP8 DUP3 DUP9 ADD PUSH3 0x17E JUMP JUMPDEST SWAP5 POP POP PUSH1 0x20 PUSH3 0x251 DUP8 DUP3 DUP9 ADD PUSH3 0x17E JUMP JUMPDEST SWAP4 POP POP PUSH1 0x40 PUSH3 0x264 DUP8 DUP3 DUP9 ADD PUSH3 0x1BF JUMP JUMPDEST SWAP3 POP POP PUSH1 0x60 PUSH3 0x277 DUP8 DUP3 DUP9 ADD PUSH3 0x1FA JUMP JUMPDEST SWAP2 POP POP SWAP3 SWAP6 SWAP2 SWAP5 POP SWAP3 POP JUMP JUMPDEST PUSH2 0x240C DUP1 PUSH3 0x293 PUSH1 0x0 CODECOPY PUSH1 0x0 RETURN INVALID PUSH1 0x80 PUSH1 0x40 MSTORE CALLVALUE DUP1 ISZERO PUSH2 0x10 JUMPI PUSH1 0x0 DUP1 REVERT JUMPDEST POP PUSH1 0x4 CALLDATASIZE LT PUSH2 0x93 JUMPI PUSH1 0x0 CALLDATALOAD PUSH1 0xE0 SHR DUP1 PUSH4 0x9D21AF38 GT PUSH2 0x66 JUMPI DUP1 PUSH4 0x9D21AF38 EQ PUSH2 0x129 JUMPI DUP1 PUSH4 0xC9D27AFE EQ PUSH2 0x145 JUMPI DUP1 PUSH4 0xD1437B8D EQ PUSH2 0x161 JUMPI DUP1 PUSH4 0xD5438EAE EQ PUSH2 0x17F JUMPI DUP1 PUSH4 0xF96DAE0A EQ PUSH2 0x19D JUMPI PUSH2 0x93 JUMP JUMPDEST DUP1 PUSH4 0x13CF08B EQ PUSH2 0x98 JUMPI DUP1 PUSH4 0x56D5D475 EQ PUSH2 0xD1 JUMPI DUP1 PUSH4 0x81786725 EQ PUSH2 0xED JUMPI DUP1 PUSH4 0x8DA5CB5B EQ PUSH2 0x10B JUMPI JUMPDEST PUSH1 0x0 DUP1 REVERT JUMPDEST PUSH2 0xB2 PUSH1 0x4 DUP1 CALLDATASIZE SUB DUP2 ADD SWAP1 PUSH2 0xAD SWAP2 SWAP1 PUSH2 0xE7C JUMP JUMPDEST PUSH2 0x1BB JUMP JUMPDEST PUSH1 0x40 MLOAD PUSH2 0xC8 SWAP11 SWAP10 SWAP9 SWAP8 SWAP7 SWAP6 SWAP5 SWAP4 SWAP3 SWAP2 SWAP1 PUSH2 0x1018 JUMP JUMPDEST PUSH1 0x40 MLOAD DUP1 SWAP2 SUB SWAP1 RETURN JUMPDEST PUSH2 0xEB PUSH1 0x4 DUP1 CALLDATASIZE SUB DUP2 ADD SWAP1 PUSH2 0xE6 SWAP2 SWAP1 PUSH2 0x1189 JUMP JUMPDEST PUSH2 0x35C JUMP JUMPDEST STOP JUMPDEST PUSH2 0xF5 PUSH2 0x4CD JUMP JUMPDEST PUSH1 0x40 MLOAD PUSH2 0x102 SWAP2 SWAP1 PUSH2 0x11FD JUMP JUMPDEST PUSH1 0x40 MLOAD DUP1 SWAP2 SUB SWAP1 RETURN JUMPDEST PUSH2 0x113 PUSH2 0x4E3 JUMP JUMPDEST PUSH1 0x40 MLOAD PUSH2 0x120 SWAP2 SWAP1 PUSH2 0x1218 JUMP JUMPDEST PUSH1 0x40 MLOAD DUP1 SWAP2 SUB SWAP1 RETURN JUMPDEST PUSH2 0x143 PUSH1 0x4 DUP1 CALLDATASIZE SUB DUP2 ADD SWAP1 PUSH2 0x13E SWAP2 SWAP1 PUSH2 0x1233 JUMP JUMPDEST PUSH2 0x507 JUMP JUMPDEST STOP JUMPDEST PUSH2 0x15F PUSH1 0x4 DUP1 CALLDATASIZE SUB DUP2 ADD SWAP1 PUSH2 0x15A SWAP2 SWAP1 PUSH2 0x128C JUMP JUMPDEST PUSH2 0x59F JUMP JUMPDEST STOP JUMPDEST PUSH2 0x169 PUSH2 0x895 JUMP JUMPDEST PUSH1 0x40 MLOAD PUSH2 0x176 SWAP2 SWAP1 PUSH2 0x12DB JUMP JUMPDEST PUSH1 0x40 MLOAD DUP1 SWAP2 SUB SWAP1 RETURN JUMPDEST PUSH2 0x187 PUSH2 0x89B JUMP JUMPDEST PUSH1 0x40 MLOAD PUSH2 0x194 SWAP2 SWAP1 PUSH2 0x1355 JUMP JUMPDEST PUSH1 0x40 MLOAD DUP1 SWAP2 SUB SWAP1 RETURN JUMPDEST PUSH2 0x1A5 PUSH2 0x8C1 JUMP JUMPDEST PUSH1 0x40 MLOAD PUSH2 0x1B2 SWAP2 SWAP1 PUSH2 0x1391 JUMP JUMPDEST PUSH1 0x40 MLOAD DUP1 SWAP2 SUB SWAP1 RETURN JUMPDEST PUSH1 0x4 PUSH1 0x20 MSTORE DUP1 PUSH1 0x0 MSTORE PUSH1 0x40 PUSH1 0x0 KECCAK256 PUSH1 0x0 SWAP2 POP SWAP1 POP DUP1 PUSH1 0x0 ADD SLOAD SWAP1 DUP1 PUSH1 0x1 ADD DUP1 SLOAD PUSH2 0x1E4 SWAP1 PUSH2 0x13DB JUMP JUMPDEST DUP1 PUSH1 0x1F ADD PUSH1 0x20 DUP1 SWAP2 DIV MUL PUSH1 0x20 ADD PUSH1 0x40 MLOAD SWAP1 DUP2 ADD PUSH1 0x40 MSTORE DUP1 SWAP3 SWAP2 SWAP1 DUP2 DUP2 MSTORE PUSH1 0x20 ADD DUP3 DUP1 SLOAD PUSH2 0x210 SWAP1 PUSH2 0x13DB JUMP JUMPDEST DUP1 ISZERO PUSH2 0x25D JUMPI DUP1 PUSH1 0x1F LT PUSH2 0x232 JUMPI PUSH2 0x100 DUP1 DUP4 SLOAD DIV MUL DUP4 MSTORE SWAP2 PUSH1 0x20 ADD SWAP2 PUSH2 0x25D JUMP JUMPDEST DUP3 ADD SWAP2 SWAP1 PUSH1 0x0 MSTORE PUSH1 0x20 PUSH1 0x0 KECCAK256 SWAP1 JUMPDEST DUP2 SLOAD DUP2 MSTORE SWAP1 PUSH1 0x1 ADD SWAP1 PUSH1 0x20 ADD DUP1 DUP4 GT PUSH2 0x240 JUMPI DUP3 SWAP1 SUB PUSH1 0x1F AND DUP3 ADD SWAP2 JUMPDEST POP POP POP POP POP SWAP1 DUP1 PUSH1 0x2 ADD SLOAD SWAP1 DUP1 PUSH1 0x3 ADD SLOAD SWAP1 DUP1 PUSH1 0x4 ADD SLOAD SWAP1 DUP1 PUSH1 0x5 ADD SLOAD SWAP1 DUP1 PUSH1 0x6 ADD PUSH1 0x0 SWAP1 SLOAD SWAP1 PUSH2 0x100 EXP SWAP1 DIV PUSH4 0xFFFFFFFF AND SWAP1 DUP1 PUSH1 0x6 ADD PUSH1 0x4 SWAP1 SLOAD SWAP1 PUSH2 0x100 EXP SWAP1 DIV PUSH20 0xFFFFFFFFFFFFFFFFFFFFFFFFFFFFFFFFFFFFFFFF AND SWAP1 DUP1 PUSH1 0x7 ADD DUP1 SLOAD PUSH2 0x2C6 SWAP1 PUSH2 0x13DB JUMP JUMPDEST DUP1 PUSH1 0x1F ADD PUSH1 0x20 DUP1 SWAP2 DIV MUL PUSH1 0x20 ADD PUSH1 0x40 MLOAD SWAP1 DUP2 ADD PUSH1 0x40 MSTORE DUP1 SWAP3 SWAP2 SWAP1 DUP2 DUP2 MSTORE PUSH1 0x20 ADD DUP3 DUP1 SLOAD PUSH2 0x2F2 SWAP1 PUSH2 0x13DB JUMP JUMPDEST DUP1 ISZERO PUSH2 0x33F JUMPI DUP1 PUSH1 0x1F LT PUSH2 0x314 JUMPI PUSH2 0x100 DUP1 DUP4 SLOAD DIV MUL DUP4 MSTORE SWAP2 PUSH1 0x20 ADD SWAP2 PUSH2 0x33F JUMP JUMPDEST DUP3 ADD SWAP2 SWAP1 PUSH1 0x0 MSTORE PUSH1 0x20 PUSH1 0x0 KECCAK256 SWAP1 JUMPDEST DUP2 SLOAD DUP2 MSTORE SWAP1 PUSH1 0x1 ADD SWAP1 PUSH1 0x20 ADD DUP1 DUP4 GT PUSH2 0x322 JUMPI DUP3 SWAP1 SUB PUSH1 0x1F AND DUP3 ADD SWAP2 JUMPDEST POP POP POP POP POP SWAP1 DUP1 PUSH1 0x8 ADD PUSH1 0x0 SWAP1 SLOAD SWAP1 PUSH2 0x100 EXP SWAP1 DIV PUSH1 0xFF AND SWAP1 POP DUP11 JUMP JUMPDEST PUSH1 0x1 PUSH1 0x0 SWAP1 SLOAD SWAP1 PUSH2 0x100 EXP SWAP1 DIV PUSH20 0xFFFFFFFFFFFFFFFFFFFFFFFFFFFFFFFFFFFFFFFF AND PUSH20 0xFFFFFFFFFFFFFFFFFFFFFFFFFFFFFFFFFFFFFFFF AND CALLER PUSH20 0xFFFFFFFFFFFFFFFFFFFFFFFFFFFFFFFFFFFFFFFF AND EQ PUSH2 0x3EC JUMPI PUSH1 0x40 MLOAD PUSH32 0x8C379A000000000000000000000000000000000000000000000000000000000 DUP2 MSTORE PUSH1 0x4 ADD PUSH2 0x3E3 SWAP1 PUSH2 0x147E JUMP JUMPDEST PUSH1 0x40 MLOAD DUP1 SWAP2 SUB SWAP1 REVERT JUMPDEST PUSH1 0x3 SLOAD DUP4 EQ PUSH2 0x430 JUMPI PUSH1 0x40 MLOAD PUSH32 0x8C379A000000000000000000000000000000000000000000000000000000000 DUP2 MSTORE PUSH1 0x4 ADD PUSH2 0x427 SWAP1 PUSH2 0x14EA JUMP JUMPDEST PUSH1 0x40 MLOAD DUP1 SWAP2 SUB SWAP1 REVERT JUMPDEST PUSH1 0x0 DUP3 DUP3 DUP2 ADD SWAP1 PUSH2 0x441 SWAP2 SWAP1 PUSH2 0x163A JUMP JUMPDEST POP SWAP1 POP PUSH1 0x0 DUP2 SUB PUSH2 0x45B JUMPI PUSH2 0x456 DUP4 DUP4 PUSH2 0x8E7 JUMP JUMPDEST PUSH2 0x4C6 JUMP JUMPDEST PUSH1 0x1 DUP2 SUB PUSH2 0x472 JUMPI PUSH2 0x46D DUP4 DUP4 PUSH2 0xA71 JUMP JUMPDEST PUSH2 0x4C5 JUMP JUMPDEST PUSH1 0x2 DUP2 SUB PUSH2 0x489 JUMPI PUSH2 0x484 DUP4 DUP4 PUSH2 0xC5D JUMP JUMPDEST PUSH2 0x4C4 JUMP JUMPDEST PUSH1 0x40 MLOAD PUSH32 0x8C379A000000000000000000000000000000000000000000000000000000000 DUP2 MSTORE PUSH1 0x4 ADD PUSH2 0x4BB SWAP1 PUSH2 0x16E2 JUMP JUMPDEST PUSH1 0x40 MLOAD DUP1 SWAP2 SUB SWAP1 REVERT JUMPDEST JUMPDEST JUMPDEST POP POP POP POP POP JUMP JUMPDEST PUSH1 0x2 PUSH1 0x14 SWAP1 SLOAD SWAP1 PUSH2 0x100 EXP SWAP1 DIV PUSH4 0xFFFFFFFF AND DUP2 JUMP JUMPDEST PUSH1 0x0 DUP1 SLOAD SWAP1 PUSH2 0x100 EXP SWAP1 DIV PUSH20 0xFFFFFFFFFFFFFFFFFFFFFFFFFFFFFFFFFFFFFFFF AND DUP2 JUMP JUMPDEST PUSH1 0x0 DUP1 SLOAD SWAP1 PUSH2 0x100 EXP SWAP1 DIV PUSH20 0xFFFFFFFFFFFFFFFFFFFFFFFFFFFFFFFFFFFFFFFF AND PUSH20 0xFFFFFFFFFFFFFFFFFFFFFFFFFFFFFFFFFFFFFFFF AND CALLER PUSH20 0xFFFFFFFFFFFFFFFFFFFFFFFFFFFFFFFFFFFFFFFF AND EQ PUSH2 0x595 JUMPI PUSH1 0x40 MLOAD PUSH32 0x8C379A000000000000000000000000000000000000000000000000000000000 DUP2 MSTORE PUSH1 0x4 ADD PUSH2 0x58C SWAP1 PUSH2 0x1774 JUMP JUMPDEST PUSH1 0x40 MLOAD DUP1 SWAP2 SUB SWAP1 REVERT JUMPDEST DUP1 PUSH1 0x3 DUP2 SWAP1 SSTORE POP POP JUMP JUMPDEST PUSH1 0x0 PUSH1 0x4 PUSH1 0x0 DUP5 DUP2 MSTORE PUSH1 0x20 ADD SWAP1 DUP2 MSTORE PUSH1 0x20 ADD PUSH1 0x0 KECCAK256 SWAP1 POP PUSH1 0x0 DUP2 PUSH1 0x0 ADD SLOAD SUB PUSH2 0x5FD JUMPI PUSH1 0x40 MLOAD PUSH32 0x8C379A000000000000000000000000000000000000000000000000000000000 DUP2 MSTORE PUSH1 0x4 ADD PUSH2 0x5F4 SWAP1 PUSH2 0x17E0 JUMP JUMPDEST PUSH1 0x40 MLOAD DUP1 SWAP2 SUB SWAP1 REVERT JUMPDEST DUP1 PUSH1 0x9 ADD PUSH1 0x0 CALLER PUSH20 0xFFFFFFFFFFFFFFFFFFFFFFFFFFFFFFFFFFFFFFFF AND PUSH20 0xFFFFFFFFFFFFFFFFFFFFFFFFFFFFFFFFFFFFFFFF AND DUP2 MSTORE PUSH1 0x20 ADD SWAP1 DUP2 MSTORE PUSH1 0x20 ADD PUSH1 0x0 KECCAK256 PUSH1 0x0 SWAP1 SLOAD SWAP1 PUSH2 0x100 EXP SWAP1 DIV PUSH1 0xFF AND ISZERO PUSH2 0x68C JUMPI PUSH1 0x40 MLOAD PUSH32 0x8C379A000000000000000000000000000000000000000000000000000000000 DUP2 MSTORE PUSH1 0x4 ADD PUSH2 0x683 SWAP1 PUSH2 0x184C JUMP JUMPDEST PUSH1 0x40 MLOAD DUP1 SWAP2 SUB SWAP1 REVERT JUMPDEST DUP1 PUSH1 0x5 ADD SLOAD TIMESTAMP GT ISZERO PUSH2 0x6D3 JUMPI PUSH1 0x40 MLOAD PUSH32 0x8C379A000000000000000000000000000000000000000000000000000000000 DUP2 MSTORE PUSH1 0x4 ADD PUSH2 0x6CA SWAP1 PUSH2 0x18B8 JUMP JUMPDEST PUSH1 0x40 MLOAD DUP1 SWAP2 SUB SWAP1 REVERT JUMPDEST PUSH1 0x0 PUSH1 0x2 PUSH1 0x0 SWAP1 SLOAD SWAP1 PUSH2 0x100 EXP SWAP1 DIV PUSH20 0xFFFFFFFFFFFFFFFFFFFFFFFFFFFFFFFFFFFFFFFF AND PUSH20 0xFFFFFFFFFFFFFFFFFFFFFFFFFFFFFFFFFFFFFFFF AND PUSH4 0x70A08231 CALLER PUSH1 0x40 MLOAD DUP3 PUSH4 0xFFFFFFFF AND PUSH1 0xE0 SHL DUP2 MSTORE PUSH1 0x4 ADD PUSH2 0x730 SWAP2 SWAP1 PUSH2 0x1218 JUMP JUMPDEST PUSH1 0x20 PUSH1 0x40 MLOAD DUP1 DUP4 SUB DUP2 DUP7 GAS STATICCALL ISZERO DUP1 ISZERO PUSH2 0x74D JUMPI RETURNDATASIZE PUSH1 0x0 DUP1 RETURNDATACOPY RETURNDATASIZE PUSH1 0x0 REVERT JUMPDEST POP POP POP POP PUSH1 0x40 MLOAD RETURNDATASIZE PUSH1 0x1F NOT PUSH1 0x1F DUP3 ADD AND DUP3 ADD DUP1 PUSH1 0x40 MSTORE POP DUP2 ADD SWAP1 PUSH2 0x771 SWAP2 SWAP1 PUSH2 0x18ED JUMP JUMPDEST SWAP1 POP PUSH1 0x0 DUP2 GT PUSH2 0x7B6 JUMPI PUSH1 0x40 MLOAD PUSH32 0x8C379A000000000000000000000000000000000000000000000000000000000 DUP2 MSTORE PUSH1 0x4 ADD PUSH2 0x7AD SWAP1 PUSH2 0x1966 JUMP JUMPDEST PUSH1 0x40 MLOAD DUP1 SWAP2 SUB SWAP1 REVERT JUMPDEST DUP3 ISZERO PUSH2 0x7DC JUMPI DUP1 DUP3 PUSH1 0x2 ADD PUSH1 0x0 DUP3 DUP3 SLOAD PUSH2 0x7D0 SWAP2 SWAP1 PUSH2 0x19B5 JUMP JUMPDEST SWAP3 POP POP DUP2 SWAP1 SSTORE POP PUSH2 0x7F8 JUMP JUMPDEST DUP1 DUP3 PUSH1 0x3 ADD PUSH1 0x0 DUP3 DUP3 SLOAD PUSH2 0x7F0 SWAP2 SWAP1 PUSH2 0x19B5 JUMP JUMPDEST SWAP3 POP POP DUP2 SWAP1 SSTORE POP JUMPDEST PUSH1 0x1 DUP3 PUSH1 0x9 ADD PUSH1 0x0 CALLER PUSH20 0xFFFFFFFFFFFFFFFFFFFFFFFFFFFFFFFFFFFFFFFF AND PUSH20 0xFFFFFFFFFFFFFFFFFFFFFFFFFFFFFFFFFFFFFFFF AND DUP2 MSTORE PUSH1 0x20 ADD SWAP1 DUP2 MSTORE PUSH1 0x20 ADD PUSH1 0x0 KECCAK256 PUSH1 0x0 PUSH2 0x100 EXP DUP2 SLOAD DUP2 PUSH1 0xFF MUL NOT AND SWAP1 DUP4 ISZERO ISZERO MUL OR SWAP1 SSTORE POP PUSH32 0x7C2DE587C00D75474A0C6C6FA96FD3B45DC974CD4E8A75F712BB84C950DCE1B5 DUP5 CALLER DUP6 DUP5 PUSH1 0x40 MLOAD PUSH2 0x887 SWAP5 SWAP4 SWAP3 SWAP2 SWAP1 PUSH2 0x19E9 JUMP JUMPDEST PUSH1 0x40 MLOAD DUP1 SWAP2 SUB SWAP1 LOG1 POP POP POP POP JUMP JUMPDEST PUSH1 0x3 SLOAD DUP2 JUMP JUMPDEST PUSH1 0x1 PUSH1 0x0 SWAP1 SLOAD SWAP1 PUSH2 0x100 EXP SWAP1 DIV PUSH20 0xFFFFFFFFFFFFFFFFFFFFFFFFFFFFFFFFFFFFFFFF AND DUP2 JUMP JUMPDEST PUSH1 0x2 PUSH1 0x0 SWAP1 SLOAD SWAP1 PUSH2 0x100 EXP SWAP1 DIV PUSH20 0xFFFFFFFFFFFFFFFFFFFFFFFFFFFFFFFFFFFFFFFF AND DUP2 JUMP JUMPDEST PUSH1 0x0 DUP1 PUSH1 0x0 DUP1 PUSH1 0x0 DUP7 DUP7 DUP2 ADD SWAP1 PUSH2 0x8FE SWAP2 SWAP1 PUSH2 0x1B0D JUMP JUMPDEST SWAP6 POP SWAP6 POP SWAP6 POP SWAP6 POP SWAP6 POP POP PUSH1 0x0 PUSH1 0x4 PUSH1 0x0 DUP8 DUP2 MSTORE PUSH1 0x20 ADD SWAP1 DUP2 MSTORE PUSH1 0x20 ADD PUSH1 0x0 KECCAK256 PUSH1 0x0 ADD SLOAD EQ PUSH2 0x962 JUMPI PUSH1 0x40 MLOAD PUSH32 0x8C379A000000000000000000000000000000000000000000000000000000000 DUP2 MSTORE PUSH1 0x4 ADD PUSH2 0x959 SWAP1 PUSH2 0x1C1E JUMP JUMPDEST PUSH1 0x40 MLOAD DUP1 SWAP2 SUB SWAP1 REVERT JUMPDEST PUSH1 0x0 PUSH1 0x4 PUSH1 0x0 DUP8 DUP2 MSTORE PUSH1 0x20 ADD SWAP1 DUP2 MSTORE PUSH1 0x20 ADD PUSH1 0x0 KECCAK256 SWAP1 POP DUP6 DUP2 PUSH1 0x0 ADD DUP2 SWAP1 SSTORE POP DUP5 DUP2 PUSH1 0x1 ADD SWAP1 DUP2 PUSH2 0x993 SWAP2 SWAP1 PUSH2 0x1DE0 JUMP JUMPDEST POP TIMESTAMP DUP2 PUSH1 0x4 ADD DUP2 SWAP1 SSTORE POP PUSH3 0x93A80 TIMESTAMP PUSH2 0x9AC SWAP2 SWAP1 PUSH2 0x19B5 JUMP JUMPDEST DUP2 PUSH1 0x5 ADD DUP2 SWAP1 SSTORE POP DUP4 DUP2 PUSH1 0x6 ADD PUSH1 0x0 PUSH2 0x100 EXP DUP2 SLOAD DUP2 PUSH4 0xFFFFFFFF MUL NOT AND SWAP1 DUP4 PUSH4 0xFFFFFFFF AND MUL OR SWAP1 SSTORE POP DUP3 DUP2 PUSH1 0x6 ADD PUSH1 0x4 PUSH2 0x100 EXP DUP2 SLOAD DUP2 PUSH20 0xFFFFFFFFFFFFFFFFFFFFFFFFFFFFFFFFFFFFFFFF MUL NOT AND SWAP1 DUP4 PUSH20 0xFFFFFFFFFFFFFFFFFFFFFFFFFFFFFFFFFFFFFFFF AND MUL OR SWAP1 SSTORE POP DUP2 DUP2 PUSH1 0x7 ADD SWAP1 DUP2 PUSH2 0xA2B SWAP2 SWAP1 PUSH2 0x1F0D JUMP JUMPDEST POP PUSH32 0x4BA44B2F2CC6680DDB07ED1CBFEC32EEA742383066950EFCB2305EAB868E2161 DUP7 DUP7 DUP7 PUSH1 0x40 MLOAD PUSH2 0xA5F SWAP4 SWAP3 SWAP2 SWAP1 PUSH2 0x1FDF JUMP JUMPDEST PUSH1 0x40 MLOAD DUP1 SWAP2 SUB SWAP1 LOG1 POP POP POP POP POP POP POP POP JUMP JUMPDEST PUSH1 0x0 DUP3 DUP3 DUP2 ADD SWAP1 PUSH2 0xA82 SWAP2 SWAP1 PUSH2 0x201D JUMP JUMPDEST SWAP2 POP POP PUSH1 0x0 PUSH1 0x4 PUSH1 0x0 DUP4 DUP2 MSTORE PUSH1 0x20 ADD SWAP1 DUP2 MSTORE PUSH1 0x20 ADD PUSH1 0x0 KECCAK256 SWAP1 POP PUSH1 0x0 DUP2 PUSH1 0x0 ADD SLOAD SUB PUSH2 0xAE3 JUMPI PUSH1 0x40 MLOAD PUSH32 0x8C379A000000000000000000000000000000000000000000000000000000000 DUP2 MSTORE PUSH1 0x4 ADD PUSH2 0xADA SWAP1 PUSH2 0x17E0 JUMP JUMPDEST PUSH1 0x40 MLOAD DUP1 SWAP2 SUB SWAP1 REVERT JUMPDEST DUP1 PUSH1 0x5 ADD SLOAD TIMESTAMP GT PUSH2 0xB29 JUMPI PUSH1 0x40 MLOAD PUSH32 0x8C379A000000000000000000000000000000000000000000000000000000000 DUP2 MSTORE PUSH1 0x4 ADD PUSH2 0xB20 SWAP1 PUSH2 0x20A9 JUMP JUMPDEST PUSH1 0x40 MLOAD DUP1 SWAP2 SUB SWAP1 REVERT JUMPDEST PUSH1 0x0 PUSH1 0x1 DUP4 DUP4 PUSH1 0x2 ADD SLOAD DUP5 PUSH1 0x3 ADD SLOAD PUSH1 0x40 MLOAD PUSH1 0x20 ADD PUSH2 0xB4B SWAP5 SWAP4 SWAP3 SWAP2 SWAP1 PUSH2 0x2111 JUMP JUMPDEST PUSH1 0x40 MLOAD PUSH1 0x20 DUP2 DUP4 SUB SUB DUP2 MSTORE SWAP1 PUSH1 0x40 MSTORE SWAP1 POP PUSH1 0x1 PUSH1 0x0 SWAP1 SLOAD SWAP1 PUSH2 0x100 EXP SWAP1 DIV PUSH20 0xFFFFFFFFFFFFFFFFFFFFFFFFFFFFFFFFFFFFFFFF AND PUSH20 0xFFFFFFFFFFFFFFFFFFFFFFFFFFFFFFFFFFFFFFFF AND PUSH4 0xFA31DE01 PUSH1 0x2 PUSH1 0x14 SWAP1 SLOAD SWAP1 PUSH2 0x100 EXP SWAP1 DIV PUSH4 0xFFFFFFFF AND PUSH1 0x3 SLOAD DUP5 PUSH1 0x40 MLOAD DUP5 PUSH4 0xFFFFFFFF AND PUSH1 0xE0 SHL DUP2 MSTORE PUSH1 0x4 ADD PUSH2 0xBCF SWAP4 SWAP3 SWAP2 SWAP1 PUSH2 0x2156 JUMP JUMPDEST PUSH1 0x20 PUSH1 0x40 MLOAD DUP1 DUP4 SUB DUP2 PUSH1 0x0 DUP8 GAS CALL ISZERO DUP1 ISZERO PUSH2 0xBEE JUMPI RETURNDATASIZE PUSH1 0x0 DUP1 RETURNDATACOPY RETURNDATASIZE PUSH1 0x0 REVERT JUMPDEST POP POP POP POP PUSH1 0x40 MLOAD RETURNDATASIZE PUSH1 0x1F NOT PUSH1 0x1F DUP3 ADD AND DUP3 ADD DUP1 PUSH1 0x40 MSTORE POP DUP2 ADD SWAP1 PUSH2 0xC12 SWAP2 SWAP1 PUSH2 0x21A9 JUMP JUMPDEST POP PUSH32 0xB7A878643A82614F0AD3432EA0A03B82104EFDB339035148B3655609341A37D4 DUP4 DUP4 PUSH1 0x2 ADD SLOAD DUP5 PUSH1 0x3 ADD SLOAD PUSH1 0x40 MLOAD PUSH2 0xC4E SWAP4 SWAP3 SWAP2 SWAP1 PUSH2 0x21D6 JUMP JUMPDEST PUSH1 0x40 MLOAD DUP1 SWAP2 SUB SWAP1 LOG1 POP POP POP POP POP JUMP JUMPDEST PUSH1 0x0 DUP1 PUSH1 0x0 DUP5 DUP5 DUP2 ADD SWAP1 PUSH2 0xC71 SWAP2 SWAP1 PUSH2 0x220D JUMP JUMPDEST SWAP4 POP SWAP4 POP SWAP4 POP POP PUSH1 0x0 PUSH1 0x4 PUSH1 0x0 DUP6 DUP2 MSTORE PUSH1 0x20 ADD SWAP1 DUP2 MSTORE PUSH1 0x20 ADD PUSH1 0x0 KECCAK256 SWAP1 POP PUSH1 0x0 DUP2 PUSH1 0x0 ADD SLOAD SUB PUSH2 0xCD6 JUMPI PUSH1 0x40 MLOAD PUSH32 0x8C379A000000000000000000000000000000000000000000000000000000000 DUP2 MSTORE PUSH1 0x4 ADD PUSH2 0xCCD SWAP1 PUSH2 0x17E0 JUMP JUMPDEST PUSH1 0x40 MLOAD DUP1 SWAP2 SUB SWAP1 REVERT JUMPDEST DUP1 PUSH1 0x8 ADD PUSH1 0x0 SWAP1 SLOAD SWAP1 PUSH2 0x100 EXP SWAP1 DIV PUSH1 0xFF AND ISZERO PUSH2 0xD28 JUMPI PUSH1 0x40 MLOAD PUSH32 0x8C379A000000000000000000000000000000000000000000000000000000000 DUP2 MSTORE PUSH1 0x4 ADD PUSH2 0xD1F SWAP1 PUSH2 0x22DC JUMP JUMPDEST PUSH1 0x40 MLOAD DUP1 SWAP2 SUB SWAP1 REVERT JUMPDEST PUSH1 0x1 DUP2 PUSH1 0x8 ADD PUSH1 0x0 PUSH2 0x100 EXP DUP2 SLOAD DUP2 PUSH1 0xFF MUL NOT AND SWAP1 DUP4 ISZERO ISZERO MUL OR SWAP1 SSTORE POP PUSH1 0x0 DUP4 PUSH20 0xFFFFFFFFFFFFFFFFFFFFFFFFFFFFFFFFFFFFFFFF AND DUP4 PUSH1 0x40 MLOAD PUSH2 0xD6C SWAP2 SWAP1 PUSH2 0x2338 JUMP JUMPDEST PUSH1 0x0 PUSH1 0x40 MLOAD DUP1 DUP4 SUB DUP2 PUSH1 0x0 DUP7 GAS CALL SWAP2 POP POP RETURNDATASIZE DUP1 PUSH1 0x0 DUP2 EQ PUSH2 0xDA9 JUMPI PUSH1 0x40 MLOAD SWAP2 POP PUSH1 0x1F NOT PUSH1 0x3F RETURNDATASIZE ADD AND DUP3 ADD PUSH1 0x40 MSTORE RETURNDATASIZE DUP3 MSTORE RETURNDATASIZE PUSH1 0x0 PUSH1 0x20 DUP5 ADD RETURNDATACOPY PUSH2 0xDAE JUMP JUMPDEST PUSH1 0x60 SWAP2 POP JUMPDEST POP POP SWAP1 POP DUP1 PUSH2 0xDF2 JUMPI PUSH1 0x40 MLOAD PUSH32 0x8C379A000000000000000000000000000000000000000000000000000000000 DUP2 MSTORE PUSH1 0x4 ADD PUSH2 0xDE9 SWAP1 PUSH2 0x239B JUMP JUMPDEST PUSH1 0x40 MLOAD DUP1 SWAP2 SUB SWAP1 REVERT JUMPDEST PUSH32 0x712AE1383F79AC853F8D882153778E0260EF8F03B504E2866E0593E04D2B291F DUP6 PUSH1 0x40 MLOAD PUSH2 0xE21 SWAP2 SWAP1 PUSH2 0x23BB JUMP JUMPDEST PUSH1 0x40 MLOAD DUP1 SWAP2 SUB SWAP1 LOG1 POP POP POP POP POP POP POP JUMP JUMPDEST PUSH1 0x0 PUSH1 0x40 MLOAD SWAP1 POP SWAP1 JUMP JUMPDEST PUSH1 0x0 DUP1 REVERT JUMPDEST PUSH1 0x0 DUP1 REVERT JUMPDEST PUSH1 0x0 DUP2 SWAP1 POP SWAP2 SWAP1 POP JUMP JUMPDEST PUSH2 0xE59 DUP2 PUSH2 0xE46 JUMP JUMPDEST DUP2 EQ PUSH2 0xE64 JUMPI PUSH1 0x0 DUP1 REVERT JUMPDEST POP JUMP JUMPDEST PUSH1 0x0 DUP2 CALLDATALOAD SWAP1 POP PUSH2 0xE76 DUP2 PUSH2 0xE50 JUMP JUMPDEST SWAP3 SWAP2 POP POP JUMP JUMPDEST PUSH1 0x0 PUSH1 0x20 DUP3 DUP5 SUB SLT ISZERO PUSH2 0xE92 JUMPI PUSH2 0xE91 PUSH2 0xE3C JUMP JUMPDEST JUMPDEST PUSH1 0x0 PUSH2 0xEA0 DUP5 DUP3 DUP6 ADD PUSH2 0xE67 JUMP JUMPDEST SWAP2 POP POP SWAP3 SWAP2 POP POP JUMP JUMPDEST PUSH2 0xEB2 DUP2 PUSH2 0xE46 JUMP JUMPDEST DUP3 MSTORE POP POP JUMP JUMPDEST PUSH1 0x0 DUP2 MLOAD SWAP1 POP SWAP2 SWAP1 POP JUMP JUMPDEST PUSH1 0x0 DUP3 DUP3 MSTORE PUSH1 0x20 DUP3 ADD SWAP1 POP SWAP3 SWAP2 POP POP JUMP JUMPDEST PUSH1 0x0 JUMPDEST DUP4 DUP2 LT ISZERO PUSH2 0xEF2 JUMPI DUP1 DUP3 ADD MLOAD DUP2 DUP5 ADD MSTORE PUSH1 0x20 DUP2 ADD SWAP1 POP PUSH2 0xED7 JUMP JUMPDEST PUSH1 0x0 DUP5 DUP5 ADD MSTORE POP POP POP POP JUMP JUMPDEST PUSH1 0x0 PUSH1 0x1F NOT PUSH1 0x1F DUP4 ADD AND SWAP1 POP SWAP2 SWAP1 POP JUMP JUMPDEST PUSH1 0x0 PUSH2 0xF1A DUP3 PUSH2 0xEB8 JUMP JUMPDEST PUSH2 0xF24 DUP2 DUP6 PUSH2 0xEC3 JUMP JUMPDEST SWAP4 POP PUSH2 0xF34 DUP2 DUP6 PUSH1 0x20 DUP7 ADD PUSH2 0xED4 JUMP JUMPDEST PUSH2 0xF3D DUP2 PUSH2 0xEFE JUMP JUMPDEST DUP5 ADD SWAP2 POP POP SWAP3 SWAP2 POP POP JUMP JUMPDEST PUSH1 0x0 PUSH4 0xFFFFFFFF DUP3 AND SWAP1 POP SWAP2 SWAP1 POP JUMP JUMPDEST PUSH2 0xF61 DUP2 PUSH2 0xF48 JUMP JUMPDEST DUP3 MSTORE POP POP JUMP JUMPDEST PUSH1 0x0 PUSH20 0xFFFFFFFFFFFFFFFFFFFFFFFFFFFFFFFFFFFFFFFF DUP3 AND SWAP1 POP SWAP2 SWAP1 POP JUMP JUMPDEST PUSH1 0x0 PUSH2 0xF92 DUP3 PUSH2 0xF67 JUMP JUMPDEST SWAP1 POP SWAP2 SWAP1 POP JUMP JUMPDEST PUSH2 0xFA2 DUP2 PUSH2 0xF87 JUMP JUMPDEST DUP3 MSTORE POP POP JUMP JUMPDEST PUSH1 0x0 DUP2 MLOAD SWAP1 POP SWAP2 SWAP1 POP JUMP JUMPDEST PUSH1 0x0 DUP3 DUP3 MSTORE PUSH1 0x20 DUP3 ADD SWAP1 POP SWAP3 SWAP2 POP POP JUMP JUMPDEST PUSH1 0x0 PUSH2 0xFCF DUP3 PUSH2 0xFA8 JUMP JUMPDEST PUSH2 0xFD9 DUP2 DUP6 PUSH2 0xFB3 JUMP JUMPDEST SWAP4 POP PUSH2 0xFE9 DUP2 DUP6 PUSH1 0x20 DUP7 ADD PUSH2 0xED4 JUMP JUMPDEST PUSH2 0xFF2 DUP2 PUSH2 0xEFE JUMP JUMPDEST DUP5 ADD SWAP2 POP POP SWAP3 SWAP2 POP POP JUMP JUMPDEST PUSH1 0x0 DUP2 ISZERO ISZERO SWAP1 POP SWAP2 SWAP1 POP JUMP JUMPDEST PUSH2 0x1012 DUP2 PUSH2 0xFFD JUMP JUMPDEST DUP3 MSTORE POP POP JUMP JUMPDEST PUSH1 0x0 PUSH2 0x140 DUP3 ADD SWAP1 POP PUSH2 0x102E PUSH1 0x0 DUP4 ADD DUP14 PUSH2 0xEA9 JUMP JUMPDEST DUP2 DUP2 SUB PUSH1 0x20 DUP4 ADD MSTORE PUSH2 0x1040 DUP2 DUP13 PUSH2 0xF0F JUMP JUMPDEST SWAP1 POP PUSH2 0x104F PUSH1 0x40 DUP4 ADD DUP12 PUSH2 0xEA9 JUMP JUMPDEST PUSH2 0x105C PUSH1 0x60 DUP4 ADD DUP11 PUSH2 0xEA9 JUMP JUMPDEST PUSH2 0x1069 PUSH1 0x80 DUP4 ADD DUP10 PUSH2 0xEA9 JUMP JUMPDEST PUSH2 0x1076 PUSH1 0xA0 DUP4 ADD DUP9 PUSH2 0xEA9 JUMP JUMPDEST PUSH2 0x1083 PUSH1 0xC0 DUP4 ADD DUP8 PUSH2 0xF58 JUMP JUMPDEST PUSH2 0x1090 PUSH1 0xE0 DUP4 ADD DUP7 PUSH2 0xF99 JUMP JUMPDEST DUP2 DUP2 SUB PUSH2 0x100 DUP4 ADD MSTORE PUSH2 0x10A3 DUP2 DUP6 PUSH2 0xFC4 JUMP JUMPDEST SWAP1 POP PUSH2 0x10B3 PUSH2 0x120 DUP4 ADD DUP5 PUSH2 0x1009 JUMP JUMPDEST SWAP12 SWAP11 POP POP POP POP POP POP POP POP POP POP POP JUMP JUMPDEST PUSH2 0x10CB DUP2 PUSH2 0xF48 JUMP JUMPDEST DUP2 EQ PUSH2 0x10D6 JUMPI PUSH1 0x0 DUP1 REVERT JUMPDEST POP JUMP JUMPDEST PUSH1 0x0 DUP2 CALLDATALOAD SWAP1 POP PUSH2 0x10E8 DUP2 PUSH2 0x10C2 JUMP JUMPDEST SWAP3 SWAP2 POP POP JUMP JUMPDEST PUSH1 0x0 DUP2 SWAP1 POP SWAP2 SWAP1 POP JUMP JUMPDEST PUSH2 0x1101 DUP2 PUSH2 0x10EE JUMP JUMPDEST DUP2 EQ PUSH2 0x110C JUMPI PUSH1 0x0 DUP1 REVERT JUMPDEST POP JUMP JUMPDEST PUSH1 0x0 DUP2 CALLDATALOAD SWAP1 POP PUSH2 0x111E DUP2 PUSH2 0x10F8 JUMP JUMPDEST SWAP3 SWAP2 POP POP JUMP JUMPDEST PUSH1 0x0 DUP1 REVERT JUMPDEST PUSH1 0x0 DUP1 REVERT JUMPDEST PUSH1 0x0 DUP1 REVERT JUMPDEST PUSH1 0x0 DUP1 DUP4 PUSH1 0x1F DUP5 ADD SLT PUSH2 0x1149 JUMPI PUSH2 0x1148 PUSH2 0x1124 JUMP JUMPDEST JUMPDEST DUP3 CALLDATALOAD SWAP1 POP PUSH8 0xFFFFFFFFFFFFFFFF DUP2 GT ISZERO PUSH2 0x1166 JUMPI PUSH2 0x1165 PUSH2 0x1129 JUMP JUMPDEST JUMPDEST PUSH1 0x20 DUP4 ADD SWAP2 POP DUP4 PUSH1 0x1 DUP3 MUL DUP4 ADD GT ISZERO PUSH2 0x1182 JUMPI PUSH2 0x1181 PUSH2 0x112E JUMP JUMPDEST JUMPDEST SWAP3 POP SWAP3 SWAP1 POP JUMP JUMPDEST PUSH1 0x0 DUP1 PUSH1 0x0 DUP1 PUSH1 0x60 DUP6 DUP8 SUB SLT ISZERO PUSH2 0x11A3 JUMPI PUSH2 0x11A2 PUSH2 0xE3C JUMP JUMPDEST JUMPDEST PUSH1 0x0 PUSH2 0x11B1 DUP8 DUP3 DUP9 ADD PUSH2 0x10D9 JUMP JUMPDEST SWAP5 POP POP PUSH1 0x20 PUSH2 0x11C2 DUP8 DUP3 DUP9 ADD PUSH2 0x110F JUMP JUMPDEST SWAP4 POP POP PUSH1 0x40 DUP6 ADD CALLDATALOAD PUSH8 0xFFFFFFFFFFFFFFFF DUP2 GT ISZERO PUSH2 0x11E3 JUMPI PUSH2 0x11E2 PUSH2 0xE41 JUMP JUMPDEST JUMPDEST PUSH2 0x11EF DUP8 DUP3 DUP9 ADD PUSH2 0x1133 JUMP JUMPDEST SWAP3 POP SWAP3 POP POP SWAP3 SWAP6 SWAP2 SWAP5 POP SWAP3 POP JUMP JUMPDEST PUSH1 0x0 PUSH1 0x20 DUP3 ADD SWAP1 POP PUSH2 0x1212 PUSH1 0x0 DUP4 ADD DUP5 PUSH2 0xF58 JUMP JUMPDEST SWAP3 SWAP2 POP POP JUMP JUMPDEST PUSH1 0x0 PUSH1 0x20 DUP3 ADD SWAP1 POP PUSH2 0x122D PUSH1 0x0 DUP4 ADD DUP5 PUSH2 0xF99 JUMP JUMPDEST SWAP3 SWAP2 POP POP JUMP JUMPDEST PUSH1 0x0 PUSH1 0x20 DUP3 DUP5 SUB SLT ISZERO PUSH2 0x1249 JUMPI PUSH2 0x1248 PUSH2 0xE3C JUMP JUMPDEST JUMPDEST PUSH1 0x0 PUSH2 0x1257 DUP5 DUP3 DUP6 ADD PUSH2 0x110F JUMP JUMPDEST SWAP2 POP POP SWAP3 SWAP2 POP POP JUMP JUMPDEST PUSH2 0x1269 DUP2 PUSH2 0xFFD JUMP JUMPDEST DUP2 EQ PUSH2 0x1274 JUMPI PUSH1 0x0 DUP1 REVERT JUMPDEST POP JUMP JUMPDEST PUSH1 0x0 DUP2 CALLDATALOAD SWAP1 POP PUSH2 0x1286 DUP2 PUSH2 0x1260 JUMP JUMPDEST SWAP3 SWAP2 POP POP JUMP JUMPDEST PUSH1 0x0 DUP1 PUSH1 0x40 DUP4 DUP6 SUB SLT ISZERO PUSH2 0x12A3 JUMPI PUSH2 0x12A2 PUSH2 0xE3C JUMP JUMPDEST JUMPDEST PUSH1 0x0 PUSH2 0x12B1 DUP6 DUP3 DUP7 ADD PUSH2 0xE67 JUMP JUMPDEST SWAP3 POP POP PUSH1 0x20 PUSH2 0x12C2 DUP6 DUP3 DUP7 ADD PUSH2 0x1277 JUMP JUMPDEST SWAP2 POP POP SWAP3 POP SWAP3 SWAP1 POP JUMP JUMPDEST PUSH2 0x12D5 DUP2 PUSH2 0x10EE JUMP JUMPDEST DUP3 MSTORE POP POP JUMP JUMPDEST PUSH1 0x0 PUSH1 0x20 DUP3 ADD SWAP1 POP PUSH2 0x12F0 PUSH1 0x0 DUP4 ADD DUP5 PUSH2 0x12CC JUMP JUMPDEST SWAP3 SWAP2 POP POP JUMP JUMPDEST PUSH1 0x0 DUP2 SWAP1 POP SWAP2 SWAP1 POP JUMP JUMPDEST PUSH1 0x0 PUSH2 0x131B PUSH2 0x1316 PUSH2 0x1311 DUP5 PUSH2 0xF67 JUMP JUMPDEST PUSH2 0x12F6 JUMP JUMPDEST PUSH2 0xF67 JUMP JUMPDEST SWAP1 POP SWAP2 SWAP1 POP JUMP JUMPDEST PUSH1 0x0 PUSH2 0x132D DUP3 PUSH2 0x1300 JUMP JUMPDEST SWAP1 POP SWAP2 SWAP1 POP JUMP JUMPDEST PUSH1 0x0 PUSH2 0x133F DUP3 PUSH2 0x1322 JUMP JUMPDEST SWAP1 POP SWAP2 SWAP1 POP JUMP JUMPDEST PUSH2 0x134F DUP2 PUSH2 0x1334 JUMP JUMPDEST DUP3 MSTORE POP POP JUMP JUMPDEST PUSH1 0x0 PUSH1 0x20 DUP3 ADD SWAP1 POP PUSH2 0x136A PUSH1 0x0 DUP4 ADD DUP5 PUSH2 0x1346 JUMP JUMPDEST SWAP3 SWAP2 POP POP JUMP JUMPDEST PUSH1 0x0 PUSH2 0x137B DUP3 PUSH2 0x1322 JUMP JUMPDEST SWAP1 POP SWAP2 SWAP1 POP JUMP JUMPDEST PUSH2 0x138B DUP2 PUSH2 0x1370 JUMP JUMPDEST DUP3 MSTORE POP POP JUMP JUMPDEST PUSH1 0x0 PUSH1 0x20 DUP3 ADD SWAP1 POP PUSH2 0x13A6 PUSH1 0x0 DUP4 ADD DUP5 PUSH2 0x1382 JUMP JUMPDEST SWAP3 SWAP2 POP POP JUMP JUMPDEST PUSH32 0x4E487B7100000000000000000000000000000000000000000000000000000000 PUSH1 0x0 MSTORE PUSH1 0x22 PUSH1 0x4 MSTORE PUSH1 0x24 PUSH1 0x0 REVERT JUMPDEST PUSH1 0x0 PUSH1 0x2 DUP3 DIV SWAP1 POP PUSH1 0x1 DUP3 AND DUP1 PUSH2 0x13F3 JUMPI PUSH1 0x7F DUP3 AND SWAP2 POP JUMPDEST PUSH1 0x20 DUP3 LT DUP2 SUB PUSH2 0x1406 JUMPI PUSH2 0x1405 PUSH2 0x13AC JUMP JUMPDEST JUMPDEST POP SWAP2 SWAP1 POP JUMP JUMPDEST PUSH32 0x4F6E6C79204D61696C626F782063616E2063616C6C20746869732066756E6374 PUSH1 0x0 DUP3 ADD MSTORE PUSH32 0x696F6E0000000000000000000000000000000000000000000000000000000000 PUSH1 0x20 DUP3 ADD MSTORE POP JUMP JUMPDEST PUSH1 0x0 PUSH2 0x1468 PUSH1 0x23 DUP4 PUSH2 0xEC3 JUMP JUMPDEST SWAP2 POP PUSH2 0x1473 DUP3 PUSH2 0x140C JUMP JUMPDEST PUSH1 0x40 DUP3 ADD SWAP1 POP SWAP2 SWAP1 POP JUMP JUMPDEST PUSH1 0x0 PUSH1 0x20 DUP3 ADD SWAP1 POP DUP2 DUP2 SUB PUSH1 0x0 DUP4 ADD MSTORE PUSH2 0x1497 DUP2 PUSH2 0x145B JUMP JUMPDEST SWAP1 POP SWAP2 SWAP1 POP JUMP JUMPDEST PUSH32 0x496E76616C69642073656E646572000000000000000000000000000000000000 PUSH1 0x0 DUP3 ADD MSTORE POP JUMP JUMPDEST PUSH1 0x0 PUSH2 0x14D4 PUSH1 0xE DUP4 PUSH2 0xEC3 JUMP JUMPDEST SWAP2 POP PUSH2 0x14DF DUP3 PUSH2 0x149E JUMP JUMPDEST PUSH1 0x20 DUP3 ADD SWAP1 POP SWAP2 SWAP1 POP JUMP JUMPDEST PUSH1 0x0 PUSH1 0x20 DUP3 ADD SWAP1 POP DUP2 DUP2 SUB PUSH1 0x0 DUP4 ADD MSTORE PUSH2 0x1503 DUP2 PUSH2 0x14C7 JUMP JUMPDEST SWAP1 POP SWAP2 SWAP1 POP JUMP JUMPDEST PUSH1 0x0 DUP1 REVERT JUMPDEST PUSH32 0x4E487B7100000000000000000000000000000000000000000000000000000000 PUSH1 0x0 MSTORE PUSH1 0x41 PUSH1 0x4 MSTORE PUSH1 0x24 PUSH1 0x0 REVERT JUMPDEST PUSH2 0x1547 DUP3 PUSH2 0xEFE JUMP JUMPDEST DUP2 ADD DUP2 DUP2 LT PUSH8 0xFFFFFFFFFFFFFFFF DUP3 GT OR ISZERO PUSH2 0x1566 JUMPI PUSH2 0x1565 PUSH2 0x150F JUMP JUMPDEST JUMPDEST DUP1 PUSH1 0x40 MSTORE POP POP POP JUMP JUMPDEST PUSH1 0x0 PUSH2 0x1579 PUSH2 0xE32 JUMP JUMPDEST SWAP1 POP PUSH2 0x1585 DUP3 DUP3 PUSH2 0x153E JUMP JUMPDEST SWAP2 SWAP1 POP JUMP JUMPDEST PUSH1 0x0 PUSH8 0xFFFFFFFFFFFFFFFF DUP3 GT ISZERO PUSH2 0x15A5 JUMPI PUSH2 0x15A4 PUSH2 0x150F JUMP JUMPDEST JUMPDEST PUSH2 0x15AE DUP3 PUSH2 0xEFE JUMP JUMPDEST SWAP1 POP PUSH1 0x20 DUP2 ADD SWAP1 POP SWAP2 SWAP1 POP JUMP JUMPDEST DUP3 DUP2 DUP4 CALLDATACOPY PUSH1 0x0 DUP4 DUP4 ADD MSTORE POP POP POP JUMP JUMPDEST PUSH1 0x0 PUSH2 0x15DD PUSH2 0x15D8 DUP5 PUSH2 0x158A JUMP JUMPDEST PUSH2 0x156F JUMP JUMPDEST SWAP1 POP DUP3 DUP2 MSTORE PUSH1 0x20 DUP2 ADD DUP5 DUP5 DUP5 ADD GT ISZERO PUSH2 0x15F9 JUMPI PUSH2 0x15F8 PUSH2 0x150A JUMP JUMPDEST JUMPDEST PUSH2 0x1604 DUP5 DUP3 DUP6 PUSH2 0x15BB JUMP JUMPDEST POP SWAP4 SWAP3 POP POP POP JUMP JUMPDEST PUSH1 0x0 DUP3 PUSH1 0x1F DUP4 ADD SLT PUSH2 0x1621 JUMPI PUSH2 0x1620 PUSH2 0x1124 JUMP JUMPDEST JUMPDEST DUP2 CALLDATALOAD PUSH2 0x1631 DUP5 DUP3 PUSH1 0x20 DUP7 ADD PUSH2 0x15CA JUMP JUMPDEST SWAP2 POP POP SWAP3 SWAP2 POP POP JUMP JUMPDEST PUSH1 0x0 DUP1 PUSH1 0x40 DUP4 DUP6 SUB SLT ISZERO PUSH2 0x1651 JUMPI PUSH2 0x1650 PUSH2 0xE3C JUMP JUMPDEST JUMPDEST PUSH1 0x0 PUSH2 0x165F DUP6 DUP3 DUP7 ADD PUSH2 0xE67 JUMP JUMPDEST SWAP3 POP POP PUSH1 0x20 DUP4 ADD CALLDATALOAD PUSH8 0xFFFFFFFFFFFFFFFF DUP2 GT ISZERO PUSH2 0x1680 JUMPI PUSH2 0x167F PUSH2 0xE41 JUMP JUMPDEST JUMPDEST PUSH2 0x168C DUP6 DUP3 DUP7 ADD PUSH2 0x160C JUMP JUMPDEST SWAP2 POP POP SWAP3 POP SWAP3 SWAP1 POP JUMP JUMPDEST PUSH32 0x496E76616C696420616374696F6E207479706500000000000000000000000000 PUSH1 0x0 DUP3 ADD MSTORE POP JUMP JUMPDEST PUSH1 0x0 PUSH2 0x16CC PUSH1 0x13 DUP4 PUSH2 0xEC3 JUMP JUMPDEST SWAP2 POP PUSH2 0x16D7 DUP3 PUSH2 0x1696 JUMP JUMPDEST PUSH1 0x20 DUP3 ADD SWAP1 POP SWAP2 SWAP1 POP JUMP JUMPDEST PUSH1 0x0 PUSH1 0x20 DUP3 ADD SWAP1 POP DUP2 DUP2 SUB PUSH1 0x0 DUP4 ADD MSTORE PUSH2 0x16FB DUP2 PUSH2 0x16BF JUMP JUMPDEST SWAP1 POP SWAP2 SWAP1 POP JUMP JUMPDEST PUSH32 0x4F6E6C79206F776E65722063616E2063616C6C20746869732066756E6374696F PUSH1 0x0 DUP3 ADD MSTORE PUSH32 0x6E00000000000000000000000000000000000000000000000000000000000000 PUSH1 0x20 DUP3 ADD MSTORE POP JUMP JUMPDEST PUSH1 0x0 PUSH2 0x175E PUSH1 0x21 DUP4 PUSH2 0xEC3 JUMP JUMPDEST SWAP2 POP PUSH2 0x1769 DUP3 PUSH2 0x1702 JUMP JUMPDEST PUSH1 0x40 DUP3 ADD SWAP1 POP SWAP2 SWAP1 POP JUMP JUMPDEST PUSH1 0x0 PUSH1 0x20 DUP3 ADD SWAP1 POP DUP2 DUP2 SUB PUSH1 0x0 DUP4 ADD MSTORE PUSH2 0x178D DUP2 PUSH2 0x1751 JUMP JUMPDEST SWAP1 POP SWAP2 SWAP1 POP JUMP JUMPDEST PUSH32 0x50726F706F73616C20646F6573206E6F74206578697374000000000000000000 PUSH1 0x0 DUP3 ADD MSTORE POP JUMP JUMPDEST PUSH1 0x0 PUSH2 0x17CA PUSH1 0x17 DUP4 PUSH2 0xEC3 JUMP JUMPDEST SWAP2 POP PUSH2 0x17D5 DUP3 PUSH2 0x1794 JUMP JUMPDEST PUSH1 0x20 DUP3 ADD SWAP1 POP SWAP2 SWAP1 POP JUMP JUMPDEST PUSH1 0x0 PUSH1 0x20 DUP3 ADD SWAP1 POP DUP2 DUP2 SUB PUSH1 0x0 DUP4 ADD MSTORE PUSH2 0x17F9 DUP2 PUSH2 0x17BD JUMP JUMPDEST SWAP1 POP SWAP2 SWAP1 POP JUMP JUMPDEST PUSH32 0x416C726561647920766F74656400000000000000000000000000000000000000 PUSH1 0x0 DUP3 ADD MSTORE POP JUMP JUMPDEST PUSH1 0x0 PUSH2 0x1836 PUSH1 0xD DUP4 PUSH2 0xEC3 JUMP JUMPDEST SWAP2 POP PUSH2 0x1841 DUP3 PUSH2 0x1800 JUMP JUMPDEST PUSH1 0x20 DUP3 ADD SWAP1 POP SWAP2 SWAP1 POP JUMP JUMPDEST PUSH1 0x0 PUSH1 0x20 DUP3 ADD SWAP1 POP DUP2 DUP2 SUB PUSH1 0x0 DUP4 ADD MSTORE PUSH2 0x1865 DUP2 PUSH2 0x1829 JUMP JUMPDEST SWAP1 POP SWAP2 SWAP1 POP JUMP JUMPDEST PUSH32 0x566F74696E6720706572696F6420656E64656400000000000000000000000000 PUSH1 0x0 DUP3 ADD MSTORE POP JUMP JUMPDEST PUSH1 0x0 PUSH2 0x18A2 PUSH1 0x13 DUP4 PUSH2 0xEC3 JUMP JUMPDEST SWAP2 POP PUSH2 0x18AD DUP3 PUSH2 0x186C JUMP JUMPDEST PUSH1 0x20 DUP3 ADD SWAP1 POP SWAP2 SWAP1 POP JUMP JUMPDEST PUSH1 0x0 PUSH1 0x20 DUP3 ADD SWAP1 POP DUP2 DUP2 SUB PUSH1 0x0 DUP4 ADD MSTORE PUSH2 0x18D1 DUP2 PUSH2 0x1895 JUMP JUMPDEST SWAP1 POP SWAP2 SWAP1 POP JUMP JUMPDEST PUSH1 0x0 DUP2 MLOAD SWAP1 POP PUSH2 0x18E7 DUP2 PUSH2 0xE50 JUMP JUMPDEST SWAP3 SWAP2 POP POP JUMP JUMPDEST PUSH1 0x0 PUSH1 0x20 DUP3 DUP5 SUB SLT ISZERO PUSH2 0x1903 JUMPI PUSH2 0x1902 PUSH2 0xE3C JUMP JUMPDEST JUMPDEST PUSH1 0x0 PUSH2 0x1911 DUP5 DUP3 DUP6 ADD PUSH2 0x18D8 JUMP JUMPDEST SWAP2 POP POP SWAP3 SWAP2 POP POP JUMP JUMPDEST PUSH32 0x4E6F20766F74696E6720706F7765720000000000000000000000000000000000 PUSH1 0x0 DUP3 ADD MSTORE POP JUMP JUMPDEST PUSH1 0x0 PUSH2 0x1950 PUSH1 0xF DUP4 PUSH2 0xEC3 JUMP JUMPDEST SWAP2 POP PUSH2 0x195B DUP3 PUSH2 0x191A JUMP JUMPDEST PUSH1 0x20 DUP3 ADD SWAP1 POP SWAP2 SWAP1 POP JUMP JUMPDEST PUSH1 0x0 PUSH1 0x20 DUP3 ADD SWAP1 POP DUP2 DUP2 SUB PUSH1 0x0 DUP4 ADD MSTORE PUSH2 0x197F DUP2 PUSH2 0x1943 JUMP JUMPDEST SWAP1 POP SWAP2 SWAP1 POP JUMP JUMPDEST PUSH32 0x4E487B7100000000000000000000000000000000000000000000000000000000 PUSH1 0x0 MSTORE PUSH1 0x11 PUSH1 0x4 MSTORE PUSH1 0x24 PUSH1 0x0 REVERT JUMPDEST PUSH1 0x0 PUSH2 0x19C0 DUP3 PUSH2 0xE46 JUMP JUMPDEST SWAP2 POP PUSH2 0x19CB DUP4 PUSH2 0xE46 JUMP JUMPDEST SWAP3 POP DUP3 DUP3 ADD SWAP1 POP DUP1 DUP3 GT ISZERO PUSH2 0x19E3 JUMPI PUSH2 0x19E2 PUSH2 0x1986 JUMP JUMPDEST JUMPDEST SWAP3 SWAP2 POP POP JUMP JUMPDEST PUSH1 0x0 PUSH1 0x80 DUP3 ADD SWAP1 POP PUSH2 0x19FE PUSH1 0x0 DUP4 ADD DUP8 PUSH2 0xEA9 JUMP JUMPDEST PUSH2 0x1A0B PUSH1 0x20 DUP4 ADD DUP7 PUSH2 0xF99 JUMP JUMPDEST PUSH2 0x1A18 PUSH1 0x40 DUP4 ADD DUP6 PUSH2 0x1009 JUMP JUMPDEST PUSH2 0x1A25 PUSH1 0x60 DUP4 ADD DUP5 PUSH2 0xEA9 JUMP JUMPDEST SWAP6 SWAP5 POP POP POP POP POP JUMP JUMPDEST PUSH1 0x0 PUSH8 0xFFFFFFFFFFFFFFFF DUP3 GT ISZERO PUSH2 0x1A49 JUMPI PUSH2 0x1A48 PUSH2 0x150F JUMP JUMPDEST JUMPDEST PUSH2 0x1A52 DUP3 PUSH2 0xEFE JUMP JUMPDEST SWAP1 POP PUSH1 0x20 DUP2 ADD SWAP1 POP SWAP2 SWAP1 POP JUMP JUMPDEST PUSH1 0x0 PUSH2 0x1A72 PUSH2 0x1A6D DUP5 PUSH2 0x1A2E JUMP JUMPDEST PUSH2 0x156F JUMP JUMPDEST SWAP1 POP DUP3 DUP2 MSTORE PUSH1 0x20 DUP2 ADD DUP5 DUP5 DUP5 ADD GT ISZERO PUSH2 0x1A8E JUMPI PUSH2 0x1A8D PUSH2 0x150A JUMP JUMPDEST JUMPDEST PUSH2 0x1A99 DUP5 DUP3 DUP6 PUSH2 0x15BB JUMP JUMPDEST POP SWAP4 SWAP3 POP POP POP JUMP JUMPDEST PUSH1 0x0 DUP3 PUSH1 0x1F DUP4 ADD SLT PUSH2 0x1AB6 JUMPI PUSH2 0x1AB5 PUSH2 0x1124 JUMP JUMPDEST JUMPDEST DUP2 CALLDATALOAD PUSH2 0x1AC6 DUP5 DUP3 PUSH1 0x20 DUP7 ADD PUSH2 0x1A5F JUMP JUMPDEST SWAP2 POP POP SWAP3 SWAP2 POP POP JUMP JUMPDEST PUSH1 0x0 PUSH2 0x1ADA DUP3 PUSH2 0xF67 JUMP JUMPDEST SWAP1 POP SWAP2 SWAP1 POP JUMP JUMPDEST PUSH2 0x1AEA DUP2 PUSH2 0x1ACF JUMP JUMPDEST DUP2 EQ PUSH2 0x1AF5 JUMPI PUSH1 0x0 DUP1 REVERT JUMPDEST POP JUMP JUMPDEST PUSH1 0x0 DUP2 CALLDATALOAD SWAP1 POP PUSH2 0x1B07 DUP2 PUSH2 0x1AE1 JUMP JUMPDEST SWAP3 SWAP2 POP POP JUMP JUMPDEST PUSH1 0x0 DUP1 PUSH1 0x0 DUP1 PUSH1 0x0 DUP1 PUSH1 0xC0 DUP8 DUP10 SUB SLT ISZERO PUSH2 0x1B2A JUMPI PUSH2 0x1B29 PUSH2 0xE3C JUMP JUMPDEST JUMPDEST PUSH1 0x0 PUSH2 0x1B38 DUP10 DUP3 DUP11 ADD PUSH2 0xE67 JUMP JUMPDEST SWAP7 POP POP PUSH1 0x20 PUSH2 0x1B49 DUP10 DUP3 DUP11 ADD PUSH2 0xE67 JUMP JUMPDEST SWAP6 POP POP PUSH1 0x40 DUP8 ADD CALLDATALOAD PUSH8 0xFFFFFFFFFFFFFFFF DUP2 GT ISZERO PUSH2 0x1B6A JUMPI PUSH2 0x1B69 PUSH2 0xE41 JUMP JUMPDEST JUMPDEST PUSH2 0x1B76 DUP10 DUP3 DUP11 ADD PUSH2 0x1AA1 JUMP JUMPDEST SWAP5 POP POP PUSH1 0x60 PUSH2 0x1B87 DUP10 DUP3 DUP11 ADD PUSH2 0x10D9 JUMP JUMPDEST SWAP4 POP POP PUSH1 0x80 PUSH2 0x1B98 DUP10 DUP3 DUP11 ADD PUSH2 0x1AF8 JUMP JUMPDEST SWAP3 POP POP PUSH1 0xA0 DUP8 ADD CALLDATALOAD PUSH8 0xFFFFFFFFFFFFFFFF DUP2 GT ISZERO PUSH2 0x1BB9 JUMPI PUSH2 0x1BB8 PUSH2 0xE41 JUMP JUMPDEST JUMPDEST PUSH2 0x1BC5 DUP10 DUP3 DUP11 ADD PUSH2 0x160C JUMP JUMPDEST SWAP2 POP POP SWAP3 SWAP6 POP SWAP3 SWAP6 POP SWAP3 SWAP6 JUMP JUMPDEST PUSH32 0x50726F706F73616C20616C726561647920657869737473000000000000000000 PUSH1 0x0 DUP3 ADD MSTORE POP JUMP JUMPDEST PUSH1 0x0 PUSH2 0x1C08 PUSH1 0x17 DUP4 PUSH2 0xEC3 JUMP JUMPDEST SWAP2 POP PUSH2 0x1C13 DUP3 PUSH2 0x1BD2 JUMP JUMPDEST PUSH1 0x20 DUP3 ADD SWAP1 POP SWAP2 SWAP1 POP JUMP JUMPDEST PUSH1 0x0 PUSH1 0x20 DUP3 ADD SWAP1 POP DUP2 DUP2 SUB PUSH1 0x0 DUP4 ADD MSTORE PUSH2 0x1C37 DUP2 PUSH2 0x1BFB JUMP JUMPDEST SWAP1 POP SWAP2 SWAP1 POP JUMP JUMPDEST PUSH1 0x0 DUP2 SWAP1 POP DUP2 PUSH1 0x0 MSTORE PUSH1 0x20 PUSH1 0x0 KECCAK256 SWAP1 POP SWAP2 SWAP1 POP JUMP JUMPDEST PUSH1 0x0 PUSH1 0x20 PUSH1 0x1F DUP4 ADD DIV SWAP1 POP SWAP2 SWAP1 POP JUMP JUMPDEST PUSH1 0x0 DUP3 DUP3 SHL SWAP1 POP SWAP3 SWAP2 POP POP JUMP JUMPDEST PUSH1 0x0 PUSH1 0x8 DUP4 MUL PUSH2 0x1CA0 PUSH32 0xFFFFFFFFFFFFFFFFFFFFFFFFFFFFFFFFFFFFFFFFFFFFFFFFFFFFFFFFFFFFFFFF DUP3 PUSH2 0x1C63 JUMP JUMPDEST PUSH2 0x1CAA DUP7 DUP4 PUSH2 0x1C63 JUMP JUMPDEST SWAP6 POP DUP1 NOT DUP5 AND SWAP4 POP DUP1 DUP7 AND DUP5 OR SWAP3 POP POP POP SWAP4 SWAP3 POP POP POP JUMP JUMPDEST PUSH1 0x0 PUSH2 0x1CDD PUSH2 0x1CD8 PUSH2 0x1CD3 DUP5 PUSH2 0xE46 JUMP JUMPDEST PUSH2 0x12F6 JUMP JUMPDEST PUSH2 0xE46 JUMP JUMPDEST SWAP1 POP SWAP2 SWAP1 POP JUMP JUMPDEST PUSH1 0x0 DUP2 SWAP1 POP SWAP2 SWAP1 POP JUMP JUMPDEST PUSH2 0x1CF7 DUP4 PUSH2 0x1CC2 JUMP JUMPDEST PUSH2 0x1D0B PUSH2 0x1D03 DUP3 PUSH2 0x1CE4 JUMP JUMPDEST DUP5 DUP5 SLOAD PUSH2 0x1C70 JUMP JUMPDEST DUP3 SSTORE POP POP POP POP JUMP JUMPDEST PUSH1 0x0 SWAP1 JUMP JUMPDEST PUSH2 0x1D20 PUSH2 0x1D13 JUMP JUMPDEST PUSH2 0x1D2B DUP2 DUP5 DUP5 PUSH2 0x1CEE JUMP JUMPDEST POP POP POP JUMP JUMPDEST JUMPDEST DUP2 DUP2 LT ISZERO PUSH2 0x1D4F JUMPI PUSH2 0x1D44 PUSH1 0x0 DUP3 PUSH2 0x1D18 JUMP JUMPDEST PUSH1 0x1 DUP2 ADD SWAP1 POP PUSH2 0x1D31 JUMP JUMPDEST POP POP JUMP JUMPDEST PUSH1 0x1F DUP3 GT ISZERO PUSH2 0x1D94 JUMPI PUSH2 0x1D65 DUP2 PUSH2 0x1C3E JUMP JUMPDEST PUSH2 0x1D6E DUP5 PUSH2 0x1C53 JUMP JUMPDEST DUP2 ADD PUSH1 0x20 DUP6 LT ISZERO PUSH2 0x1D7D JUMPI DUP2 SWAP1 POP JUMPDEST PUSH2 0x1D91 PUSH2 0x1D89 DUP6 PUSH2 0x1C53 JUMP JUMPDEST DUP4 ADD DUP3 PUSH2 0x1D30 JUMP JUMPDEST POP POP JUMPDEST POP POP POP JUMP JUMPDEST PUSH1 0x0 DUP3 DUP3 SHR SWAP1 POP SWAP3 SWAP2 POP POP JUMP JUMPDEST PUSH1 0x0 PUSH2 0x1DB7 PUSH1 0x0 NOT DUP5 PUSH1 0x8 MUL PUSH2 0x1D99 JUMP JUMPDEST NOT DUP1 DUP4 AND SWAP2 POP POP SWAP3 SWAP2 POP POP JUMP JUMPDEST PUSH1 0x0 PUSH2 0x1DD0 DUP4 DUP4 PUSH2 0x1DA6 JUMP JUMPDEST SWAP2 POP DUP3 PUSH1 0x2 MUL DUP3 OR SWAP1 POP SWAP3 SWAP2 POP POP JUMP JUMPDEST PUSH2 0x1DE9 DUP3 PUSH2 0xEB8 JUMP JUMPDEST PUSH8 0xFFFFFFFFFFFFFFFF DUP2 GT ISZERO PUSH2 0x1E02 JUMPI PUSH2 0x1E01 PUSH2 0x150F JUMP JUMPDEST JUMPDEST PUSH2 0x1E0C DUP3 SLOAD PUSH2 0x13DB JUMP JUMPDEST PUSH2 0x1E17 DUP3 DUP3 DUP6 PUSH2 0x1D53 JUMP JUMPDEST PUSH1 0x0 PUSH1 0x20 SWAP1 POP PUSH1 0x1F DUP4 GT PUSH1 0x1 DUP2 EQ PUSH2 0x1E4A JUMPI PUSH1 0x0 DUP5 ISZERO PUSH2 0x1E38 JUMPI DUP3 DUP8 ADD MLOAD SWAP1 POP JUMPDEST PUSH2 0x1E42 DUP6 DUP3 PUSH2 0x1DC4 JUMP JUMPDEST DUP7 SSTORE POP PUSH2 0x1EAA JUMP JUMPDEST PUSH1 0x1F NOT DUP5 AND PUSH2 0x1E58 DUP7 PUSH2 0x1C3E JUMP JUMPDEST PUSH1 0x0 JUMPDEST DUP3 DUP2 LT ISZERO PUSH2 0x1E80 JUMPI DUP5 DUP10 ADD MLOAD DUP3 SSTORE PUSH1 0x1 DUP3 ADD SWAP2 POP PUSH1 0x20 DUP6 ADD SWAP5 POP PUSH1 0x20 DUP2 ADD SWAP1 POP PUSH2 0x1E5B JUMP JUMPDEST DUP7 DUP4 LT ISZERO PUSH2 0x1E9D JUMPI DUP5 DUP10 ADD MLOAD PUSH2 0x1E99 PUSH1 0x1F DUP10 AND DUP3 PUSH2 0x1DA6 JUMP JUMPDEST DUP4 SSTORE POP JUMPDEST PUSH1 0x1 PUSH1 0x2 DUP9 MUL ADD DUP9 SSTORE POP POP POP JUMPDEST POP POP POP POP POP POP JUMP JUMPDEST PUSH1 0x0 DUP2 SWAP1 POP DUP2 PUSH1 0x0 MSTORE PUSH1 0x20 PUSH1 0x0 KECCAK256 SWAP1 POP SWAP2 SWAP1 POP JUMP JUMPDEST PUSH1 0x1F DUP3 GT ISZERO PUSH2 0x1F08 JUMPI PUSH2 0x1ED9 DUP2 PUSH2 0x1EB2 JUMP JUMPDEST PUSH2 0x1EE2 DUP5 PUSH2 0x1C53 JUMP JUMPDEST DUP2 ADD PUSH1 0x20 DUP6 LT ISZERO PUSH2 0x1EF1 JUMPI DUP2 SWAP1 POP JUMPDEST PUSH2 0x1F05 PUSH2 0x1EFD DUP6 PUSH2 0x1C53 JUMP JUMPDEST DUP4 ADD DUP3 PUSH2 0x1D30 JUMP JUMPDEST POP POP JUMPDEST POP POP POP JUMP JUMPDEST PUSH2 0x1F16 DUP3 PUSH2 0xFA8 JUMP JUMPDEST PUSH8 0xFFFFFFFFFFFFFFFF DUP2 GT ISZERO PUSH2 0x1F2F JUMPI PUSH2 0x1F2E PUSH2 0x150F JUMP JUMPDEST JUMPDEST PUSH2 0x1F39 DUP3 SLOAD PUSH2 0x13DB JUMP JUMPDEST PUSH2 0x1F44 DUP3 DUP3 DUP6 PUSH2 0x1EC7 JUMP JUMPDEST PUSH1 0x0 PUSH1 0x20 SWAP1 POP PUSH1 0x1F DUP4 GT PUSH1 0x1 DUP2 EQ PUSH2 0x1F77 JUMPI PUSH1 0x0 DUP5 ISZERO PUSH2 0x1F65 JUMPI DUP3 DUP8 ADD MLOAD SWAP1 POP JUMPDEST PUSH2 0x1F6F DUP6 DUP3 PUSH2 0x1DC4 JUMP JUMPDEST DUP7 SSTORE POP PUSH2 0x1FD7 JUMP JUMPDEST PUSH1 0x1F NOT DUP5 AND PUSH2 0x1F85 DUP7 PUSH2 0x1EB2 JUMP JUMPDEST PUSH1 0x0 JUMPDEST DUP3 DUP2 LT ISZERO PUSH2 0x1FAD JUMPI DUP5 DUP10 ADD MLOAD DUP3 SSTORE PUSH1 0x1 DUP3 ADD SWAP2 POP PUSH1 0x20 DUP6 ADD SWAP5 POP PUSH1 0x20 DUP2 ADD SWAP1 POP PUSH2 0x1F88 JUMP JUMPDEST DUP7 DUP4 LT ISZERO PUSH2 0x1FCA JUMPI DUP5 DUP10 ADD MLOAD PUSH2 0x1FC6 PUSH1 0x1F DUP10 AND DUP3 PUSH2 0x1DA6 JUMP JUMPDEST DUP4 SSTORE POP JUMPDEST PUSH1 0x1 PUSH1 0x2 DUP9 MUL ADD DUP9 SSTORE POP POP POP JUMPDEST POP POP POP POP POP POP JUMP JUMPDEST PUSH1 0x0 PUSH1 0x60 DUP3 ADD SWAP1 POP PUSH2 0x1FF4 PUSH1 0x0 DUP4 ADD DUP7 PUSH2 0xEA9 JUMP JUMPDEST DUP2 DUP2 SUB PUSH1 0x20 DUP4 ADD MSTORE PUSH2 0x2006 DUP2 DUP6 PUSH2 0xF0F JUMP JUMPDEST SWAP1 POP PUSH2 0x2015 PUSH1 0x40 DUP4 ADD DUP5 PUSH2 0xF58 JUMP JUMPDEST SWAP5 SWAP4 POP POP POP POP JUMP JUMPDEST PUSH1 0x0 DUP1 PUSH1 0x40 DUP4 DUP6 SUB SLT ISZERO PUSH2 0x2034 JUMPI PUSH2 0x2033 PUSH2 0xE3C JUMP JUMPDEST JUMPDEST PUSH1 0x0 PUSH2 0x2042 DUP6 DUP3 DUP7 ADD PUSH2 0xE67 JUMP JUMPDEST SWAP3 POP POP PUSH1 0x20 PUSH2 0x2053 DUP6 DUP3 DUP7 ADD PUSH2 0xE67 JUMP JUMPDEST SWAP2 POP POP SWAP3 POP SWAP3 SWAP1 POP JUMP JUMPDEST PUSH32 0x566F74696E6720706572696F64206E6F7420656E646564000000000000000000 PUSH1 0x0 DUP3 ADD MSTORE POP JUMP JUMPDEST PUSH1 0x0 PUSH2 0x2093 PUSH1 0x17 DUP4 PUSH2 0xEC3 JUMP JUMPDEST SWAP2 POP PUSH2 0x209E DUP3 PUSH2 0x205D JUMP JUMPDEST PUSH1 0x20 DUP3 ADD SWAP1 POP SWAP2 SWAP1 POP JUMP JUMPDEST PUSH1 0x0 PUSH1 0x20 DUP3 ADD SWAP1 POP DUP2 DUP2 SUB PUSH1 0x0 DUP4 ADD MSTORE PUSH2 0x20C2 DUP2 PUSH2 0x2086 JUMP JUMPDEST SWAP1 POP SWAP2 SWAP1 POP JUMP JUMPDEST PUSH1 0x0 DUP2 SWAP1 POP SWAP2 SWAP1 POP JUMP JUMPDEST PUSH1 0x0 PUSH1 0xFF DUP3 AND SWAP1 POP SWAP2 SWAP1 POP JUMP JUMPDEST PUSH1 0x0 PUSH2 0x20FB PUSH2 0x20F6 PUSH2 0x20F1 DUP5 PUSH2 0x20C9 JUMP JUMPDEST PUSH2 0x12F6 JUMP JUMPDEST PUSH2 0x20D3 JUMP JUMPDEST SWAP1 POP SWAP2 SWAP1 POP JUMP JUMPDEST PUSH2 0x210B DUP2 PUSH2 0x20E0 JUMP JUMPDEST DUP3 MSTORE POP POP JUMP JUMPDEST PUSH1 0x0 PUSH1 0x80 DUP3 ADD SWAP1 POP PUSH2 0x2126 PUSH1 0x0 DUP4 ADD DUP8 PUSH2 0x2102 JUMP JUMPDEST PUSH2 0x2133 PUSH1 0x20 DUP4 ADD DUP7 PUSH2 0xEA9 JUMP JUMPDEST PUSH2 0x2140 PUSH1 0x40 DUP4 ADD DUP6 PUSH2 0xEA9 JUMP JUMPDEST PUSH2 0x214D PUSH1 0x60 DUP4 ADD DUP5 PUSH2 0xEA9 JUMP JUMPDEST SWAP6 SWAP5 POP POP POP POP POP JUMP JUMPDEST PUSH1 0x0 PUSH1 0x60 DUP3 ADD SWAP1 POP PUSH2 0x216B PUSH1 0x0 DUP4 ADD DUP7 PUSH2 0xF58 JUMP JUMPDEST PUSH2 0x2178 PUSH1 0x20 DUP4 ADD DUP6 PUSH2 0x12CC JUMP JUMPDEST DUP2 DUP2 SUB PUSH1 0x40 DUP4 ADD MSTORE PUSH2 0x218A DUP2 DUP5 PUSH2 0xFC4 JUMP JUMPDEST SWAP1 POP SWAP5 SWAP4 POP POP POP POP JUMP JUMPDEST PUSH1 0x0 DUP2 MLOAD SWAP1 POP PUSH2 0x21A3 DUP2 PUSH2 0x10F8 JUMP JUMPDEST SWAP3 SWAP2 POP POP JUMP JUMPDEST PUSH1 0x0 PUSH1 0x20 DUP3 DUP5 SUB SLT ISZERO PUSH2 0x21BF JUMPI PUSH2 0x21BE PUSH2 0xE3C JUMP JUMPDEST JUMPDEST PUSH1 0x0 PUSH2 0x21CD DUP5 DUP3 DUP6 ADD PUSH2 0x2194 JUMP JUMPDEST SWAP2 POP POP SWAP3 SWAP2 POP POP JUMP JUMPDEST PUSH1 0x0 PUSH1 0x60 DUP3 ADD SWAP1 POP PUSH2 0x21EB PUSH1 0x0 DUP4 ADD DUP7 PUSH2 0xEA9 JUMP JUMPDEST PUSH2 0x21F8 PUSH1 0x20 DUP4 ADD DUP6 PUSH2 0xEA9 JUMP JUMPDEST PUSH2 0x2205 PUSH1 0x40 DUP4 ADD DUP5 PUSH2 0xEA9 JUMP JUMPDEST SWAP5 SWAP4 POP POP POP POP JUMP JUMPDEST PUSH1 0x0 DUP1 PUSH1 0x0 DUP1 PUSH1 0x80 DUP6 DUP8 SUB SLT ISZERO PUSH2 0x2227 JUMPI PUSH2 0x2226 PUSH2 0xE3C JUMP JUMPDEST JUMPDEST PUSH1 0x0 PUSH2 0x2235 DUP8 DUP3 DUP9 ADD PUSH2 0xE67 JUMP JUMPDEST SWAP5 POP POP PUSH1 0x20 PUSH2 0x2246 DUP8 DUP3 DUP9 ADD PUSH2 0xE67 JUMP JUMPDEST SWAP4 POP POP PUSH1 0x40 PUSH2 0x2257 DUP8 DUP3 DUP9 ADD PUSH2 0x1AF8 JUMP JUMPDEST SWAP3 POP POP PUSH1 0x60 DUP6 ADD CALLDATALOAD PUSH8 0xFFFFFFFFFFFFFFFF DUP2 GT ISZERO PUSH2 0x2278 JUMPI PUSH2 0x2277 PUSH2 0xE41 JUMP JUMPDEST JUMPDEST PUSH2 0x2284 DUP8 DUP3 DUP9 ADD PUSH2 0x160C JUMP JUMPDEST SWAP2 POP POP SWAP3 SWAP6 SWAP2 SWAP5 POP SWAP3 POP JUMP JUMPDEST PUSH32 0x50726F706F73616C20616C726561647920657865637574656400000000000000 PUSH1 0x0 DUP3 ADD MSTORE POP JUMP JUMPDEST PUSH1 0x0 PUSH2 0x22C6 PUSH1 0x19 DUP4 PUSH2 0xEC3 JUMP JUMPDEST SWAP2 POP PUSH2 0x22D1 DUP3 PUSH2 0x2290 JUMP JUMPDEST PUSH1 0x20 DUP3 ADD SWAP1 POP SWAP2 SWAP1 POP JUMP JUMPDEST PUSH1 0x0 PUSH1 0x20 DUP3 ADD SWAP1 POP DUP2 DUP2 SUB PUSH1 0x0 DUP4 ADD MSTORE PUSH2 0x22F5 DUP2 PUSH2 0x22B9 JUMP JUMPDEST SWAP1 POP SWAP2 SWAP1 POP JUMP JUMPDEST PUSH1 0x0 DUP2 SWAP1 POP SWAP3 SWAP2 POP POP JUMP JUMPDEST PUSH1 0x0 PUSH2 0x2312 DUP3 PUSH2 0xFA8 JUMP JUMPDEST PUSH2 0x231C DUP2 DUP6 PUSH2 0x22FC JUMP JUMPDEST SWAP4 POP PUSH2 0x232C DUP2 DUP6 PUSH1 0x20 DUP7 ADD PUSH2 0xED4 JUMP JUMPDEST DUP1 DUP5 ADD SWAP2 POP POP SWAP3 SWAP2 POP POP JUMP JUMPDEST PUSH1 0x0 PUSH2 0x2344 DUP3 DUP5 PUSH2 0x2307 JUMP JUMPDEST SWAP2 POP DUP2 SWAP1 POP SWAP3 SWAP2 POP POP JUMP JUMPDEST PUSH32 0x50726F706F73616C20657865637574696F6E206661696C656400000000000000 PUSH1 0x0 DUP3 ADD MSTORE POP JUMP JUMPDEST PUSH1 0x0 PUSH2 0x2385 PUSH1 0x19 DUP4 PUSH2 0xEC3 JUMP JUMPDEST SWAP2 POP PUSH2 0x2390 DUP3 PUSH2 0x234F JUMP JUMPDEST PUSH1 0x20 DUP3 ADD SWAP1 POP SWAP2 SWAP1 POP JUMP JUMPDEST PUSH1 0x0 PUSH1 0x20 DUP3 ADD SWAP1 POP DUP2 DUP2 SUB PUSH1 0x0 DUP4 ADD MSTORE PUSH2 0x23B4 DUP2 PUSH2 0x2378 JUMP JUMPDEST SWAP1 POP SWAP2 SWAP1 POP JUMP JUMPDEST PUSH1 0x0 PUSH1 0x20 DUP3 ADD SWAP1 POP PUSH2 0x23D0 PUSH1 0x0 DUP4 ADD DUP5 PUSH2 0xEA9 JUMP JUMPDEST SWAP3 SWAP2 POP POP JUMP INVALID LOG2 PUSH5 0x6970667358 0x22 SLT KECCAK256 0xB6 0xD1 CREATE2 PUSH14 0x4864EBA41C01CF43D6FBD45FE566 LT PUSH22 0x718CADD8D90896C67C34343F64736F6C634300081400 CALLER "},"methodIdentifiers":{"governanceToken()":"f96dae0a","handle(uint32,bytes32,bytes)":"56d5d475","homeCoreAddress()":"d1437b8d","homeDomain()":"81786725","mailbox()":"d5438eae","owner()":"8da5cb5b","proposals(uint256)":"013cf08b","setHomeCoreAddress(bytes32)":"9d21af38","vote(uint256,bool)":"c9d27afe"}}}}}