{
  "_format": "hh-sol-artifact-1",
  "contractName": "GovernanceCore",
  "sourceName": "contracts/GovernanceCore.sol",
  "abi": [
    {
      "inputs": [
        {
          "internalType": "address",
          "name": "_governanceToken",
          "type": "address"
        },
        {
          "internalType": "address",
          "name": "_mailbox",
          "type": "address"
        },
        {
          "internalType": "address",
          "name": "_igp",
          "type": "address"
        },
        {
          "internalType": "uint32",
          "name": "chainId",
          "type": "uint32"
        }
      ],
      "stateMutability": "nonpayable",
      "type": "constructor"
    },
    {
      "inputs": [
        {
          "internalType": "address",
          "name": "owner",
          "type": "address"
        }
      ],
      "name": "OwnableInvalidOwner",
      "type": "error"
    },
    {
      "inputs": [
        {
          "internalType": "address",
          "name": "account",
          "type": "address"
        }
      ],
      "name": "OwnableUnauthorizedAccount",
      "type": "error"
    },
    {
      "anonymous": false,
      "inputs": [
        {
          "indexed": true,
          "internalType": "uint256",
          "name": "proposalId",
          "type": "uint256"
        },
        {
          "indexed": false,
          "internalType": "uint32",
          "name": "destinationDomain",
          "type": "uint32"
        }
      ],
      "name": "CrossChainProposalCreated",
      "type": "event"
    },
    {
      "anonymous": false,
      "inputs": [
        {
          "indexed": false,
          "internalType": "uint32",
          "name": "chainId",
          "type": "uint32"
        },
        {
          "indexed": false,
          "internalType": "uint256",
          "name": "proposalId",
          "type": "uint256"
        },
        {
          "indexed": false,
          "internalType": "string",
          "name": "reason",
          "type": "string"
        }
      ],
      "name": "DispatchFailed",
      "type": "event"
    },
    {
      "anonymous": false,
      "inputs": [
        {
          "indexed": true,
          "internalType": "address",
          "name": "previousOwner",
          "type": "address"
        },
        {
          "indexed": true,
          "internalType": "address",
          "name": "newOwner",
          "type": "address"
        }
      ],
      "name": "OwnershipTransferred",
      "type": "event"
    },
    {
      "anonymous": false,
      "inputs": [
        {
          "indexed": true,
          "internalType": "uint256",
          "name": "proposalId",
          "type": "uint256"
        },
        {
          "indexed": false,
          "internalType": "address",
          "name": "proposer",
          "type": "address"
        },
        {
          "indexed": false,
          "internalType": "string",
          "name": "description",
          "type": "string"
        },
        {
          "indexed": false,
          "internalType": "uint32",
          "name": "executionChain",
          "type": "uint32"
        }
      ],
      "name": "ProposalCreated",
      "type": "event"
    },
    {
      "anonymous": false,
      "inputs": [
        {
          "indexed": true,
          "internalType": "uint256",
          "name": "proposalId",
          "type": "uint256"
        }
      ],
      "name": "ProposalExecuted",
      "type": "event"
    },
    {
      "anonymous": false,
      "inputs": [
        {
          "indexed": false,
          "internalType": "uint32",
          "name": "chainId",
          "type": "uint32"
        },
        {
          "indexed": false,
          "internalType": "bytes32",
          "name": "proxyAddress",
          "type": "bytes32"
        }
      ],
      "name": "SupportedChainAdded",
      "type": "event"
    },
    {
      "anonymous": false,
      "inputs": [
        {
          "indexed": true,
          "internalType": "uint256",
          "name": "proposalId",
          "type": "uint256"
        },
        {
          "indexed": false,
          "internalType": "address",
          "name": "voter",
          "type": "address"
        },
        {
          "indexed": false,
          "internalType": "bool",
          "name": "support",
          "type": "bool"
        },
        {
          "indexed": false,
          "internalType": "uint256",
          "name": "weight",
          "type": "uint256"
        }
      ],
      "name": "Voted",
      "type": "event"
    },
    {
      "anonymous": false,
      "inputs": [
        {
          "indexed": true,
          "internalType": "uint256",
          "name": "proposalId",
          "type": "uint256"
        },
        {
          "indexed": false,
          "internalType": "uint32",
          "name": "chainId",
          "type": "uint32"
        },
        {
          "indexed": false,
          "internalType": "uint256",
          "name": "forVotes",
          "type": "uint256"
        },
        {
          "indexed": false,
          "internalType": "uint256",
          "name": "againstVotes",
          "type": "uint256"
        }
      ],
      "name": "VotesCollected",
      "type": "event"
    },
    {
      "inputs": [
        {
          "internalType": "uint32",
          "name": "destinationDomain",
          "type": "uint32"
        },
        {
          "internalType": "uint256",
          "name": "proposalId",
          "type": "uint256"
        },
        {
          "internalType": "string",
          "name": "description",
          "type": "string"
        },
        {
          "internalType": "uint32",
          "name": "executionChain",
          "type": "uint32"
        },
        {
          "internalType": "address",
          "name": "target",
          "type": "address"
        },
        {
          "internalType": "bytes",
          "name": "callData",
          "type": "bytes"
        }
      ],
      "name": "_dispatchProposal",
      "outputs": [
        {
          "internalType": "uint256",
          "name": "",
          "type": "uint256"
        }
      ],
      "stateMutability": "payable",
      "type": "function"
    },
    {
      "inputs": [
        {
          "internalType": "uint32",
          "name": "chainId",
          "type": "uint32"
        },
        {
          "internalType": "bytes32",
          "name": "proxyAddress",
          "type": "bytes32"
        }
      ],
      "name": "addSupportedChain",
      "outputs": [],
      "stateMutability": "nonpayable",
      "type": "function"
    },
    {
      "inputs": [
        {
          "internalType": "uint32",
          "name": "",
          "type": "uint32"
        }
      ],
      "name": "chainToProxyAddress",
      "outputs": [
        {
          "internalType": "bytes32",
          "name": "",
          "type": "bytes32"
        }
      ],
      "stateMutability": "view",
      "type": "function"
    },
    {
      "inputs": [
        {
          "internalType": "uint256",
          "name": "proposalId",
          "type": "uint256"
        }
      ],
      "name": "collectVotes",
      "outputs": [],
      "stateMutability": "payable",
      "type": "function"
    },
    {
      "inputs": [
        {
          "internalType": "string",
          "name": "description",
          "type": "string"
        },
        {
          "internalType": "uint32",
          "name": "executionChain",
          "type": "uint32"
        },
        {
          "internalType": "address",
          "name": "target",
          "type": "address"
        },
        {
          "internalType": "bytes",
          "name": "callData",
          "type": "bytes"
        }
      ],
      "name": "createProposal",
      "outputs": [],
      "stateMutability": "payable",
      "type": "function"
    },
    {
      "inputs": [],
      "name": "currentChainID",
      "outputs": [
        {
          "internalType": "uint32",
          "name": "",
          "type": "uint32"
        }
      ],
      "stateMutability": "view",
      "type": "function"
    },
    {
      "inputs": [],
      "name": "getActiveProposals",
      "outputs": [
        {
          "components": [
            {
              "internalType": "uint256",
              "name": "id",
              "type": "uint256"
            },
            {
              "internalType": "address",
              "name": "proposer",
              "type": "address"
            },
            {
              "internalType": "string",
              "name": "description",
              "type": "string"
            },
            {
              "internalType": "uint256",
              "name": "forVotes",
              "type": "uint256"
            },
            {
              "internalType": "uint256",
              "name": "againstVotes",
              "type": "uint256"
            },
            {
              "internalType": "uint256",
              "name": "startTime",
              "type": "uint256"
            },
            {
              "internalType": "bool",
              "name": "executed",
              "type": "bool"
            },
            {
              "internalType": "uint32",
              "name": "executionChain",
              "type": "uint32"
            },
            {
              "internalType": "address",
              "name": "target",
              "type": "address"
            },
            {
              "internalType": "bytes",
              "name": "callData",
              "type": "bytes"
            }
          ],
          "internalType": "struct GovernanceCore.ProposalInfo[]",
          "name": "",
          "type": "tuple[]"
        }
      ],
      "stateMutability": "view",
      "type": "function"
    },
    {
      "inputs": [],
      "name": "governanceToken",
      "outputs": [
        {
          "internalType": "contract IERC20",
          "name": "",
          "type": "address"
        }
      ],
      "stateMutability": "view",
      "type": "function"
    },
    {
      "inputs": [
        {
          "internalType": "uint32",
          "name": "_origin",
          "type": "uint32"
        },
        {
          "internalType": "bytes32",
          "name": "_sender",
          "type": "bytes32"
        },
        {
          "internalType": "bytes",
          "name": "_body",
          "type": "bytes"
        }
      ],
      "name": "handle",
      "outputs": [],
      "stateMutability": "nonpayable",
      "type": "function"
    },
    {
      "inputs": [],
      "name": "igp",
      "outputs": [
        {
          "internalType": "contract IInterchainGasPaymaster",
          "name": "",
          "type": "address"
        }
      ],
      "stateMutability": "view",
      "type": "function"
    },
    {
      "inputs": [],
      "name": "mailbox",
      "outputs": [
        {
          "internalType": "contract IMailbox",
          "name": "",
          "type": "address"
        }
      ],
      "stateMutability": "view",
      "type": "function"
    },
    {
      "inputs": [],
      "name": "owner",
      "outputs": [
        {
          "internalType": "address",
          "name": "",
          "type": "address"
        }
      ],
      "stateMutability": "view",
      "type": "function"
    },
    {
      "inputs": [],
      "name": "proposalCount",
      "outputs": [
        {
          "internalType": "uint256",
          "name": "",
          "type": "uint256"
        }
      ],
      "stateMutability": "view",
      "type": "function"
    },
    {
      "inputs": [
        {
          "internalType": "uint256",
          "name": "",
          "type": "uint256"
        }
      ],
      "name": "proposals",
      "outputs": [
        {
          "internalType": "uint256",
          "name": "id",
          "type": "uint256"
        },
        {
          "internalType": "address",
          "name": "proposer",
          "type": "address"
        },
        {
          "internalType": "string",
          "name": "description",
          "type": "string"
        },
        {
          "internalType": "uint256",
          "name": "forVotes",
          "type": "uint256"
        },
        {
          "internalType": "uint256",
          "name": "againstVotes",
          "type": "uint256"
        },
        {
          "internalType": "uint256",
          "name": "startTime",
          "type": "uint256"
        },
        {
          "internalType": "bool",
          "name": "executed",
          "type": "bool"
        },
        {
          "internalType": "uint32",
          "name": "executionChain",
          "type": "uint32"
        },
        {
          "internalType": "address",
          "name": "target",
          "type": "address"
        },
        {
          "internalType": "bytes",
          "name": "callData",
          "type": "bytes"
        },
        {
          "internalType": "uint32",
          "name": "chainVotesCount",
          "type": "uint32"
        }
      ],
      "stateMutability": "view",
      "type": "function"
    },
    {
      "inputs": [],
      "name": "quorumPercentage",
      "outputs": [
        {
          "internalType": "uint256",
          "name": "",
          "type": "uint256"
        }
      ],
      "stateMutability": "view",
      "type": "function"
    },
    {
      "inputs": [],
      "name": "renounceOwnership",
      "outputs": [],
      "stateMutability": "nonpayable",
      "type": "function"
    },
    {
      "inputs": [
        {
          "internalType": "uint256",
          "name": "",
          "type": "uint256"
        }
      ],
      "name": "supportedChains",
      "outputs": [
        {
          "internalType": "uint32",
          "name": "",
          "type": "uint32"
        }
      ],
      "stateMutability": "view",
      "type": "function"
    },
    {
      "inputs": [
        {
          "internalType": "address",
          "name": "newOwner",
          "type": "address"
        }
      ],
      "name": "transferOwnership",
      "outputs": [],
      "stateMutability": "nonpayable",
      "type": "function"
    },
    {
      "inputs": [
        {
          "internalType": "uint256",
          "name": "proposalId",
          "type": "uint256"
        },
        {
          "internalType": "bool",
          "name": "support",
          "type": "bool"
        }
      ],
      "name": "vote",
      "outputs": [],
      "stateMutability": "nonpayable",
      "type": "function"
    },
    {
      "inputs": [],
      "name": "votingPeriod",
      "outputs": [
        {
          "internalType": "uint256",
          "name": "",
          "type": "uint256"
        }
      ],
      "stateMutability": "view",
      "type": "function"
    },
    {
      "inputs": [],
      "name": "withdrawExcessEth",
      "outputs": [],
      "stateMutability": "nonpayable",
      "type": "function"
    }
  ],
  "bytecode": "0x608060405262093a80600555600a6006553480156200001d57600080fd5b5060405162004f3a38038062004f3a833981810160405281019062000043919062000328565b33600073ffffffffffffffffffffffffffffffffffffffff168173ffffffffffffffffffffffffffffffffffffffff1603620000b95760006040517f1e4fbdf7000000000000000000000000000000000000000000000000000000008152600401620000b09190620003ab565b60405180910390fd5b620000ca81620001b960201b60201c565b5083600160006101000a81548173ffffffffffffffffffffffffffffffffffffffff021916908373ffffffffffffffffffffffffffffffffffffffff16021790555082600260006101000a81548173ffffffffffffffffffffffffffffffffffffffff021916908373ffffffffffffffffffffffffffffffffffffffff16021790555081600360006101000a81548173ffffffffffffffffffffffffffffffffffffffff021916908373ffffffffffffffffffffffffffffffffffffffff16021790555080600760006101000a81548163ffffffff021916908363ffffffff16021790555050505050620003c8565b60008060009054906101000a900473ffffffffffffffffffffffffffffffffffffffff169050816000806101000a81548173ffffffffffffffffffffffffffffffffffffffff021916908373ffffffffffffffffffffffffffffffffffffffff1602179055508173ffffffffffffffffffffffffffffffffffffffff168173ffffffffffffffffffffffffffffffffffffffff167f8be0079c531659141344cd1fd0a4f28419497f9722a3daafe3b4186f6b6457e060405160405180910390a35050565b600080fd5b600073ffffffffffffffffffffffffffffffffffffffff82169050919050565b6000620002af8262000282565b9050919050565b620002c181620002a2565b8114620002cd57600080fd5b50565b600081519050620002e181620002b6565b92915050565b600063ffffffff82169050919050565b6200030281620002e7565b81146200030e57600080fd5b50565b6000815190506200032281620002f7565b92915050565b600080600080608085870312156200034557620003446200027d565b5b60006200035587828801620002d0565b94505060206200036887828801620002d0565b93505060406200037b87828801620002d0565b92505060606200038e8782880162000311565b91505092959194509250565b620003a581620002a2565b82525050565b6000602082019050620003c260008301846200039a565b92915050565b614b6280620003d86000396000f3fe60806040526004361061012a5760003560e01c80638da5cb5b116100ab578063d5438eae1161006f578063d5438eae146103bc578063da35c664146103e7578063dda6a10f14610412578063f28b2daa1461042e578063f2fde38b14610459578063f96dae0a146104825761012a565b80638da5cb5b146102f8578063aa62c24614610323578063b179e1e71461033f578063b440720d1461036a578063c9d27afe146103935761012a565b80635584c4f9116100f25780635584c4f91461024657806356d5d475146102715780636d31bee71461029a578063715018a6146102ca57806382a00b3c146102e15761012a565b8063013cf08b1461012f57806302a251a314610176578063223c951d146101a15780634fa76ec9146101de578063548d496f14610209575b600080fd5b34801561013b57600080fd5b5061015660048036038101906101519190612a3a565b6104ad565b60405161016d9b9a99989796959493929190612bd6565b60405180910390f35b34801561018257600080fd5b5061018b610684565b6040516101989190612c8f565b60405180910390f35b3480156101ad57600080fd5b506101c860048036038101906101c39190612cd6565b61068a565b6040516101d59190612d1c565b60405180910390f35b3480156101ea57600080fd5b506101f36106a2565b6040516102009190612c8f565b60405180910390f35b34801561021557600080fd5b50610230600480360381019061022b9190612a3a565b6106a8565b60405161023d9190612d37565b60405180910390f35b34801561025257600080fd5b5061025b6106e2565b6040516102689190612fc5565b60405180910390f35b34801561027d57600080fd5b5061029860048036038101906102939190613078565b6109d2565b005b6102b460048036038101906102af91906132e9565b610af2565b6040516102c19190612c8f565b60405180910390f35b3480156102d657600080fd5b506102df610f3d565b005b3480156102ed57600080fd5b506102f6610f51565b005b34801561030457600080fd5b5061030d610fa9565b60405161031a91906133ae565b60405180910390f35b61033d600480360381019061033891906133c9565b610fd2565b005b34801561034b57600080fd5b506103546115cd565b6040516103619190612d37565b60405180910390f35b34801561037657600080fd5b50610391600480360381019061038c9190613468565b6115e3565b005b34801561039f57600080fd5b506103ba60048036038101906103b591906134d4565b6116fe565b005b3480156103c857600080fd5b506103d1611aa6565b6040516103de9190613573565b60405180910390f35b3480156103f357600080fd5b506103fc611acc565b6040516104099190612c8f565b60405180910390f35b61042c60048036038101906104279190612a3a565b611ad2565b005b34801561043a57600080fd5b50610443611c85565b60405161045091906135af565b60405180910390f35b34801561046557600080fd5b50610480600480360381019061047b91906135ca565b611cab565b005b34801561048e57600080fd5b50610497611d31565b6040516104a49190613618565b60405180910390f35b60086020528060005260406000206000915090508060000154908060010160009054906101000a900473ffffffffffffffffffffffffffffffffffffffff16908060020180546104fc90613662565b80601f016020809104026020016040519081016040528092919081815260200182805461052890613662565b80156105755780601f1061054a57610100808354040283529160200191610575565b820191906000526020600020905b81548152906001019060200180831161055857829003601f168201915b5050505050908060030154908060040154908060050154908060060160009054906101000a900460ff16908060060160019054906101000a900463ffffffff16908060060160059054906101000a900473ffffffffffffffffffffffffffffffffffffffff16908060070180546105eb90613662565b80601f016020809104026020016040519081016040528092919081815260200182805461061790613662565b80156106645780601f1061063957610100808354040283529160200191610664565b820191906000526020600020905b81548152906001019060200180831161064757829003601f168201915b5050505050908060090160009054906101000a900463ffffffff1690508b565b60055481565b600b6020528060005260406000206000915090505481565b60065481565b600c81815481106106b857600080fd5b9060005260206000209060089182820401919006600402915054906101000a900463ffffffff1681565b606060006106f06009611d57565b90506000815167ffffffffffffffff81111561070f5761070e6130f1565b5b60405190808252806020026020018201604052801561074857816020015b610735612969565b81526020019060019003908161072d5790505b50905060005b82518110156109c9576000600860008584815181106107705761076f613693565b5b602002602001015181526020019081526020016000209050604051806101400160405280826000015481526020018260010160009054906101000a900473ffffffffffffffffffffffffffffffffffffffff1673ffffffffffffffffffffffffffffffffffffffff1681526020018260020180546107ed90613662565b80601f016020809104026020016040519081016040528092919081815260200182805461081990613662565b80156108665780601f1061083b57610100808354040283529160200191610866565b820191906000526020600020905b81548152906001019060200180831161084957829003601f168201915b505050505081526020018260030154815260200182600401548152602001826005015481526020018260060160009054906101000a900460ff16151581526020018260060160019054906101000a900463ffffffff1663ffffffff1681526020018260060160059054906101000a900473ffffffffffffffffffffffffffffffffffffffff1673ffffffffffffffffffffffffffffffffffffffff16815260200182600701805461091690613662565b80601f016020809104026020016040519081016040528092919081815260200182805461094290613662565b801561098f5780601f106109645761010080835404028352916020019161098f565b820191906000526020600020905b81548152906001019060200180831161097257829003601f168201915b50505050508152508383815181106109aa576109a9613693565b5b60200260200101819052505080806109c1906136f1565b91505061074e565b50809250505090565b600260009054906101000a900473ffffffffffffffffffffffffffffffffffffffff1673ffffffffffffffffffffffffffffffffffffffff163373ffffffffffffffffffffffffffffffffffffffff1614610a62576040517f08c379a0000000000000000000000000000000000000000000000000000000008152600401610a59906137ab565b60405180910390fd5b600b60008563ffffffff1663ffffffff168152602001908152602001600020548314610ac3576040517f08c379a0000000000000000000000000000000000000000000000000000000008152600401610aba90613817565b60405180910390fd5b60008282810190610ad49190613837565b50905060018103610aeb57610aea858484611d78565b5b5050505050565b60003073ffffffffffffffffffffffffffffffffffffffff163373ffffffffffffffffffffffffffffffffffffffff1614610b62576040517f08c379a0000000000000000000000000000000000000000000000000000000008152600401610b5990613905565b60405180910390fd5b6000808787878787604051602001610b7f9695949392919061396d565b60405160208183030381529060405290506000600260009054906101000a900473ffffffffffffffffffffffffffffffffffffffff1673ffffffffffffffffffffffffffffffffffffffff16639c42bd188a600b60008d63ffffffff1663ffffffff16815260200190815260200160002054856040518463ffffffff1660e01b8152600401610c10939291906139dc565b602060405180830381865afa158015610c2d573d6000803e3d6000fd5b505050506040513d601f19601f82011682018060405250810190610c519190613a2f565b905080341015610c96576040517f08c379a0000000000000000000000000000000000000000000000000000000008152600401610c8d90613aa8565b60405180910390fd5b6000600260009054906101000a900473ffffffffffffffffffffffffffffffffffffffff1673ffffffffffffffffffffffffffffffffffffffff1663fa31de01838c600b60008f63ffffffff1663ffffffff16815260200190815260200160002054876040518563ffffffff1660e01b8152600401610d17939291906139dc565b60206040518083038185885af1158015610d35573d6000803e3d6000fd5b50505050506040513d601f19601f82011682018060405250810190610d5a9190613add565b90506000620493e090506000600360009054906101000a900473ffffffffffffffffffffffffffffffffffffffff1673ffffffffffffffffffffffffffffffffffffffff1663a69297938d846040518363ffffffff1660e01b8152600401610dc3929190613b0a565b602060405180830381865afa158015610de0573d6000803e3d6000fd5b505050506040513d601f19601f82011682018060405250810190610e049190613a2f565b90508084610e129190613b33565b341015610e54576040517f08c379a0000000000000000000000000000000000000000000000000000000008152600401610e4b90613bb3565b60405180910390fd5b600360009054906101000a900473ffffffffffffffffffffffffffffffffffffffff1673ffffffffffffffffffffffffffffffffffffffff166311bf2c1882858f86336040518663ffffffff1660e01b8152600401610eb69493929190613bd3565b6000604051808303818588803b158015610ecf57600080fd5b505af1158015610ee3573d6000803e3d6000fd5b50505050508a7f0b77b812328792f5d2af6a5fe6b2299443f0215da7198d4a1545452b6f0567538d604051610f189190612d37565b60405180910390a28084610f2c9190613b33565b955050505050509695505050505050565b610f45611f41565b610f4f6000611fc8565b565b610f59611f41565b610f61610fa9565b73ffffffffffffffffffffffffffffffffffffffff166108fc479081150290604051600060405180830381858888f19350505050158015610fa6573d6000803e3d6000fd5b50565b60008060009054906101000a900473ffffffffffffffffffffffffffffffffffffffff16905090565b6000600160009054906101000a900473ffffffffffffffffffffffffffffffffffffffff1673ffffffffffffffffffffffffffffffffffffffff166370a08231336040518263ffffffff1660e01b815260040161102f91906133ae565b602060405180830381865afa15801561104c573d6000803e3d6000fd5b505050506040513d601f19601f820116820180604052508101906110709190613a2f565b116110b0576040517f08c379a00000000000000000000000000000000000000000000000000000000081526004016110a790613c8a565b60405180910390fd5b600760009054906101000a900463ffffffff1663ffffffff168363ffffffff1614806110fe57506000801b600b60008563ffffffff1663ffffffff1681526020019081526020016000205414155b61113d576040517f08c379a000000000000000000000000000000000000000000000000000000000815260040161113490613cf6565b60405180910390fd5b60046000815480929190611150906136f1565b9190505550600060086000600454815260200190815260200160002090506004548160000181905550338160010160006101000a81548173ffffffffffffffffffffffffffffffffffffffff021916908373ffffffffffffffffffffffffffffffffffffffff160217905550848160020190816111cd9190613eb8565b50428160050181905550838160060160016101000a81548163ffffffff021916908363ffffffff160217905550828160060160056101000a81548173ffffffffffffffffffffffffffffffffffffffff021916908373ffffffffffffffffffffffffffffffffffffffff1602179055508181600701908161124e9190613fe5565b5060008160090160006101000a81548163ffffffff021916908363ffffffff160217905550611289600454600961208c90919063ffffffff16565b506004547f79a06fa3c19f5d47d5ebaf9366d3e6fd2438d612f22645d6aea09b6cd97a890c3387876040516112c0939291906140b7565b60405180910390a260008060005b600c805490508110156114e2576000600c82815481106112f1576112f0613693565b5b90600052602060002090600891828204019190066004029054906101000a900463ffffffff169050600760009054906101000a900463ffffffff1663ffffffff168163ffffffff16146114ce573073ffffffffffffffffffffffffffffffffffffffff16636d31bee7853461136691906140f5565b836004548d8d8d8d6040518863ffffffff1660e01b815260040161138f96959493929190614129565b60206040518083038185885af1935050505080156113cb57506040513d601f19601f820116820180604052508101906113c89190613a2f565b60015b6114af576113d76141a5565b806308c379a00361143957506113eb6141c7565b806113f6575061143b565b7f479db21d7e67b9cc2336ef59e41a37079f67776d8c5a7949b547636d88c6592d826004548360405161142b93929190614257565b60405180910390a1506114aa565b505b3d8060008114611467576040519150601f19603f3d011682016040523d82523d6000602084013e61146c565b606091505b507f479db21d7e67b9cc2336ef59e41a37079f67776d8c5a7949b547636d88c6592d826004546040516114a09291906142e1565b60405180910390a1505b6114cd565b80856114bb9190613b33565b945083806114c8906136f1565b945050505b5b5080806114da906136f1565b9150506112ce565b5060008111611526576040517f08c379a000000000000000000000000000000000000000000000000000000000815260040161151d90614369565b60405180910390fd5b81341015611569576040517f08c379a0000000000000000000000000000000000000000000000000000000008152600401611560906143d5565b60405180910390fd5b813411156115c4573373ffffffffffffffffffffffffffffffffffffffff166108fc833461159791906140f5565b9081150290604051600060405180830381858888f193505050501580156115c2573d6000803e3d6000fd5b505b50505050505050565b600760009054906101000a900463ffffffff1681565b6115eb611f41565b6000801b600b60008463ffffffff1663ffffffff168152602001908152602001600020541461164f576040517f08c379a000000000000000000000000000000000000000000000000000000000815260040161164690614441565b60405180910390fd5b80600b60008463ffffffff1663ffffffff16815260200190815260200160002081905550600c8290806001815401808255809150506001900390600052602060002090600891828204019190066004029091909190916101000a81548163ffffffff021916908363ffffffff1602179055507f80c6704ccc40eeef3efbeaed114bedac0a55ae94dbfddba0804b9b7f431e005182826040516116f2929190614461565b60405180910390a15050565b6000600160009054906101000a900473ffffffffffffffffffffffffffffffffffffffff1673ffffffffffffffffffffffffffffffffffffffff166370a08231336040518263ffffffff1660e01b815260040161175b91906133ae565b602060405180830381865afa158015611778573d6000803e3d6000fd5b505050506040513d601f19601f8201168201806040525081019061179c9190613a2f565b116117dc576040517f08c379a00000000000000000000000000000000000000000000000000000000081526004016117d3906144fc565b60405180910390fd5b600060086000848152602001908152602001600020905060055481600501546118059190613b33565b421115611847576040517f08c379a000000000000000000000000000000000000000000000000000000000815260040161183e90614568565b60405180910390fd5b8060060160009054906101000a900460ff1615611899576040517f08c379a0000000000000000000000000000000000000000000000000000000008152600401611890906145d4565b60405180910390fd5b80600a0160003373ffffffffffffffffffffffffffffffffffffffff1673ffffffffffffffffffffffffffffffffffffffff16815260200190815260200160002060009054906101000a900460ff1615611928576040517f08c379a000000000000000000000000000000000000000000000000000000000815260040161191f90614640565b60405180910390fd5b6000600160009054906101000a900473ffffffffffffffffffffffffffffffffffffffff1673ffffffffffffffffffffffffffffffffffffffff166370a08231336040518263ffffffff1660e01b815260040161198591906133ae565b602060405180830381865afa1580156119a2573d6000803e3d6000fd5b505050506040513d601f19601f820116820180604052508101906119c69190613a2f565b905082156119ee57808260030160008282546119e29190613b33565b92505081905550611a0a565b80826004016000828254611a029190613b33565b925050819055505b600182600a0160003373ffffffffffffffffffffffffffffffffffffffff1673ffffffffffffffffffffffffffffffffffffffff16815260200190815260200160002060006101000a81548160ff021916908315150217905550837f7c2de587c00d75474a0c6c6fa96fd3b45dc974cd4e8a75f712bb84c950dce1b5338584604051611a9893929190614660565b60405180910390a250505050565b600260009054906101000a900473ffffffffffffffffffffffffffffffffffffffff1681565b60045481565b60006008600083815260200190815260200160002090506005548160050154611afb9190613b33565b4211611b3c576040517f08c379a0000000000000000000000000000000000000000000000000000000008152600401611b33906146e3565b60405180910390fd5b8060060160009054906101000a900460ff1615611b8e576040517f08c379a0000000000000000000000000000000000000000000000000000000008152600401611b85906145d4565b60405180910390fd5b6000805b600c80549050811015611c3c576000600c8281548110611bb557611bb4613693565b5b90600052602060002090600891828204019190066004029054906101000a900463ffffffff1690508360080160008263ffffffff1663ffffffff16815260200190815260200160002060009054906101000a900460ff16611c2857611c1a81866120a6565b83611c259190613b33565b92505b508080611c34906136f1565b915050611b92565b5080341015611c80576040517f08c379a0000000000000000000000000000000000000000000000000000000008152600401611c77906143d5565b60405180910390fd5b505050565b600360009054906101000a900473ffffffffffffffffffffffffffffffffffffffff1681565b611cb3611f41565b600073ffffffffffffffffffffffffffffffffffffffff168173ffffffffffffffffffffffffffffffffffffffff1603611d255760006040517f1e4fbdf7000000000000000000000000000000000000000000000000000000008152600401611d1c91906133ae565b60405180910390fd5b611d2e81611fc8565b50565b600160009054906101000a900473ffffffffffffffffffffffffffffffffffffffff1681565b60606000611d678360000161225f565b905060608190508092505050919050565b60008060008484810190611d8c9190614703565b9350935093505060006008600085815260200190815260200160002090508060080160008863ffffffff1663ffffffff16815260200190815260200160002060009054906101000a900460ff1615611e19576040517f08c379a0000000000000000000000000000000000000000000000000000000008152600401611e10906147dc565b60405180910390fd5b82816003016000828254611e2d9190613b33565b9250508190555081816004016000828254611e489190613b33565b9250508190555060018160080160008963ffffffff1663ffffffff16815260200190815260200160002060006101000a81548160ff02191690831515021790555080600901600081819054906101000a900463ffffffff1680929190611ead906147fc565b91906101000a81548163ffffffff021916908363ffffffff16021790555050837f3041511d11da95916f337299a30f01b387a2444bed3a0a00abffe20750146660888585604051611f0093929190614828565b60405180910390a2600c805490508160090160009054906101000a900463ffffffff1663ffffffff1603611f3857611f37846122bb565b5b50505050505050565b611f496125e7565b73ffffffffffffffffffffffffffffffffffffffff16611f67610fa9565b73ffffffffffffffffffffffffffffffffffffffff1614611fc657611f8a6125e7565b6040517f118cdaa7000000000000000000000000000000000000000000000000000000008152600401611fbd91906133ae565b60405180910390fd5b565b60008060009054906101000a900473ffffffffffffffffffffffffffffffffffffffff169050816000806101000a81548173ffffffffffffffffffffffffffffffffffffffff021916908373ffffffffffffffffffffffffffffffffffffffff1602179055508173ffffffffffffffffffffffffffffffffffffffff168173ffffffffffffffffffffffffffffffffffffffff167f8be0079c531659141344cd1fd0a4f28419497f9722a3daafe3b4186f6b6457e060405160405180910390a35050565b600061209e836000018360001b6125ef565b905092915050565b6000806001836040516020016120bd92919061489a565b60405160208183030381529060405290506000600260009054906101000a900473ffffffffffffffffffffffffffffffffffffffff1673ffffffffffffffffffffffffffffffffffffffff16639c42bd1886600b60008963ffffffff1663ffffffff16815260200190815260200160002054856040518463ffffffff1660e01b815260040161214e939291906139dc565b602060405180830381865afa15801561216b573d6000803e3d6000fd5b505050506040513d601f19601f8201168201806040525081019061218f9190613a2f565b9050600260009054906101000a900473ffffffffffffffffffffffffffffffffffffffff1673ffffffffffffffffffffffffffffffffffffffff1663fa31de018287600b60008a63ffffffff1663ffffffff16815260200190815260200160002054866040518563ffffffff1660e01b8152600401612210939291906139dc565b60206040518083038185885af115801561222e573d6000803e3d6000fd5b50505050506040513d601f19601f820116820180604052508101906122539190613add565b50809250505092915050565b6060816000018054806020026020016040519081016040528092919081815260200182805480156122af57602002820191906000526020600020905b81548152602001906001019080831161229b575b50505050509050919050565b60006008600083815260200190815260200160002090506000816004015482600301546122e89190613b33565b905060006064600654600160009054906101000a900473ffffffffffffffffffffffffffffffffffffffff1673ffffffffffffffffffffffffffffffffffffffff166318160ddd6040518163ffffffff1660e01b8152600401602060405180830381865afa15801561235e573d6000803e3d6000fd5b505050506040513d601f19601f820116820180604052508101906123829190613a2f565b61238c91906148c3565b6123969190614934565b90508082101580156123af575082600401548360030154115b156125e15760018360060160006101000a81548160ff0219169083151502179055506123e584600961265f90919063ffffffff16565b50837f712ae1383f79ac853f8d882153778e0260ef8f03b504e2866e0593e04d2b291f60405160405180910390a260008360060160019054906101000a900463ffffffff1663ffffffff160361250f5760008360060160059054906101000a900473ffffffffffffffffffffffffffffffffffffffff1673ffffffffffffffffffffffffffffffffffffffff168460070160405161248391906149f3565b6000604051808303816000865af19150503d80600081146124c0576040519150601f19603f3d011682016040523d82523d6000602084013e6124c5565b606091505b5050905080612509576040517f08c379a000000000000000000000000000000000000000000000000000000000815260040161250090614a56565b60405180910390fd5b506125e0565b6125df8360060160019054906101000a900463ffffffff16858560060160059054906101000a900473ffffffffffffffffffffffffffffffffffffffff1686600701805461255c90613662565b80601f016020809104026020016040519081016040528092919081815260200182805461258890613662565b80156125d55780601f106125aa576101008083540402835291602001916125d5565b820191906000526020600020905b8154815290600101906020018083116125b857829003601f168201915b5050505050612679565b5b5b50505050565b600033905090565b60006125fb8383612832565b612654578260000182908060018154018082558091505060019003906000526020600020016000909190919091505582600001805490508360010160008481526020019081526020016000208190555060019050612659565b600090505b92915050565b6000612671836000018360001b612855565b905092915050565b600060028484846040516020016126939493929190614ab1565b60405160208183030381529060405290506000600260009054906101000a900473ffffffffffffffffffffffffffffffffffffffff1673ffffffffffffffffffffffffffffffffffffffff16639c42bd1887600b60008a63ffffffff1663ffffffff16815260200190815260200160002054856040518463ffffffff1660e01b8152600401612724939291906139dc565b602060405180830381865afa158015612741573d6000803e3d6000fd5b505050506040513d601f19601f820116820180604052508101906127659190613a2f565b9050600260009054906101000a900473ffffffffffffffffffffffffffffffffffffffff1673ffffffffffffffffffffffffffffffffffffffff1663fa31de018288600b60008b63ffffffff1663ffffffff16815260200190815260200160002054866040518563ffffffff1660e01b81526004016127e6939291906139dc565b60206040518083038185885af1158015612804573d6000803e3d6000fd5b50505050506040513d601f19601f820116820180604052508101906128299190613add565b50505050505050565b600080836001016000848152602001908152602001600020541415905092915050565b6000808360010160008481526020019081526020016000205490506000811461295d57600060018261288791906140f5565b905060006001866000018054905061289f91906140f5565b905080821461290e5760008660000182815481106128c0576128bf613693565b5b90600052602060002001549050808760000184815481106128e4576128e3613693565b5b90600052602060002001819055508387600101600083815260200190815260200160002081905550505b8560000180548061292257612921614afd565b5b600190038181906000526020600020016000905590558560010160008681526020019081526020016000206000905560019350505050612963565b60009150505b92915050565b60405180610140016040528060008152602001600073ffffffffffffffffffffffffffffffffffffffff16815260200160608152602001600081526020016000815260200160008152602001600015158152602001600063ffffffff168152602001600073ffffffffffffffffffffffffffffffffffffffff168152602001606081525090565b6000604051905090565b600080fd5b600080fd5b6000819050919050565b612a1781612a04565b8114612a2257600080fd5b50565b600081359050612a3481612a0e565b92915050565b600060208284031215612a5057612a4f6129fa565b5b6000612a5e84828501612a25565b91505092915050565b612a7081612a04565b82525050565b600073ffffffffffffffffffffffffffffffffffffffff82169050919050565b6000612aa182612a76565b9050919050565b612ab181612a96565b82525050565b600081519050919050565b600082825260208201905092915050565b60005b83811015612af1578082015181840152602081019050612ad6565b60008484015250505050565b6000601f19601f8301169050919050565b6000612b1982612ab7565b612b238185612ac2565b9350612b33818560208601612ad3565b612b3c81612afd565b840191505092915050565b60008115159050919050565b612b5c81612b47565b82525050565b600063ffffffff82169050919050565b612b7b81612b62565b82525050565b600081519050919050565b600082825260208201905092915050565b6000612ba882612b81565b612bb28185612b8c565b9350612bc2818560208601612ad3565b612bcb81612afd565b840191505092915050565b600061016082019050612bec600083018e612a67565b612bf9602083018d612aa8565b8181036040830152612c0b818c612b0e565b9050612c1a606083018b612a67565b612c27608083018a612a67565b612c3460a0830189612a67565b612c4160c0830188612b53565b612c4e60e0830187612b72565b612c5c610100830186612aa8565b818103610120830152612c6f8185612b9d565b9050612c7f610140830184612b72565b9c9b505050505050505050505050565b6000602082019050612ca46000830184612a67565b92915050565b612cb381612b62565b8114612cbe57600080fd5b50565b600081359050612cd081612caa565b92915050565b600060208284031215612cec57612ceb6129fa565b5b6000612cfa84828501612cc1565b91505092915050565b6000819050919050565b612d1681612d03565b82525050565b6000602082019050612d316000830184612d0d565b92915050565b6000602082019050612d4c6000830184612b72565b92915050565b600081519050919050565b600082825260208201905092915050565b6000819050602082019050919050565b612d8781612a04565b82525050565b612d9681612a96565b82525050565b600082825260208201905092915050565b6000612db882612ab7565b612dc28185612d9c565b9350612dd2818560208601612ad3565b612ddb81612afd565b840191505092915050565b612def81612b47565b82525050565b612dfe81612b62565b82525050565b600082825260208201905092915050565b6000612e2082612b81565b612e2a8185612e04565b9350612e3a818560208601612ad3565b612e4381612afd565b840191505092915050565b600061014083016000830151612e676000860182612d7e565b506020830151612e7a6020860182612d8d565b5060408301518482036040860152612e928282612dad565b9150506060830151612ea76060860182612d7e565b506080830151612eba6080860182612d7e565b5060a0830151612ecd60a0860182612d7e565b5060c0830151612ee060c0860182612de6565b5060e0830151612ef360e0860182612df5565b50610100830151612f08610100860182612d8d565b50610120830151848203610120860152612f228282612e15565b9150508091505092915050565b6000612f3b8383612e4e565b905092915050565b6000602082019050919050565b6000612f5b82612d52565b612f658185612d5d565b935083602082028501612f7785612d6e565b8060005b85811015612fb35784840389528151612f948582612f2f565b9450612f9f83612f43565b925060208a01995050600181019050612f7b565b50829750879550505050505092915050565b60006020820190508181036000830152612fdf8184612f50565b905092915050565b612ff081612d03565b8114612ffb57600080fd5b50565b60008135905061300d81612fe7565b92915050565b600080fd5b600080fd5b600080fd5b60008083601f84011261303857613037613013565b5b8235905067ffffffffffffffff81111561305557613054613018565b5b6020830191508360018202830111156130715761307061301d565b5b9250929050565b60008060008060608587031215613092576130916129fa565b5b60006130a087828801612cc1565b94505060206130b187828801612ffe565b935050604085013567ffffffffffffffff8111156130d2576130d16129ff565b5b6130de87828801613022565b925092505092959194509250565b600080fd5b7f4e487b7100000000000000000000000000000000000000000000000000000000600052604160045260246000fd5b61312982612afd565b810181811067ffffffffffffffff82111715613148576131476130f1565b5b80604052505050565b600061315b6129f0565b90506131678282613120565b919050565b600067ffffffffffffffff821115613187576131866130f1565b5b61319082612afd565b9050602081019050919050565b82818337600083830152505050565b60006131bf6131ba8461316c565b613151565b9050828152602081018484840111156131db576131da6130ec565b5b6131e684828561319d565b509392505050565b600082601f83011261320357613202613013565b5b81356132138482602086016131ac565b91505092915050565b61322581612a96565b811461323057600080fd5b50565b6000813590506132428161321c565b92915050565b600067ffffffffffffffff821115613263576132626130f1565b5b61326c82612afd565b9050602081019050919050565b600061328c61328784613248565b613151565b9050828152602081018484840111156132a8576132a76130ec565b5b6132b384828561319d565b509392505050565b600082601f8301126132d0576132cf613013565b5b81356132e0848260208601613279565b91505092915050565b60008060008060008060c08789031215613306576133056129fa565b5b600061331489828a01612cc1565b965050602061332589828a01612a25565b955050604087013567ffffffffffffffff811115613346576133456129ff565b5b61335289828a016131ee565b945050606061336389828a01612cc1565b935050608061337489828a01613233565b92505060a087013567ffffffffffffffff811115613395576133946129ff565b5b6133a189828a016132bb565b9150509295509295509295565b60006020820190506133c36000830184612aa8565b92915050565b600080600080608085870312156133e3576133e26129fa565b5b600085013567ffffffffffffffff811115613401576134006129ff565b5b61340d878288016131ee565b945050602061341e87828801612cc1565b935050604061342f87828801613233565b925050606085013567ffffffffffffffff8111156134505761344f6129ff565b5b61345c878288016132bb565b91505092959194509250565b6000806040838503121561347f5761347e6129fa565b5b600061348d85828601612cc1565b925050602061349e85828601612ffe565b9150509250929050565b6134b181612b47565b81146134bc57600080fd5b50565b6000813590506134ce816134a8565b92915050565b600080604083850312156134eb576134ea6129fa565b5b60006134f985828601612a25565b925050602061350a858286016134bf565b9150509250929050565b6000819050919050565b600061353961353461352f84612a76565b613514565b612a76565b9050919050565b600061354b8261351e565b9050919050565b600061355d82613540565b9050919050565b61356d81613552565b82525050565b60006020820190506135886000830184613564565b92915050565b600061359982613540565b9050919050565b6135a98161358e565b82525050565b60006020820190506135c460008301846135a0565b92915050565b6000602082840312156135e0576135df6129fa565b5b60006135ee84828501613233565b91505092915050565b600061360282613540565b9050919050565b613612816135f7565b82525050565b600060208201905061362d6000830184613609565b92915050565b7f4e487b7100000000000000000000000000000000000000000000000000000000600052602260045260246000fd5b6000600282049050600182168061367a57607f821691505b60208210810361368d5761368c613633565b5b50919050565b7f4e487b7100000000000000000000000000000000000000000000000000000000600052603260045260246000fd5b7f4e487b7100000000000000000000000000000000000000000000000000000000600052601160045260246000fd5b60006136fc82612a04565b91507fffffffffffffffffffffffffffffffffffffffffffffffffffffffffffffffff820361372e5761372d6136c2565b5b600182019050919050565b7f4f6e6c79204d61696c626f782063616e2063616c6c20746869732066756e637460008201527f696f6e0000000000000000000000000000000000000000000000000000000000602082015250565b6000613795602383612ac2565b91506137a082613739565b604082019050919050565b600060208201905081810360008301526137c481613788565b9050919050565b7f496e76616c69642073656e646572000000000000000000000000000000000000600082015250565b6000613801600e83612ac2565b915061380c826137cb565b602082019050919050565b60006020820190508181036000830152613830816137f4565b9050919050565b6000806040838503121561384e5761384d6129fa565b5b600061385c85828601612a25565b925050602083013567ffffffffffffffff81111561387d5761387c6129ff565b5b613889858286016132bb565b9150509250929050565b7f4f6e6c792074686520636f6e74726163742063616e2063616c6c20746869732060008201527f66756e6374696f6e000000000000000000000000000000000000000000000000602082015250565b60006138ef602883612ac2565b91506138fa82613893565b604082019050919050565b6000602082019050818103600083015261391e816138e2565b9050919050565b6000819050919050565b600060ff82169050919050565b600061395761395261394d84613925565b613514565b61392f565b9050919050565b6139678161393c565b82525050565b600060c082019050613982600083018961395e565b61398f6020830188612a67565b81810360408301526139a18187612b0e565b90506139b06060830186612b72565b6139bd6080830185612aa8565b81810360a08301526139cf8184612b9d565b9050979650505050505050565b60006060820190506139f16000830186612b72565b6139fe6020830185612d0d565b8181036040830152613a108184612b9d565b9050949350505050565b600081519050613a2981612a0e565b92915050565b600060208284031215613a4557613a446129fa565b5b6000613a5384828501613a1a565b91505092915050565b7f496e73756666696369656e742066656520666f72206469737061746368000000600082015250565b6000613a92601d83612ac2565b9150613a9d82613a5c565b602082019050919050565b60006020820190508181036000830152613ac181613a85565b9050919050565b600081519050613ad781612fe7565b92915050565b600060208284031215613af357613af26129fa565b5b6000613b0184828501613ac8565b91505092915050565b6000604082019050613b1f6000830185612b72565b613b2c6020830184612a67565b9392505050565b6000613b3e82612a04565b9150613b4983612a04565b9250828201905080821115613b6157613b606136c2565b5b92915050565b7f496e73756666696369656e742066656520666f72204947500000000000000000600082015250565b6000613b9d601883612ac2565b9150613ba882613b67565b602082019050919050565b60006020820190508181036000830152613bcc81613b90565b9050919050565b6000608082019050613be86000830187612d0d565b613bf56020830186612b72565b613c026040830185612a67565b613c0f6060830184612aa8565b95945050505050565b7f4d75737420686f6c6420676f7665726e616e636520746f6b656e7320746f207060008201527f726f706f73650000000000000000000000000000000000000000000000000000602082015250565b6000613c74602683612ac2565b9150613c7f82613c18565b604082019050919050565b60006020820190508181036000830152613ca381613c67565b9050919050565b7f496e76616c696420657865637574696f6e20636861696e000000000000000000600082015250565b6000613ce0601783612ac2565b9150613ceb82613caa565b602082019050919050565b60006020820190508181036000830152613d0f81613cd3565b9050919050565b60008190508160005260206000209050919050565b60006020601f8301049050919050565b600082821b905092915050565b600060088302613d787fffffffffffffffffffffffffffffffffffffffffffffffffffffffffffffffff82613d3b565b613d828683613d3b565b95508019841693508086168417925050509392505050565b6000613db5613db0613dab84612a04565b613514565b612a04565b9050919050565b6000819050919050565b613dcf83613d9a565b613de3613ddb82613dbc565b848454613d48565b825550505050565b600090565b613df8613deb565b613e03818484613dc6565b505050565b5b81811015613e2757613e1c600082613df0565b600181019050613e09565b5050565b601f821115613e6c57613e3d81613d16565b613e4684613d2b565b81016020851015613e55578190505b613e69613e6185613d2b565b830182613e08565b50505b505050565b600082821c905092915050565b6000613e8f60001984600802613e71565b1980831691505092915050565b6000613ea88383613e7e565b9150826002028217905092915050565b613ec182612ab7565b67ffffffffffffffff811115613eda57613ed96130f1565b5b613ee48254613662565b613eef828285613e2b565b600060209050601f831160018114613f225760008415613f10578287015190505b613f1a8582613e9c565b865550613f82565b601f198416613f3086613d16565b60005b82811015613f5857848901518255600182019150602085019450602081019050613f33565b86831015613f755784890151613f71601f891682613e7e565b8355505b6001600288020188555050505b505050505050565b60008190508160005260206000209050919050565b601f821115613fe057613fb181613f8a565b613fba84613d2b565b81016020851015613fc9578190505b613fdd613fd585613d2b565b830182613e08565b50505b505050565b613fee82612b81565b67ffffffffffffffff811115614007576140066130f1565b5b6140118254613662565b61401c828285613f9f565b600060209050601f83116001811461404f576000841561403d578287015190505b6140478582613e9c565b8655506140af565b601f19841661405d86613f8a565b60005b8281101561408557848901518255600182019150602085019450602081019050614060565b868310156140a2578489015161409e601f891682613e7e565b8355505b6001600288020188555050505b505050505050565b60006060820190506140cc6000830186612aa8565b81810360208301526140de8185612b0e565b90506140ed6040830184612b72565b949350505050565b600061410082612a04565b915061410b83612a04565b9250828203905081811115614123576141226136c2565b5b92915050565b600060c08201905061413e6000830189612b72565b61414b6020830188612a67565b818103604083015261415d8187612b0e565b905061416c6060830186612b72565b6141796080830185612aa8565b81810360a083015261418b8184612b9d565b9050979650505050505050565b60008160e01c9050919050565b600060033d11156141c45760046000803e6141c1600051614198565b90505b90565b600060443d10614254576141d96129f0565b60043d036004823e80513d602482011167ffffffffffffffff82111715614201575050614254565b808201805167ffffffffffffffff81111561421f5750505050614254565b80602083010160043d03850181111561423c575050505050614254565b61424b82602001850186613120565b82955050505050505b90565b600060608201905061426c6000830186612b72565b6142796020830185612a67565b818103604083015261428b8184612b0e565b9050949350505050565b7f556e6b6e6f776e206572726f7200000000000000000000000000000000000000600082015250565b60006142cb600d83612ac2565b91506142d682614295565b602082019050919050565b60006060820190506142f66000830185612b72565b6143036020830184612a67565b8181036040830152614314816142be565b90509392505050565b7f4661696c656420746f20646973706174636820746f20616e7920636861696e00600082015250565b6000614353601f83612ac2565b915061435e8261431d565b602082019050919050565b6000602082019050818103600083015261438281614346565b9050919050565b7f496e73756666696369656e74206665652070726f766964656400000000000000600082015250565b60006143bf601983612ac2565b91506143ca82614389565b602082019050919050565b600060208201905081810360008301526143ee816143b2565b9050919050565b7f436861696e20616c726561647920737570706f72746564000000000000000000600082015250565b600061442b601783612ac2565b9150614436826143f5565b602082019050919050565b6000602082019050818103600083015261445a8161441e565b9050919050565b60006040820190506144766000830185612b72565b6144836020830184612d0d565b9392505050565b7f4d75737420686f6c6420676f7665726e616e636520746f6b656e7320746f207660008201527f6f74650000000000000000000000000000000000000000000000000000000000602082015250565b60006144e6602383612ac2565b91506144f18261448a565b604082019050919050565b60006020820190508181036000830152614515816144d9565b9050919050565b7f566f74696e6720706572696f642068617320656e646564000000000000000000600082015250565b6000614552601783612ac2565b915061455d8261451c565b602082019050919050565b6000602082019050818103600083015261458181614545565b9050919050565b7f50726f706f73616c20616c726561647920657865637574656400000000000000600082015250565b60006145be601983612ac2565b91506145c982614588565b602082019050919050565b600060208201905081810360008301526145ed816145b1565b9050919050565b7f416c726561647920766f74656400000000000000000000000000000000000000600082015250565b600061462a600d83612ac2565b9150614635826145f4565b602082019050919050565b600060208201905081810360008301526146598161461d565b9050919050565b60006060820190506146756000830186612aa8565b6146826020830185612b53565b61468f6040830184612a67565b949350505050565b7f566f74696e6720706572696f64206e6f7420656e646564000000000000000000600082015250565b60006146cd601783612ac2565b91506146d882614697565b602082019050919050565b600060208201905081810360008301526146fc816146c0565b9050919050565b6000806000806080858703121561471d5761471c6129fa565b5b600061472b87828801612a25565b945050602061473c87828801612a25565b935050604061474d87828801612a25565b925050606061475e87828801612a25565b91505092959194509250565b7f566f74657320616c726561647920636f6c6c656374656420666f72207468697360008201527f20636861696e0000000000000000000000000000000000000000000000000000602082015250565b60006147c6602683612ac2565b91506147d18261476a565b604082019050919050565b600060208201905081810360008301526147f5816147b9565b9050919050565b600061480782612b62565b915063ffffffff820361481d5761481c6136c2565b5b600182019050919050565b600060608201905061483d6000830186612b72565b61484a6020830185612a67565b6148576040830184612a67565b949350505050565b6000819050919050565b600061488461487f61487a8461485f565b613514565b61392f565b9050919050565b61489481614869565b82525050565b60006040820190506148af600083018561488b565b6148bc6020830184612a67565b9392505050565b60006148ce82612a04565b91506148d983612a04565b92508282026148e781612a04565b915082820484148315176148fe576148fd6136c2565b5b5092915050565b7f4e487b7100000000000000000000000000000000000000000000000000000000600052601260045260246000fd5b600061493f82612a04565b915061494a83612a04565b92508261495a57614959614905565b5b828204905092915050565b600081905092915050565b6000815461497d81613662565b6149878186614965565b945060018216600081146149a257600181146149b7576149ea565b60ff19831686528115158202860193506149ea565b6149c085613f8a565b60005b838110156149e2578154818901526001820191506020810190506149c3565b838801955050505b50505092915050565b60006149ff8284614970565b915081905092915050565b7f50726f706f73616c20657865637574696f6e206661696c656400000000000000600082015250565b6000614a40601983612ac2565b9150614a4b82614a0a565b602082019050919050565b60006020820190508181036000830152614a6f81614a33565b9050919050565b6000819050919050565b6000614a9b614a96614a9184614a76565b613514565b61392f565b9050919050565b614aab81614a80565b82525050565b6000608082019050614ac66000830187614aa2565b614ad36020830186612a67565b614ae06040830185612aa8565b8181036060830152614af28184612b9d565b905095945050505050565b7f4e487b7100000000000000000000000000000000000000000000000000000000600052603160045260246000fdfea264697066735822122077d67201ad5174c80a42c4908bdbffa961c40d8e80f544a197183b95f29acb3364736f6c63430008140033",
  "linkReferences": {},
  "deployedLinkReferences": {}
}