{
  "_format": "hh-sol-artifact-1",
  "contractName": "GovernanceCore",
  "sourceName": "contracts/GovernanceCore.sol",
  "abi": [
    {
      "inputs": [
        {
          "internalType": "address",
          "name": "_governanceToken",
          "type": "address"
        },
        {
          "internalType": "address",
          "name": "_mailbox",
          "type": "address"
        },
        {
          "internalType": "address",
          "name": "_igp",
          "type": "address"
        },
        {
          "internalType": "uint32",
          "name": "chainId",
          "type": "uint32"
        }
      ],
      "stateMutability": "nonpayable",
      "type": "constructor"
    },
    {
      "inputs": [
        {
          "internalType": "address",
          "name": "owner",
          "type": "address"
        }
      ],
      "name": "OwnableInvalidOwner",
      "type": "error"
    },
    {
      "inputs": [
        {
          "internalType": "address",
          "name": "account",
          "type": "address"
        }
      ],
      "name": "OwnableUnauthorizedAccount",
      "type": "error"
    },
    {
      "anonymous": false,
      "inputs": [
        {
          "indexed": true,
          "internalType": "uint256",
          "name": "proposalId",
          "type": "uint256"
        },
        {
          "indexed": false,
          "internalType": "uint32",
          "name": "destinationDomain",
          "type": "uint32"
        }
      ],
      "name": "CrossChainProposalCreated",
      "type": "event"
    },
    {
      "anonymous": false,
      "inputs": [
        {
          "indexed": true,
          "internalType": "address",
          "name": "previousOwner",
          "type": "address"
        },
        {
          "indexed": true,
          "internalType": "address",
          "name": "newOwner",
          "type": "address"
        }
      ],
      "name": "OwnershipTransferred",
      "type": "event"
    },
    {
      "anonymous": false,
      "inputs": [
        {
          "indexed": true,
          "internalType": "uint256",
          "name": "proposalId",
          "type": "uint256"
        },
        {
          "indexed": false,
          "internalType": "address",
          "name": "proposer",
          "type": "address"
        },
        {
          "indexed": false,
          "internalType": "string",
          "name": "description",
          "type": "string"
        },
        {
          "indexed": false,
          "internalType": "uint32",
          "name": "executionChain",
          "type": "uint32"
        }
      ],
      "name": "ProposalCreated",
      "type": "event"
    },
    {
      "anonymous": false,
      "inputs": [
        {
          "indexed": true,
          "internalType": "uint256",
          "name": "proposalId",
          "type": "uint256"
        }
      ],
      "name": "ProposalExecuted",
      "type": "event"
    },
    {
      "anonymous": false,
      "inputs": [
        {
          "indexed": false,
          "internalType": "uint32",
          "name": "chainId",
          "type": "uint32"
        },
        {
          "indexed": false,
          "internalType": "bytes32",
          "name": "proxyAddress",
          "type": "bytes32"
        }
      ],
      "name": "SupportedChainAdded",
      "type": "event"
    },
    {
      "anonymous": false,
      "inputs": [
        {
          "indexed": true,
          "internalType": "uint256",
          "name": "proposalId",
          "type": "uint256"
        },
        {
          "indexed": false,
          "internalType": "uint32",
          "name": "chainId",
          "type": "uint32"
        },
        {
          "indexed": false,
          "internalType": "uint256",
          "name": "forVotes",
          "type": "uint256"
        },
        {
          "indexed": false,
          "internalType": "uint256",
          "name": "againstVotes",
          "type": "uint256"
        }
      ],
      "name": "VotesCollected",
      "type": "event"
    },
    {
      "inputs": [
        {
          "internalType": "uint32",
          "name": "chainId",
          "type": "uint32"
        },
        {
          "internalType": "bytes32",
          "name": "proxyAddress",
          "type": "bytes32"
        }
      ],
      "name": "addSupportedChain",
      "outputs": [],
      "stateMutability": "nonpayable",
      "type": "function"
    },
    {
      "inputs": [
        {
          "internalType": "uint32",
          "name": "",
          "type": "uint32"
        }
      ],
      "name": "chainToProxyAddress",
      "outputs": [
        {
          "internalType": "bytes32",
          "name": "",
          "type": "bytes32"
        }
      ],
      "stateMutability": "view",
      "type": "function"
    },
    {
      "inputs": [
        {
          "internalType": "uint256",
          "name": "proposalId",
          "type": "uint256"
        }
      ],
      "name": "collectVotes",
      "outputs": [],
      "stateMutability": "payable",
      "type": "function"
    },
    {
      "inputs": [
        {
          "internalType": "string",
          "name": "description",
          "type": "string"
        },
        {
          "internalType": "uint32",
          "name": "executionChain",
          "type": "uint32"
        },
        {
          "internalType": "address",
          "name": "target",
          "type": "address"
        },
        {
          "internalType": "bytes",
          "name": "callData",
          "type": "bytes"
        }
      ],
      "name": "createProposal",
      "outputs": [],
      "stateMutability": "payable",
      "type": "function"
    },
    {
      "inputs": [],
      "name": "currentChainID",
      "outputs": [
        {
          "internalType": "uint32",
          "name": "",
          "type": "uint32"
        }
      ],
      "stateMutability": "view",
      "type": "function"
    },
    {
      "inputs": [],
      "name": "getActiveProposals",
      "outputs": [
        {
          "internalType": "uint256[]",
          "name": "",
          "type": "uint256[]"
        }
      ],
      "stateMutability": "view",
      "type": "function"
    },
    {
      "inputs": [],
      "name": "governanceToken",
      "outputs": [
        {
          "internalType": "contract IERC20",
          "name": "",
          "type": "address"
        }
      ],
      "stateMutability": "view",
      "type": "function"
    },
    {
      "inputs": [
        {
          "internalType": "uint32",
          "name": "_origin",
          "type": "uint32"
        },
        {
          "internalType": "bytes32",
          "name": "_sender",
          "type": "bytes32"
        },
        {
          "internalType": "bytes",
          "name": "_body",
          "type": "bytes"
        }
      ],
      "name": "handle",
      "outputs": [],
      "stateMutability": "nonpayable",
      "type": "function"
    },
    {
      "inputs": [],
      "name": "igp",
      "outputs": [
        {
          "internalType": "contract IInterchainGasPaymaster",
          "name": "",
          "type": "address"
        }
      ],
      "stateMutability": "view",
      "type": "function"
    },
    {
      "inputs": [],
      "name": "mailbox",
      "outputs": [
        {
          "internalType": "contract IMailbox",
          "name": "",
          "type": "address"
        }
      ],
      "stateMutability": "view",
      "type": "function"
    },
    {
      "inputs": [],
      "name": "owner",
      "outputs": [
        {
          "internalType": "address",
          "name": "",
          "type": "address"
        }
      ],
      "stateMutability": "view",
      "type": "function"
    },
    {
      "inputs": [],
      "name": "proposalCount",
      "outputs": [
        {
          "internalType": "uint256",
          "name": "",
          "type": "uint256"
        }
      ],
      "stateMutability": "view",
      "type": "function"
    },
    {
      "inputs": [
        {
          "internalType": "uint256",
          "name": "",
          "type": "uint256"
        }
      ],
      "name": "proposals",
      "outputs": [
        {
          "internalType": "uint256",
          "name": "id",
          "type": "uint256"
        },
        {
          "internalType": "address",
          "name": "proposer",
          "type": "address"
        },
        {
          "internalType": "string",
          "name": "description",
          "type": "string"
        },
        {
          "internalType": "uint256",
          "name": "forVotes",
          "type": "uint256"
        },
        {
          "internalType": "uint256",
          "name": "againstVotes",
          "type": "uint256"
        },
        {
          "internalType": "uint256",
          "name": "startTime",
          "type": "uint256"
        },
        {
          "internalType": "bool",
          "name": "executed",
          "type": "bool"
        },
        {
          "internalType": "uint32",
          "name": "executionChain",
          "type": "uint32"
        },
        {
          "internalType": "address",
          "name": "target",
          "type": "address"
        },
        {
          "internalType": "bytes",
          "name": "callData",
          "type": "bytes"
        },
        {
          "internalType": "uint32",
          "name": "chainVotesCount",
          "type": "uint32"
        }
      ],
      "stateMutability": "view",
      "type": "function"
    },
    {
      "inputs": [],
      "name": "quorumPercentage",
      "outputs": [
        {
          "internalType": "uint256",
          "name": "",
          "type": "uint256"
        }
      ],
      "stateMutability": "view",
      "type": "function"
    },
    {
      "inputs": [],
      "name": "renounceOwnership",
      "outputs": [],
      "stateMutability": "nonpayable",
      "type": "function"
    },
    {
      "inputs": [
        {
          "internalType": "uint256",
          "name": "",
          "type": "uint256"
        }
      ],
      "name": "supportedChains",
      "outputs": [
        {
          "internalType": "uint32",
          "name": "",
          "type": "uint32"
        }
      ],
      "stateMutability": "view",
      "type": "function"
    },
    {
      "inputs": [
        {
          "internalType": "address",
          "name": "newOwner",
          "type": "address"
        }
      ],
      "name": "transferOwnership",
      "outputs": [],
      "stateMutability": "nonpayable",
      "type": "function"
    },
    {
      "inputs": [],
      "name": "votingPeriod",
      "outputs": [
        {
          "internalType": "uint256",
          "name": "",
          "type": "uint256"
        }
      ],
      "stateMutability": "view",
      "type": "function"
    },
    {
      "inputs": [],
      "name": "withdrawExcessEth",
      "outputs": [],
      "stateMutability": "nonpayable",
      "type": "function"
    }
  ],
  "bytecode": "0x608060405262093a80600555600a6006553480156200001d57600080fd5b5060405162003a0338038062003a03833981810160405281019062000043919062000328565b33600073ffffffffffffffffffffffffffffffffffffffff168173ffffffffffffffffffffffffffffffffffffffff1603620000b95760006040517f1e4fbdf7000000000000000000000000000000000000000000000000000000008152600401620000b09190620003ab565b60405180910390fd5b620000ca81620001b960201b60201c565b5083600160006101000a81548173ffffffffffffffffffffffffffffffffffffffff021916908373ffffffffffffffffffffffffffffffffffffffff16021790555082600260006101000a81548173ffffffffffffffffffffffffffffffffffffffff021916908373ffffffffffffffffffffffffffffffffffffffff16021790555081600360006101000a81548173ffffffffffffffffffffffffffffffffffffffff021916908373ffffffffffffffffffffffffffffffffffffffff16021790555080600760006101000a81548163ffffffff021916908363ffffffff16021790555050505050620003c8565b60008060009054906101000a900473ffffffffffffffffffffffffffffffffffffffff169050816000806101000a81548173ffffffffffffffffffffffffffffffffffffffff021916908373ffffffffffffffffffffffffffffffffffffffff1602179055508173ffffffffffffffffffffffffffffffffffffffff168173ffffffffffffffffffffffffffffffffffffffff167f8be0079c531659141344cd1fd0a4f28419497f9722a3daafe3b4186f6b6457e060405160405180910390a35050565b600080fd5b600073ffffffffffffffffffffffffffffffffffffffff82169050919050565b6000620002af8262000282565b9050919050565b620002c181620002a2565b8114620002cd57600080fd5b50565b600081519050620002e181620002b6565b92915050565b600063ffffffff82169050919050565b6200030281620002e7565b81146200030e57600080fd5b50565b6000815190506200032281620002f7565b92915050565b600080600080608085870312156200034557620003446200027d565b5b60006200035587828801620002d0565b94505060206200036887828801620002d0565b93505060406200037b87828801620002d0565b92505060606200038e8782880162000311565b91505092959194509250565b620003a581620002a2565b82525050565b6000602082019050620003c260008301846200039a565b92915050565b61362b80620003d86000396000f3fe6080604052600436106101145760003560e01c80638da5cb5b116100a0578063da35c66411610064578063da35c66414610378578063dda6a10f146103a3578063f28b2daa146103bf578063f2fde38b146103ea578063f96dae0a1461041357610114565b80638da5cb5b146102b2578063aa62c246146102dd578063b179e1e7146102f9578063b440720d14610324578063d5438eae1461034d57610114565b8063548d496f116100e7578063548d496f146101f35780635584c4f91461023057806356d5d4751461025b578063715018a61461028457806382a00b3c1461029b57610114565b8063013cf08b1461011957806302a251a314610160578063223c951d1461018b5780634fa76ec9146101c8575b600080fd5b34801561012557600080fd5b50610140600480360381019061013b9190611e2e565b61043e565b6040516101579b9a99989796959493929190611fca565b60405180910390f35b34801561016c57600080fd5b50610175610615565b6040516101829190612083565b60405180910390f35b34801561019757600080fd5b506101b260048036038101906101ad91906120ca565b61061b565b6040516101bf9190612110565b60405180910390f35b3480156101d457600080fd5b506101dd610633565b6040516101ea9190612083565b60405180910390f35b3480156101ff57600080fd5b5061021a60048036038101906102159190611e2e565b610639565b604051610227919061212b565b60405180910390f35b34801561023c57600080fd5b50610245610673565b6040516102529190612204565b60405180910390f35b34801561026757600080fd5b50610282600480360381019061027d91906122b7565b610684565b005b34801561029057600080fd5b506102996107a4565b005b3480156102a757600080fd5b506102b06107b8565b005b3480156102be57600080fd5b506102c7610810565b6040516102d4919061232b565b60405180910390f35b6102f760048036038101906102f29190612543565b610839565b005b34801561030557600080fd5b5061030e610bef565b60405161031b919061212b565b60405180910390f35b34801561033057600080fd5b5061034b600480360381019061034691906125e2565b610c05565b005b34801561035957600080fd5b50610362610d20565b60405161036f9190612681565b60405180910390f35b34801561038457600080fd5b5061038d610d46565b60405161039a9190612083565b60405180910390f35b6103bd60048036038101906103b89190611e2e565b610d4c565b005b3480156103cb57600080fd5b506103d4610eff565b6040516103e191906126bd565b60405180910390f35b3480156103f657600080fd5b50610411600480360381019061040c91906126d8565b610f25565b005b34801561041f57600080fd5b50610428610fab565b6040516104359190612726565b60405180910390f35b60086020528060005260406000206000915090508060000154908060010160009054906101000a900473ffffffffffffffffffffffffffffffffffffffff169080600201805461048d90612770565b80601f01602080910402602001604051908101604052809291908181526020018280546104b990612770565b80156105065780601f106104db57610100808354040283529160200191610506565b820191906000526020600020905b8154815290600101906020018083116104e957829003601f168201915b5050505050908060030154908060040154908060050154908060060160009054906101000a900460ff16908060060160019054906101000a900463ffffffff16908060060160059054906101000a900473ffffffffffffffffffffffffffffffffffffffff169080600701805461057c90612770565b80601f01602080910402602001604051908101604052809291908181526020018280546105a890612770565b80156105f55780601f106105ca576101008083540402835291602001916105f5565b820191906000526020600020905b8154815290600101906020018083116105d857829003601f168201915b5050505050908060090160009054906101000a900463ffffffff1690508b565b60055481565b600b6020528060005260406000206000915090505481565b60065481565b600c818154811061064957600080fd5b9060005260206000209060089182820401919006600402915054906101000a900463ffffffff1681565b606061067f6009610fd1565b905090565b600260009054906101000a900473ffffffffffffffffffffffffffffffffffffffff1673ffffffffffffffffffffffffffffffffffffffff163373ffffffffffffffffffffffffffffffffffffffff1614610714576040517f08c379a000000000000000000000000000000000000000000000000000000000815260040161070b90612813565b60405180910390fd5b600b60008563ffffffff1663ffffffff168152602001908152602001600020548314610775576040517f08c379a000000000000000000000000000000000000000000000000000000000815260040161076c9061287f565b60405180910390fd5b60008282810190610786919061289f565b5090506001810361079d5761079c858484610ff2565b5b5050505050565b6107ac6111bb565b6107b66000611242565b565b6107c06111bb565b6107c8610810565b73ffffffffffffffffffffffffffffffffffffffff166108fc479081150290604051600060405180830381858888f1935050505015801561080d573d6000803e3d6000fd5b50565b60008060009054906101000a900473ffffffffffffffffffffffffffffffffffffffff16905090565b6000600160009054906101000a900473ffffffffffffffffffffffffffffffffffffffff1673ffffffffffffffffffffffffffffffffffffffff166370a08231336040518263ffffffff1660e01b8152600401610896919061232b565b602060405180830381865afa1580156108b3573d6000803e3d6000fd5b505050506040513d601f19601f820116820180604052508101906108d79190612910565b11610917576040517f08c379a000000000000000000000000000000000000000000000000000000000815260040161090e906129af565b60405180910390fd5b6004600081548092919061092a906129fe565b9190505550600060086000600454815260200190815260200160002090506004548160000181905550338160010160006101000a81548173ffffffffffffffffffffffffffffffffffffffff021916908373ffffffffffffffffffffffffffffffffffffffff160217905550848160020190816109a79190612be8565b50428160050181905550838160060160016101000a81548163ffffffff021916908363ffffffff160217905550828160060160056101000a81548173ffffffffffffffffffffffffffffffffffffffff021916908373ffffffffffffffffffffffffffffffffffffffff16021790555081816007019081610a289190612d15565b5060008160090160006101000a81548163ffffffff021916908363ffffffff160217905550610a63600454600961130690919063ffffffff16565b506004547f79a06fa3c19f5d47d5ebaf9366d3e6fd2438d612f22645d6aea09b6cd97a890c338787604051610a9a93929190612de7565b60405180910390a26000805b600c80549050811015610b48576000600c8281548110610ac957610ac8612e25565b5b90600052602060002090600891828204019190066004029054906101000a900463ffffffff169050600760009054906101000a900463ffffffff1663ffffffff168163ffffffff1614610b3457610b26816004548a8a8a8a611320565b83610b319190612e54565b92505b508080610b40906129fe565b915050610aa6565b5080341015610b8c576040517f08c379a0000000000000000000000000000000000000000000000000000000008152600401610b8390612ed4565b60405180910390fd5b80341115610be7573373ffffffffffffffffffffffffffffffffffffffff166108fc8234610bba9190612ef4565b9081150290604051600060405180830381858888f19350505050158015610be5573d6000803e3d6000fd5b505b505050505050565b600760009054906101000a900463ffffffff1681565b610c0d6111bb565b6000801b600b60008463ffffffff1663ffffffff1681526020019081526020016000205414610c71576040517f08c379a0000000000000000000000000000000000000000000000000000000008152600401610c6890612f74565b60405180910390fd5b80600b60008463ffffffff1663ffffffff16815260200190815260200160002081905550600c8290806001815401808255809150506001900390600052602060002090600891828204019190066004029091909190916101000a81548163ffffffff021916908363ffffffff1602179055507f80c6704ccc40eeef3efbeaed114bedac0a55ae94dbfddba0804b9b7f431e00518282604051610d14929190612f94565b60405180910390a15050565b600260009054906101000a900473ffffffffffffffffffffffffffffffffffffffff1681565b60045481565b60006008600083815260200190815260200160002090506005548160050154610d759190612e54565b4211610db6576040517f08c379a0000000000000000000000000000000000000000000000000000000008152600401610dad90613009565b60405180910390fd5b8060060160009054906101000a900460ff1615610e08576040517f08c379a0000000000000000000000000000000000000000000000000000000008152600401610dff90613075565b60405180910390fd5b6000805b600c80549050811015610eb6576000600c8281548110610e2f57610e2e612e25565b5b90600052602060002090600891828204019190066004029054906101000a900463ffffffff1690508360080160008263ffffffff1663ffffffff16815260200190815260200160002060009054906101000a900460ff16610ea257610e948186611521565b83610e9f9190612e54565b92505b508080610eae906129fe565b915050610e0c565b5080341015610efa576040517f08c379a0000000000000000000000000000000000000000000000000000000008152600401610ef190612ed4565b60405180910390fd5b505050565b600360009054906101000a900473ffffffffffffffffffffffffffffffffffffffff1681565b610f2d6111bb565b600073ffffffffffffffffffffffffffffffffffffffff168173ffffffffffffffffffffffffffffffffffffffff1603610f9f5760006040517f1e4fbdf7000000000000000000000000000000000000000000000000000000008152600401610f96919061232b565b60405180910390fd5b610fa881611242565b50565b600160009054906101000a900473ffffffffffffffffffffffffffffffffffffffff1681565b60606000610fe1836000016116da565b905060608190508092505050919050565b600080600084848101906110069190613095565b9350935093505060006008600085815260200190815260200160002090508060080160008863ffffffff1663ffffffff16815260200190815260200160002060009054906101000a900460ff1615611093576040517f08c379a000000000000000000000000000000000000000000000000000000000815260040161108a9061316e565b60405180910390fd5b828160030160008282546110a79190612e54565b92505081905550818160040160008282546110c29190612e54565b9250508190555060018160080160008963ffffffff1663ffffffff16815260200190815260200160002060006101000a81548160ff02191690831515021790555080600901600081819054906101000a900463ffffffff16809291906111279061318e565b91906101000a81548163ffffffff021916908363ffffffff16021790555050837f3041511d11da95916f337299a30f01b387a2444bed3a0a00abffe2075014666088858560405161117a939291906131ba565b60405180910390a2600c805490508160090160009054906101000a900463ffffffff1663ffffffff16036111b2576111b184611736565b5b50505050505050565b6111c3611a62565b73ffffffffffffffffffffffffffffffffffffffff166111e1610810565b73ffffffffffffffffffffffffffffffffffffffff161461124057611204611a62565b6040517f118cdaa7000000000000000000000000000000000000000000000000000000008152600401611237919061232b565b60405180910390fd5b565b60008060009054906101000a900473ffffffffffffffffffffffffffffffffffffffff169050816000806101000a81548173ffffffffffffffffffffffffffffffffffffffff021916908373ffffffffffffffffffffffffffffffffffffffff1602179055508173ffffffffffffffffffffffffffffffffffffffff168173ffffffffffffffffffffffffffffffffffffffff167f8be0079c531659141344cd1fd0a4f28419497f9722a3daafe3b4186f6b6457e060405160405180910390a35050565b6000611318836000018360001b611a6a565b905092915050565b6000806000878787878760405160200161133f96959493929190613239565b60405160208183030381529060405290506000600260009054906101000a900473ffffffffffffffffffffffffffffffffffffffff1673ffffffffffffffffffffffffffffffffffffffff16639c42bd188a600b60008d63ffffffff1663ffffffff16815260200190815260200160002054856040518463ffffffff1660e01b81526004016113d0939291906132a8565b602060405180830381865afa1580156113ed573d6000803e3d6000fd5b505050506040513d601f19601f820116820180604052508101906114119190612910565b90506000600260009054906101000a900473ffffffffffffffffffffffffffffffffffffffff1673ffffffffffffffffffffffffffffffffffffffff1663fa31de01838c600b60008f63ffffffff1663ffffffff16815260200190815260200160002054876040518563ffffffff1660e01b8152600401611494939291906132a8565b60206040518083038185885af11580156114b2573d6000803e3d6000fd5b50505050506040513d601f19601f820116820180604052508101906114d791906132fb565b9050887f0b77b812328792f5d2af6a5fe6b2299443f0215da7198d4a1545452b6f0567538b604051611509919061212b565b60405180910390a28193505050509695505050505050565b600080600183604051602001611538929190613363565b60405160208183030381529060405290506000600260009054906101000a900473ffffffffffffffffffffffffffffffffffffffff1673ffffffffffffffffffffffffffffffffffffffff16639c42bd1886600b60008963ffffffff1663ffffffff16815260200190815260200160002054856040518463ffffffff1660e01b81526004016115c9939291906132a8565b602060405180830381865afa1580156115e6573d6000803e3d6000fd5b505050506040513d601f19601f8201168201806040525081019061160a9190612910565b9050600260009054906101000a900473ffffffffffffffffffffffffffffffffffffffff1673ffffffffffffffffffffffffffffffffffffffff1663fa31de018287600b60008a63ffffffff1663ffffffff16815260200190815260200160002054866040518563ffffffff1660e01b815260040161168b939291906132a8565b60206040518083038185885af11580156116a9573d6000803e3d6000fd5b50505050506040513d601f19601f820116820180604052508101906116ce91906132fb565b50809250505092915050565b60608160000180548060200260200160405190810160405280929190818152602001828054801561172a57602002820191906000526020600020905b815481526020019060010190808311611716575b50505050509050919050565b60006008600083815260200190815260200160002090506000816004015482600301546117639190612e54565b905060006064600654600160009054906101000a900473ffffffffffffffffffffffffffffffffffffffff1673ffffffffffffffffffffffffffffffffffffffff166318160ddd6040518163ffffffff1660e01b8152600401602060405180830381865afa1580156117d9573d6000803e3d6000fd5b505050506040513d601f19601f820116820180604052508101906117fd9190612910565b611807919061338c565b61181191906133fd565b905080821015801561182a575082600401548360030154115b15611a5c5760018360060160006101000a81548160ff021916908315150217905550611860846009611ada90919063ffffffff16565b50837f712ae1383f79ac853f8d882153778e0260ef8f03b504e2866e0593e04d2b291f60405160405180910390a260008360060160019054906101000a900463ffffffff1663ffffffff160361198a5760008360060160059054906101000a900473ffffffffffffffffffffffffffffffffffffffff1673ffffffffffffffffffffffffffffffffffffffff16846007016040516118fe91906134bc565b6000604051808303816000865af19150503d806000811461193b576040519150601f19603f3d011682016040523d82523d6000602084013e611940565b606091505b5050905080611984576040517f08c379a000000000000000000000000000000000000000000000000000000000815260040161197b9061351f565b60405180910390fd5b50611a5b565b611a5a8360060160019054906101000a900463ffffffff16858560060160059054906101000a900473ffffffffffffffffffffffffffffffffffffffff168660070180546119d790612770565b80601f0160208091040260200160405190810160405280929190818152602001828054611a0390612770565b8015611a505780601f10611a2557610100808354040283529160200191611a50565b820191906000526020600020905b815481529060010190602001808311611a3357829003601f168201915b5050505050611af4565b5b5b50505050565b600033905090565b6000611a768383611cad565b611acf578260000182908060018154018082558091505060019003906000526020600020016000909190919091505582600001805490508360010160008481526020019081526020016000208190555060019050611ad4565b600090505b92915050565b6000611aec836000018360001b611cd0565b905092915050565b60006002848484604051602001611b0e949392919061357a565b60405160208183030381529060405290506000600260009054906101000a900473ffffffffffffffffffffffffffffffffffffffff1673ffffffffffffffffffffffffffffffffffffffff16639c42bd1887600b60008a63ffffffff1663ffffffff16815260200190815260200160002054856040518463ffffffff1660e01b8152600401611b9f939291906132a8565b602060405180830381865afa158015611bbc573d6000803e3d6000fd5b505050506040513d601f19601f82011682018060405250810190611be09190612910565b9050600260009054906101000a900473ffffffffffffffffffffffffffffffffffffffff1673ffffffffffffffffffffffffffffffffffffffff1663fa31de018288600b60008b63ffffffff1663ffffffff16815260200190815260200160002054866040518563ffffffff1660e01b8152600401611c61939291906132a8565b60206040518083038185885af1158015611c7f573d6000803e3d6000fd5b50505050506040513d601f19601f82011682018060405250810190611ca491906132fb565b50505050505050565b600080836001016000848152602001908152602001600020541415905092915050565b60008083600101600084815260200190815260200160002054905060008114611dd8576000600182611d029190612ef4565b9050600060018660000180549050611d1a9190612ef4565b9050808214611d89576000866000018281548110611d3b57611d3a612e25565b5b9060005260206000200154905080876000018481548110611d5f57611d5e612e25565b5b90600052602060002001819055508387600101600083815260200190815260200160002081905550505b85600001805480611d9d57611d9c6135c6565b5b600190038181906000526020600020016000905590558560010160008681526020019081526020016000206000905560019350505050611dde565b60009150505b92915050565b6000604051905090565b600080fd5b600080fd5b6000819050919050565b611e0b81611df8565b8114611e1657600080fd5b50565b600081359050611e2881611e02565b92915050565b600060208284031215611e4457611e43611dee565b5b6000611e5284828501611e19565b91505092915050565b611e6481611df8565b82525050565b600073ffffffffffffffffffffffffffffffffffffffff82169050919050565b6000611e9582611e6a565b9050919050565b611ea581611e8a565b82525050565b600081519050919050565b600082825260208201905092915050565b60005b83811015611ee5578082015181840152602081019050611eca565b60008484015250505050565b6000601f19601f8301169050919050565b6000611f0d82611eab565b611f178185611eb6565b9350611f27818560208601611ec7565b611f3081611ef1565b840191505092915050565b60008115159050919050565b611f5081611f3b565b82525050565b600063ffffffff82169050919050565b611f6f81611f56565b82525050565b600081519050919050565b600082825260208201905092915050565b6000611f9c82611f75565b611fa68185611f80565b9350611fb6818560208601611ec7565b611fbf81611ef1565b840191505092915050565b600061016082019050611fe0600083018e611e5b565b611fed602083018d611e9c565b8181036040830152611fff818c611f02565b905061200e606083018b611e5b565b61201b608083018a611e5b565b61202860a0830189611e5b565b61203560c0830188611f47565b61204260e0830187611f66565b612050610100830186611e9c565b8181036101208301526120638185611f91565b9050612073610140830184611f66565b9c9b505050505050505050505050565b60006020820190506120986000830184611e5b565b92915050565b6120a781611f56565b81146120b257600080fd5b50565b6000813590506120c48161209e565b92915050565b6000602082840312156120e0576120df611dee565b5b60006120ee848285016120b5565b91505092915050565b6000819050919050565b61210a816120f7565b82525050565b60006020820190506121256000830184612101565b92915050565b60006020820190506121406000830184611f66565b92915050565b600081519050919050565b600082825260208201905092915050565b6000819050602082019050919050565b61217b81611df8565b82525050565b600061218d8383612172565b60208301905092915050565b6000602082019050919050565b60006121b182612146565b6121bb8185612151565b93506121c683612162565b8060005b838110156121f75781516121de8882612181565b97506121e983612199565b9250506001810190506121ca565b5085935050505092915050565b6000602082019050818103600083015261221e81846121a6565b905092915050565b61222f816120f7565b811461223a57600080fd5b50565b60008135905061224c81612226565b92915050565b600080fd5b600080fd5b600080fd5b60008083601f84011261227757612276612252565b5b8235905067ffffffffffffffff81111561229457612293612257565b5b6020830191508360018202830111156122b0576122af61225c565b5b9250929050565b600080600080606085870312156122d1576122d0611dee565b5b60006122df878288016120b5565b94505060206122f08782880161223d565b935050604085013567ffffffffffffffff81111561231157612310611df3565b5b61231d87828801612261565b925092505092959194509250565b60006020820190506123406000830184611e9c565b92915050565b600080fd5b7f4e487b7100000000000000000000000000000000000000000000000000000000600052604160045260246000fd5b61238382611ef1565b810181811067ffffffffffffffff821117156123a2576123a161234b565b5b80604052505050565b60006123b5611de4565b90506123c1828261237a565b919050565b600067ffffffffffffffff8211156123e1576123e061234b565b5b6123ea82611ef1565b9050602081019050919050565b82818337600083830152505050565b6000612419612414846123c6565b6123ab565b90508281526020810184848401111561243557612434612346565b5b6124408482856123f7565b509392505050565b600082601f83011261245d5761245c612252565b5b813561246d848260208601612406565b91505092915050565b61247f81611e8a565b811461248a57600080fd5b50565b60008135905061249c81612476565b92915050565b600067ffffffffffffffff8211156124bd576124bc61234b565b5b6124c682611ef1565b9050602081019050919050565b60006124e66124e1846124a2565b6123ab565b90508281526020810184848401111561250257612501612346565b5b61250d8482856123f7565b509392505050565b600082601f83011261252a57612529612252565b5b813561253a8482602086016124d3565b91505092915050565b6000806000806080858703121561255d5761255c611dee565b5b600085013567ffffffffffffffff81111561257b5761257a611df3565b5b61258787828801612448565b9450506020612598878288016120b5565b93505060406125a98782880161248d565b925050606085013567ffffffffffffffff8111156125ca576125c9611df3565b5b6125d687828801612515565b91505092959194509250565b600080604083850312156125f9576125f8611dee565b5b6000612607858286016120b5565b92505060206126188582860161223d565b9150509250929050565b6000819050919050565b600061264761264261263d84611e6a565b612622565b611e6a565b9050919050565b60006126598261262c565b9050919050565b600061266b8261264e565b9050919050565b61267b81612660565b82525050565b60006020820190506126966000830184612672565b92915050565b60006126a78261264e565b9050919050565b6126b78161269c565b82525050565b60006020820190506126d260008301846126ae565b92915050565b6000602082840312156126ee576126ed611dee565b5b60006126fc8482850161248d565b91505092915050565b60006127108261264e565b9050919050565b61272081612705565b82525050565b600060208201905061273b6000830184612717565b92915050565b7f4e487b7100000000000000000000000000000000000000000000000000000000600052602260045260246000fd5b6000600282049050600182168061278857607f821691505b60208210810361279b5761279a612741565b5b50919050565b7f4f6e6c79204d61696c626f782063616e2063616c6c20746869732066756e637460008201527f696f6e0000000000000000000000000000000000000000000000000000000000602082015250565b60006127fd602383611eb6565b9150612808826127a1565b604082019050919050565b6000602082019050818103600083015261282c816127f0565b9050919050565b7f496e76616c69642073656e646572000000000000000000000000000000000000600082015250565b6000612869600e83611eb6565b915061287482612833565b602082019050919050565b600060208201905081810360008301526128988161285c565b9050919050565b600080604083850312156128b6576128b5611dee565b5b60006128c485828601611e19565b925050602083013567ffffffffffffffff8111156128e5576128e4611df3565b5b6128f185828601612515565b9150509250929050565b60008151905061290a81611e02565b92915050565b60006020828403121561292657612925611dee565b5b6000612934848285016128fb565b91505092915050565b7f4d75737420686f6c6420676f7665726e616e636520746f6b656e7320746f207060008201527f726f706f73650000000000000000000000000000000000000000000000000000602082015250565b6000612999602683611eb6565b91506129a48261293d565b604082019050919050565b600060208201905081810360008301526129c88161298c565b9050919050565b7f4e487b7100000000000000000000000000000000000000000000000000000000600052601160045260246000fd5b6000612a0982611df8565b91507fffffffffffffffffffffffffffffffffffffffffffffffffffffffffffffffff8203612a3b57612a3a6129cf565b5b600182019050919050565b60008190508160005260206000209050919050565b60006020601f8301049050919050565b600082821b905092915050565b600060088302612aa87fffffffffffffffffffffffffffffffffffffffffffffffffffffffffffffffff82612a6b565b612ab28683612a6b565b95508019841693508086168417925050509392505050565b6000612ae5612ae0612adb84611df8565b612622565b611df8565b9050919050565b6000819050919050565b612aff83612aca565b612b13612b0b82612aec565b848454612a78565b825550505050565b600090565b612b28612b1b565b612b33818484612af6565b505050565b5b81811015612b5757612b4c600082612b20565b600181019050612b39565b5050565b601f821115612b9c57612b6d81612a46565b612b7684612a5b565b81016020851015612b85578190505b612b99612b9185612a5b565b830182612b38565b50505b505050565b600082821c905092915050565b6000612bbf60001984600802612ba1565b1980831691505092915050565b6000612bd88383612bae565b9150826002028217905092915050565b612bf182611eab565b67ffffffffffffffff811115612c0a57612c0961234b565b5b612c148254612770565b612c1f828285612b5b565b600060209050601f831160018114612c525760008415612c40578287015190505b612c4a8582612bcc565b865550612cb2565b601f198416612c6086612a46565b60005b82811015612c8857848901518255600182019150602085019450602081019050612c63565b86831015612ca55784890151612ca1601f891682612bae565b8355505b6001600288020188555050505b505050505050565b60008190508160005260206000209050919050565b601f821115612d1057612ce181612cba565b612cea84612a5b565b81016020851015612cf9578190505b612d0d612d0585612a5b565b830182612b38565b50505b505050565b612d1e82611f75565b67ffffffffffffffff811115612d3757612d3661234b565b5b612d418254612770565b612d4c828285612ccf565b600060209050601f831160018114612d7f5760008415612d6d578287015190505b612d778582612bcc565b865550612ddf565b601f198416612d8d86612cba565b60005b82811015612db557848901518255600182019150602085019450602081019050612d90565b86831015612dd25784890151612dce601f891682612bae565b8355505b6001600288020188555050505b505050505050565b6000606082019050612dfc6000830186611e9c565b8181036020830152612e0e8185611f02565b9050612e1d6040830184611f66565b949350505050565b7f4e487b7100000000000000000000000000000000000000000000000000000000600052603260045260246000fd5b6000612e5f82611df8565b9150612e6a83611df8565b9250828201905080821115612e8257612e816129cf565b5b92915050565b7f496e73756666696369656e74206665652070726f766964656400000000000000600082015250565b6000612ebe601983611eb6565b9150612ec982612e88565b602082019050919050565b60006020820190508181036000830152612eed81612eb1565b9050919050565b6000612eff82611df8565b9150612f0a83611df8565b9250828203905081811115612f2257612f216129cf565b5b92915050565b7f436861696e20616c726561647920737570706f72746564000000000000000000600082015250565b6000612f5e601783611eb6565b9150612f6982612f28565b602082019050919050565b60006020820190508181036000830152612f8d81612f51565b9050919050565b6000604082019050612fa96000830185611f66565b612fb66020830184612101565b9392505050565b7f566f74696e6720706572696f64206e6f7420656e646564000000000000000000600082015250565b6000612ff3601783611eb6565b9150612ffe82612fbd565b602082019050919050565b6000602082019050818103600083015261302281612fe6565b9050919050565b7f50726f706f73616c20616c726561647920657865637574656400000000000000600082015250565b600061305f601983611eb6565b915061306a82613029565b602082019050919050565b6000602082019050818103600083015261308e81613052565b9050919050565b600080600080608085870312156130af576130ae611dee565b5b60006130bd87828801611e19565b94505060206130ce87828801611e19565b93505060406130df87828801611e19565b92505060606130f087828801611e19565b91505092959194509250565b7f566f74657320616c726561647920636f6c6c656374656420666f72207468697360008201527f20636861696e0000000000000000000000000000000000000000000000000000602082015250565b6000613158602683611eb6565b9150613163826130fc565b604082019050919050565b600060208201905081810360008301526131878161314b565b9050919050565b600061319982611f56565b915063ffffffff82036131af576131ae6129cf565b5b600182019050919050565b60006060820190506131cf6000830186611f66565b6131dc6020830185611e5b565b6131e96040830184611e5b565b949350505050565b6000819050919050565b600060ff82169050919050565b600061322361321e613219846131f1565b612622565b6131fb565b9050919050565b61323381613208565b82525050565b600060c08201905061324e600083018961322a565b61325b6020830188611e5b565b818103604083015261326d8187611f02565b905061327c6060830186611f66565b6132896080830185611e9c565b81810360a083015261329b8184611f91565b9050979650505050505050565b60006060820190506132bd6000830186611f66565b6132ca6020830185612101565b81810360408301526132dc8184611f91565b9050949350505050565b6000815190506132f581612226565b92915050565b60006020828403121561331157613310611dee565b5b600061331f848285016132e6565b91505092915050565b6000819050919050565b600061334d61334861334384613328565b612622565b6131fb565b9050919050565b61335d81613332565b82525050565b60006040820190506133786000830185613354565b6133856020830184611e5b565b9392505050565b600061339782611df8565b91506133a283611df8565b92508282026133b081611df8565b915082820484148315176133c7576133c66129cf565b5b5092915050565b7f4e487b7100000000000000000000000000000000000000000000000000000000600052601260045260246000fd5b600061340882611df8565b915061341383611df8565b925082613423576134226133ce565b5b828204905092915050565b600081905092915050565b6000815461344681612770565b613450818661342e565b9450600182166000811461346b5760018114613480576134b3565b60ff19831686528115158202860193506134b3565b61348985612cba565b60005b838110156134ab5781548189015260018201915060208101905061348c565b838801955050505b50505092915050565b60006134c88284613439565b915081905092915050565b7f50726f706f73616c20657865637574696f6e206661696c656400000000000000600082015250565b6000613509601983611eb6565b9150613514826134d3565b602082019050919050565b60006020820190508181036000830152613538816134fc565b9050919050565b6000819050919050565b600061356461355f61355a8461353f565b612622565b6131fb565b9050919050565b61357481613549565b82525050565b600060808201905061358f600083018761356b565b61359c6020830186611e5b565b6135a96040830185611e9c565b81810360608301526135bb8184611f91565b905095945050505050565b7f4e487b7100000000000000000000000000000000000000000000000000000000600052603160045260246000fdfea26469706673582212201a14d19046f8b019b4ad1785160a044fe324ae505f05ad91a1e90d34a2623a1664736f6c63430008140033",
  "linkReferences": {},
  "deployedLinkReferences": {}
}