{
  "_format": "hh-sol-artifact-1",
  "contractName": "GovernanceProxy",
  "sourceName": "contracts/GovernanceProxy.sol",
  "abi": [
    {
      "inputs": [
        {
          "internalType": "address",
          "name": "_mailbox",
          "type": "address"
        },
        {
          "internalType": "address",
          "name": "_governanceToken",
          "type": "address"
        },
        {
          "internalType": "uint32",
          "name": "_homeDomain",
          "type": "uint32"
        },
        {
          "internalType": "bytes32",
          "name": "_homeCoreAddress",
          "type": "bytes32"
        }
      ],
      "stateMutability": "nonpayable",
      "type": "constructor"
    },
    {
      "anonymous": false,
      "inputs": [
        {
          "indexed": false,
          "internalType": "uint256",
          "name": "proposalId",
          "type": "uint256"
        }
      ],
      "name": "ProposalExecuted",
      "type": "event"
    },
    {
      "anonymous": false,
      "inputs": [
        {
          "indexed": false,
          "internalType": "uint256",
          "name": "proposalId",
          "type": "uint256"
        },
        {
          "indexed": false,
          "internalType": "string",
          "name": "description",
          "type": "string"
        },
        {
          "indexed": false,
          "internalType": "uint32",
          "name": "executionChain",
          "type": "uint32"
        }
      ],
      "name": "ProposalReceived",
      "type": "event"
    },
    {
      "anonymous": false,
      "inputs": [
        {
          "indexed": false,
          "internalType": "uint256",
          "name": "proposalId",
          "type": "uint256"
        },
        {
          "indexed": false,
          "internalType": "address",
          "name": "voter",
          "type": "address"
        },
        {
          "indexed": false,
          "internalType": "bool",
          "name": "support",
          "type": "bool"
        },
        {
          "indexed": false,
          "internalType": "uint256",
          "name": "weight",
          "type": "uint256"
        }
      ],
      "name": "Voted",
      "type": "event"
    },
    {
      "anonymous": false,
      "inputs": [
        {
          "indexed": false,
          "internalType": "uint256",
          "name": "proposalId",
          "type": "uint256"
        },
        {
          "indexed": false,
          "internalType": "uint256",
          "name": "forVotes",
          "type": "uint256"
        },
        {
          "indexed": false,
          "internalType": "uint256",
          "name": "againstVotes",
          "type": "uint256"
        }
      ],
      "name": "VotesCollected",
      "type": "event"
    },
    {
      "inputs": [],
      "name": "getActiveProposals",
      "outputs": [
        {
          "internalType": "uint256[]",
          "name": "",
          "type": "uint256[]"
        }
      ],
      "stateMutability": "view",
      "type": "function"
    },
    {
      "inputs": [],
      "name": "governanceToken",
      "outputs": [
        {
          "internalType": "contract IGovernanceToken",
          "name": "",
          "type": "address"
        }
      ],
      "stateMutability": "view",
      "type": "function"
    },
    {
      "inputs": [
        {
          "internalType": "uint32",
          "name": "_origin",
          "type": "uint32"
        },
        {
          "internalType": "bytes32",
          "name": "_sender",
          "type": "bytes32"
        },
        {
          "internalType": "bytes",
          "name": "_body",
          "type": "bytes"
        }
      ],
      "name": "handle",
      "outputs": [],
      "stateMutability": "nonpayable",
      "type": "function"
    },
    {
      "inputs": [],
      "name": "homeCoreAddress",
      "outputs": [
        {
          "internalType": "bytes32",
          "name": "",
          "type": "bytes32"
        }
      ],
      "stateMutability": "view",
      "type": "function"
    },
    {
      "inputs": [],
      "name": "homeDomain",
      "outputs": [
        {
          "internalType": "uint32",
          "name": "",
          "type": "uint32"
        }
      ],
      "stateMutability": "view",
      "type": "function"
    },
    {
      "inputs": [],
      "name": "mailbox",
      "outputs": [
        {
          "internalType": "contract IMailbox",
          "name": "",
          "type": "address"
        }
      ],
      "stateMutability": "view",
      "type": "function"
    },
    {
      "inputs": [],
      "name": "owner",
      "outputs": [
        {
          "internalType": "address",
          "name": "",
          "type": "address"
        }
      ],
      "stateMutability": "view",
      "type": "function"
    },
    {
      "inputs": [
        {
          "internalType": "uint256",
          "name": "",
          "type": "uint256"
        }
      ],
      "name": "proposals",
      "outputs": [
        {
          "internalType": "uint256",
          "name": "id",
          "type": "uint256"
        },
        {
          "internalType": "string",
          "name": "description",
          "type": "string"
        },
        {
          "internalType": "uint256",
          "name": "forVotes",
          "type": "uint256"
        },
        {
          "internalType": "uint256",
          "name": "againstVotes",
          "type": "uint256"
        },
        {
          "internalType": "uint256",
          "name": "startTime",
          "type": "uint256"
        },
        {
          "internalType": "uint256",
          "name": "endTime",
          "type": "uint256"
        },
        {
          "internalType": "uint32",
          "name": "executionChain",
          "type": "uint32"
        },
        {
          "internalType": "address",
          "name": "target",
          "type": "address"
        },
        {
          "internalType": "bytes",
          "name": "callData",
          "type": "bytes"
        },
        {
          "internalType": "bool",
          "name": "executed",
          "type": "bool"
        }
      ],
      "stateMutability": "view",
      "type": "function"
    },
    {
      "inputs": [
        {
          "internalType": "bytes32",
          "name": "_homeCoreAddress",
          "type": "bytes32"
        }
      ],
      "name": "setHomeCoreAddress",
      "outputs": [],
      "stateMutability": "nonpayable",
      "type": "function"
    },
    {
      "inputs": [
        {
          "internalType": "uint256",
          "name": "proposalId",
          "type": "uint256"
        },
        {
          "internalType": "bool",
          "name": "support",
          "type": "bool"
        }
      ],
      "name": "vote",
      "outputs": [],
      "stateMutability": "nonpayable",
      "type": "function"
    }
  ],
  "bytecode": "0x60806040523480156200001157600080fd5b50604051620029cb380380620029cb833981810160405281019062000037919062000211565b336000806101000a81548173ffffffffffffffffffffffffffffffffffffffff021916908373ffffffffffffffffffffffffffffffffffffffff16021790555083600160006101000a81548173ffffffffffffffffffffffffffffffffffffffff021916908373ffffffffffffffffffffffffffffffffffffffff16021790555082600260006101000a81548173ffffffffffffffffffffffffffffffffffffffff021916908373ffffffffffffffffffffffffffffffffffffffff16021790555081600260146101000a81548163ffffffff021916908363ffffffff160217905550806003819055505050505062000283565b600080fd5b600073ffffffffffffffffffffffffffffffffffffffff82169050919050565b60006200015d8262000130565b9050919050565b6200016f8162000150565b81146200017b57600080fd5b50565b6000815190506200018f8162000164565b92915050565b600063ffffffff82169050919050565b620001b08162000195565b8114620001bc57600080fd5b50565b600081519050620001d081620001a5565b92915050565b6000819050919050565b620001eb81620001d6565b8114620001f757600080fd5b50565b6000815190506200020b81620001e0565b92915050565b600080600080608085870312156200022e576200022d6200012b565b5b60006200023e878288016200017e565b945050602062000251878288016200017e565b93505060406200026487828801620001bf565b92505060606200027787828801620001fa565b91505092959194509250565b61273880620002936000396000f3fe608060405234801561001057600080fd5b506004361061009e5760003560e01c80639d21af38116100665780639d21af3814610152578063c9d27afe1461016e578063d1437b8d1461018a578063d5438eae146101a8578063f96dae0a146101c65761009e565b8063013cf08b146100a35780635584c4f9146100dc57806356d5d475146100fa57806381786725146101165780638da5cb5b14610134575b600080fd5b6100bd60048036038101906100b89190610fee565b6101e4565b6040516100d39a9998979695949392919061118a565b60405180910390f35b6100e4610385565b6040516100f191906112f2565b60405180910390f35b610114600480360381019061010f91906113db565b6103dd565b005b61011e61054e565b60405161012b919061144f565b60405180910390f35b61013c610564565b604051610149919061146a565b60405180910390f35b61016c60048036038101906101679190611485565b610588565b005b610188600480360381019061018391906114de565b610620565b005b610192610916565b60405161019f919061152d565b60405180910390f35b6101b061091c565b6040516101bd91906115a7565b60405180910390f35b6101ce610942565b6040516101db91906115e3565b60405180910390f35b600460205280600052604060002060009150905080600001549080600101805461020d9061162d565b80601f01602080910402602001604051908101604052809291908181526020018280546102399061162d565b80156102865780601f1061025b57610100808354040283529160200191610286565b820191906000526020600020905b81548152906001019060200180831161026957829003601f168201915b5050505050908060020154908060030154908060040154908060050154908060060160009054906101000a900463ffffffff16908060060160049054906101000a900473ffffffffffffffffffffffffffffffffffffffff16908060070180546102ef9061162d565b80601f016020809104026020016040519081016040528092919081815260200182805461031b9061162d565b80156103685780601f1061033d57610100808354040283529160200191610368565b820191906000526020600020905b81548152906001019060200180831161034b57829003601f168201915b5050505050908060080160009054906101000a900460ff1690508a565b606060058054806020026020016040519081016040528092919081815260200182805480156103d357602002820191906000526020600020905b8154815260200190600101908083116103bf575b5050505050905090565b600160009054906101000a900473ffffffffffffffffffffffffffffffffffffffff1673ffffffffffffffffffffffffffffffffffffffff163373ffffffffffffffffffffffffffffffffffffffff161461046d576040517f08c379a0000000000000000000000000000000000000000000000000000000008152600401610464906116d0565b60405180910390fd5b60035483146104b1576040517f08c379a00000000000000000000000000000000000000000000000000000000081526004016104a89061173c565b60405180910390fd5b600082828101906104c2919061188c565b509050600081036104dc576104d78383610968565b610547565b600181036104f3576104ee8383610b1b565b610546565b6002810361050a576105058383610dcf565b610545565b6040517f08c379a000000000000000000000000000000000000000000000000000000000815260040161053c90611934565b60405180910390fd5b5b5b5050505050565b600260149054906101000a900463ffffffff1681565b60008054906101000a900473ffffffffffffffffffffffffffffffffffffffff1681565b60008054906101000a900473ffffffffffffffffffffffffffffffffffffffff1673ffffffffffffffffffffffffffffffffffffffff163373ffffffffffffffffffffffffffffffffffffffff1614610616576040517f08c379a000000000000000000000000000000000000000000000000000000000815260040161060d906119c6565b60405180910390fd5b8060038190555050565b6000600460008481526020019081526020016000209050600081600001540361067e576040517f08c379a000000000000000000000000000000000000000000000000000000000815260040161067590611a32565b60405180910390fd5b8060090160003373ffffffffffffffffffffffffffffffffffffffff1673ffffffffffffffffffffffffffffffffffffffff16815260200190815260200160002060009054906101000a900460ff161561070d576040517f08c379a000000000000000000000000000000000000000000000000000000000815260040161070490611a9e565b60405180910390fd5b8060050154421115610754576040517f08c379a000000000000000000000000000000000000000000000000000000000815260040161074b90611b0a565b60405180910390fd5b6000600260009054906101000a900473ffffffffffffffffffffffffffffffffffffffff1673ffffffffffffffffffffffffffffffffffffffff166370a08231336040518263ffffffff1660e01b81526004016107b1919061146a565b602060405180830381865afa1580156107ce573d6000803e3d6000fd5b505050506040513d601f19601f820116820180604052508101906107f29190611b3f565b905060008111610837576040517f08c379a000000000000000000000000000000000000000000000000000000000815260040161082e90611bb8565b60405180910390fd5b821561085d57808260020160008282546108519190611c07565b92505081905550610879565b808260030160008282546108719190611c07565b925050819055505b60018260090160003373ffffffffffffffffffffffffffffffffffffffff1673ffffffffffffffffffffffffffffffffffffffff16815260200190815260200160002060006101000a81548160ff0219169083151502179055507f7c2de587c00d75474a0c6c6fa96fd3b45dc974cd4e8a75f712bb84c950dce1b5843385846040516109089493929190611c3b565b60405180910390a150505050565b60035481565b600160009054906101000a900473ffffffffffffffffffffffffffffffffffffffff1681565b600260009054906101000a900473ffffffffffffffffffffffffffffffffffffffff1681565b6000806000806000868681019061097f9190611d5f565b955095509550955095505060006004600087815260200190815260200160002060000154146109e3576040517f08c379a00000000000000000000000000000000000000000000000000000000081526004016109da90611e70565b60405180910390fd5b600060046000878152602001908152602001600020905085816000018190555084816001019081610a149190612032565b5042816004018190555062093a8042610a2d9190611c07565b8160050181905550838160060160006101000a81548163ffffffff021916908363ffffffff160217905550828160060160046101000a81548173ffffffffffffffffffffffffffffffffffffffff021916908373ffffffffffffffffffffffffffffffffffffffff16021790555081816007019081610aac919061215f565b5060058690806001815401808255809150506001900390600052602060002001600090919091909150557f4ba44b2f2cc6680ddb07ed1cbfec32eea742383066950efcb2305eab868e2161868686604051610b0993929190612231565b60405180910390a15050505050505050565b60008282810190610b2c919061226f565b91505060006004600083815260200190815260200160002090506000816000015403610b8d576040517f08c379a0000000000000000000000000000000000000000000000000000000008152600401610b8490611a32565b60405180910390fd5b80600501544211610bd3576040517f08c379a0000000000000000000000000000000000000000000000000000000008152600401610bca906122fb565b60405180910390fd5b60005b600580549050811015610c9a578260058281548110610bf857610bf761231b565b5b906000526020600020015403610c875760056001600580549050610c1c919061234a565b81548110610c2d57610c2c61231b565b5b906000526020600020015460058281548110610c4c57610c4b61231b565b5b90600052602060002001819055506005805480610c6c57610c6b61237e565b5b60019003818190600052602060002001600090559055610c9a565b8080610c92906123ad565b915050610bd6565b50600060018383600201548460030154604051602001610cbd949392919061243d565b6040516020818303038152906040529050600160009054906101000a900473ffffffffffffffffffffffffffffffffffffffff1673ffffffffffffffffffffffffffffffffffffffff1663fa31de01600260149054906101000a900463ffffffff16600354846040518463ffffffff1660e01b8152600401610d4193929190612482565b6020604051808303816000875af1158015610d60573d6000803e3d6000fd5b505050506040513d601f19601f82011682018060405250810190610d8491906124d5565b507fb7a878643a82614f0ad3432ea0a03b82104efdb339035148b3655609341a37d48383600201548460030154604051610dc093929190612502565b60405180910390a15050505050565b60008060008484810190610de39190612539565b9350935093505060006004600085815260200190815260200160002090506000816000015403610e48576040517f08c379a0000000000000000000000000000000000000000000000000000000008152600401610e3f90611a32565b60405180910390fd5b8060080160009054906101000a900460ff1615610e9a576040517f08c379a0000000000000000000000000000000000000000000000000000000008152600401610e9190612608565b60405180910390fd5b60018160080160006101000a81548160ff02191690831515021790555060008373ffffffffffffffffffffffffffffffffffffffff1683604051610ede9190612664565b6000604051808303816000865af19150503d8060008114610f1b576040519150601f19603f3d011682016040523d82523d6000602084013e610f20565b606091505b5050905080610f64576040517f08c379a0000000000000000000000000000000000000000000000000000000008152600401610f5b906126c7565b60405180910390fd5b7f712ae1383f79ac853f8d882153778e0260ef8f03b504e2866e0593e04d2b291f85604051610f9391906126e7565b60405180910390a150505050505050565b6000604051905090565b600080fd5b600080fd5b6000819050919050565b610fcb81610fb8565b8114610fd657600080fd5b50565b600081359050610fe881610fc2565b92915050565b60006020828403121561100457611003610fae565b5b600061101284828501610fd9565b91505092915050565b61102481610fb8565b82525050565b600081519050919050565b600082825260208201905092915050565b60005b83811015611064578082015181840152602081019050611049565b60008484015250505050565b6000601f19601f8301169050919050565b600061108c8261102a565b6110968185611035565b93506110a6818560208601611046565b6110af81611070565b840191505092915050565b600063ffffffff82169050919050565b6110d3816110ba565b82525050565b600073ffffffffffffffffffffffffffffffffffffffff82169050919050565b6000611104826110d9565b9050919050565b611114816110f9565b82525050565b600081519050919050565b600082825260208201905092915050565b60006111418261111a565b61114b8185611125565b935061115b818560208601611046565b61116481611070565b840191505092915050565b60008115159050919050565b6111848161116f565b82525050565b6000610140820190506111a0600083018d61101b565b81810360208301526111b2818c611081565b90506111c1604083018b61101b565b6111ce606083018a61101b565b6111db608083018961101b565b6111e860a083018861101b565b6111f560c08301876110ca565b61120260e083018661110b565b8181036101008301526112158185611136565b905061122561012083018461117b565b9b9a5050505050505050505050565b600081519050919050565b600082825260208201905092915050565b6000819050602082019050919050565b61126981610fb8565b82525050565b600061127b8383611260565b60208301905092915050565b6000602082019050919050565b600061129f82611234565b6112a9818561123f565b93506112b483611250565b8060005b838110156112e55781516112cc888261126f565b97506112d783611287565b9250506001810190506112b8565b5085935050505092915050565b6000602082019050818103600083015261130c8184611294565b905092915050565b61131d816110ba565b811461132857600080fd5b50565b60008135905061133a81611314565b92915050565b6000819050919050565b61135381611340565b811461135e57600080fd5b50565b6000813590506113708161134a565b92915050565b600080fd5b600080fd5b600080fd5b60008083601f84011261139b5761139a611376565b5b8235905067ffffffffffffffff8111156113b8576113b761137b565b5b6020830191508360018202830111156113d4576113d3611380565b5b9250929050565b600080600080606085870312156113f5576113f4610fae565b5b60006114038782880161132b565b945050602061141487828801611361565b935050604085013567ffffffffffffffff81111561143557611434610fb3565b5b61144187828801611385565b925092505092959194509250565b600060208201905061146460008301846110ca565b92915050565b600060208201905061147f600083018461110b565b92915050565b60006020828403121561149b5761149a610fae565b5b60006114a984828501611361565b91505092915050565b6114bb8161116f565b81146114c657600080fd5b50565b6000813590506114d8816114b2565b92915050565b600080604083850312156114f5576114f4610fae565b5b600061150385828601610fd9565b9250506020611514858286016114c9565b9150509250929050565b61152781611340565b82525050565b6000602082019050611542600083018461151e565b92915050565b6000819050919050565b600061156d611568611563846110d9565b611548565b6110d9565b9050919050565b600061157f82611552565b9050919050565b600061159182611574565b9050919050565b6115a181611586565b82525050565b60006020820190506115bc6000830184611598565b92915050565b60006115cd82611574565b9050919050565b6115dd816115c2565b82525050565b60006020820190506115f860008301846115d4565b92915050565b7f4e487b7100000000000000000000000000000000000000000000000000000000600052602260045260246000fd5b6000600282049050600182168061164557607f821691505b602082108103611658576116576115fe565b5b50919050565b7f4f6e6c79204d61696c626f782063616e2063616c6c20746869732066756e637460008201527f696f6e0000000000000000000000000000000000000000000000000000000000602082015250565b60006116ba602383611035565b91506116c58261165e565b604082019050919050565b600060208201905081810360008301526116e9816116ad565b9050919050565b7f496e76616c69642073656e646572000000000000000000000000000000000000600082015250565b6000611726600e83611035565b9150611731826116f0565b602082019050919050565b6000602082019050818103600083015261175581611719565b9050919050565b600080fd5b7f4e487b7100000000000000000000000000000000000000000000000000000000600052604160045260246000fd5b61179982611070565b810181811067ffffffffffffffff821117156117b8576117b7611761565b5b80604052505050565b60006117cb610fa4565b90506117d78282611790565b919050565b600067ffffffffffffffff8211156117f7576117f6611761565b5b61180082611070565b9050602081019050919050565b82818337600083830152505050565b600061182f61182a846117dc565b6117c1565b90508281526020810184848401111561184b5761184a61175c565b5b61185684828561180d565b509392505050565b600082601f83011261187357611872611376565b5b813561188384826020860161181c565b91505092915050565b600080604083850312156118a3576118a2610fae565b5b60006118b185828601610fd9565b925050602083013567ffffffffffffffff8111156118d2576118d1610fb3565b5b6118de8582860161185e565b9150509250929050565b7f496e76616c696420616374696f6e207479706500000000000000000000000000600082015250565b600061191e601383611035565b9150611929826118e8565b602082019050919050565b6000602082019050818103600083015261194d81611911565b9050919050565b7f4f6e6c79206f776e65722063616e2063616c6c20746869732066756e6374696f60008201527f6e00000000000000000000000000000000000000000000000000000000000000602082015250565b60006119b0602183611035565b91506119bb82611954565b604082019050919050565b600060208201905081810360008301526119df816119a3565b9050919050565b7f50726f706f73616c20646f6573206e6f74206578697374000000000000000000600082015250565b6000611a1c601783611035565b9150611a27826119e6565b602082019050919050565b60006020820190508181036000830152611a4b81611a0f565b9050919050565b7f416c726561647920766f74656400000000000000000000000000000000000000600082015250565b6000611a88600d83611035565b9150611a9382611a52565b602082019050919050565b60006020820190508181036000830152611ab781611a7b565b9050919050565b7f566f74696e6720706572696f6420656e64656400000000000000000000000000600082015250565b6000611af4601383611035565b9150611aff82611abe565b602082019050919050565b60006020820190508181036000830152611b2381611ae7565b9050919050565b600081519050611b3981610fc2565b92915050565b600060208284031215611b5557611b54610fae565b5b6000611b6384828501611b2a565b91505092915050565b7f4e6f20766f74696e6720706f7765720000000000000000000000000000000000600082015250565b6000611ba2600f83611035565b9150611bad82611b6c565b602082019050919050565b60006020820190508181036000830152611bd181611b95565b9050919050565b7f4e487b7100000000000000000000000000000000000000000000000000000000600052601160045260246000fd5b6000611c1282610fb8565b9150611c1d83610fb8565b9250828201905080821115611c3557611c34611bd8565b5b92915050565b6000608082019050611c50600083018761101b565b611c5d602083018661110b565b611c6a604083018561117b565b611c77606083018461101b565b95945050505050565b600067ffffffffffffffff821115611c9b57611c9a611761565b5b611ca482611070565b9050602081019050919050565b6000611cc4611cbf84611c80565b6117c1565b905082815260208101848484011115611ce057611cdf61175c565b5b611ceb84828561180d565b509392505050565b600082601f830112611d0857611d07611376565b5b8135611d18848260208601611cb1565b91505092915050565b6000611d2c826110d9565b9050919050565b611d3c81611d21565b8114611d4757600080fd5b50565b600081359050611d5981611d33565b92915050565b60008060008060008060c08789031215611d7c57611d7b610fae565b5b6000611d8a89828a01610fd9565b9650506020611d9b89828a01610fd9565b955050604087013567ffffffffffffffff811115611dbc57611dbb610fb3565b5b611dc889828a01611cf3565b9450506060611dd989828a0161132b565b9350506080611dea89828a01611d4a565b92505060a087013567ffffffffffffffff811115611e0b57611e0a610fb3565b5b611e1789828a0161185e565b9150509295509295509295565b7f50726f706f73616c20616c726561647920657869737473000000000000000000600082015250565b6000611e5a601783611035565b9150611e6582611e24565b602082019050919050565b60006020820190508181036000830152611e8981611e4d565b9050919050565b60008190508160005260206000209050919050565b60006020601f8301049050919050565b600082821b905092915050565b600060088302611ef27fffffffffffffffffffffffffffffffffffffffffffffffffffffffffffffffff82611eb5565b611efc8683611eb5565b95508019841693508086168417925050509392505050565b6000611f2f611f2a611f2584610fb8565b611548565b610fb8565b9050919050565b6000819050919050565b611f4983611f14565b611f5d611f5582611f36565b848454611ec2565b825550505050565b600090565b611f72611f65565b611f7d818484611f40565b505050565b5b81811015611fa157611f96600082611f6a565b600181019050611f83565b5050565b601f821115611fe657611fb781611e90565b611fc084611ea5565b81016020851015611fcf578190505b611fe3611fdb85611ea5565b830182611f82565b50505b505050565b600082821c905092915050565b600061200960001984600802611feb565b1980831691505092915050565b60006120228383611ff8565b9150826002028217905092915050565b61203b8261102a565b67ffffffffffffffff81111561205457612053611761565b5b61205e825461162d565b612069828285611fa5565b600060209050601f83116001811461209c576000841561208a578287015190505b6120948582612016565b8655506120fc565b601f1984166120aa86611e90565b60005b828110156120d2578489015182556001820191506020850194506020810190506120ad565b868310156120ef57848901516120eb601f891682611ff8565b8355505b6001600288020188555050505b505050505050565b60008190508160005260206000209050919050565b601f82111561215a5761212b81612104565b61213484611ea5565b81016020851015612143578190505b61215761214f85611ea5565b830182611f82565b50505b505050565b6121688261111a565b67ffffffffffffffff81111561218157612180611761565b5b61218b825461162d565b612196828285612119565b600060209050601f8311600181146121c957600084156121b7578287015190505b6121c18582612016565b865550612229565b601f1984166121d786612104565b60005b828110156121ff578489015182556001820191506020850194506020810190506121da565b8683101561221c5784890151612218601f891682611ff8565b8355505b6001600288020188555050505b505050505050565b6000606082019050612246600083018661101b565b81810360208301526122588185611081565b905061226760408301846110ca565b949350505050565b6000806040838503121561228657612285610fae565b5b600061229485828601610fd9565b92505060206122a585828601610fd9565b9150509250929050565b7f566f74696e6720706572696f64206e6f7420656e646564000000000000000000600082015250565b60006122e5601783611035565b91506122f0826122af565b602082019050919050565b60006020820190508181036000830152612314816122d8565b9050919050565b7f4e487b7100000000000000000000000000000000000000000000000000000000600052603260045260246000fd5b600061235582610fb8565b915061236083610fb8565b925082820390508181111561237857612377611bd8565b5b92915050565b7f4e487b7100000000000000000000000000000000000000000000000000000000600052603160045260246000fd5b60006123b882610fb8565b91507fffffffffffffffffffffffffffffffffffffffffffffffffffffffffffffffff82036123ea576123e9611bd8565b5b600182019050919050565b6000819050919050565b600060ff82169050919050565b600061242761242261241d846123f5565b611548565b6123ff565b9050919050565b6124378161240c565b82525050565b6000608082019050612452600083018761242e565b61245f602083018661101b565b61246c604083018561101b565b612479606083018461101b565b95945050505050565b600060608201905061249760008301866110ca565b6124a4602083018561151e565b81810360408301526124b68184611136565b9050949350505050565b6000815190506124cf8161134a565b92915050565b6000602082840312156124eb576124ea610fae565b5b60006124f9848285016124c0565b91505092915050565b6000606082019050612517600083018661101b565b612524602083018561101b565b612531604083018461101b565b949350505050565b6000806000806080858703121561255357612552610fae565b5b600061256187828801610fd9565b945050602061257287828801610fd9565b935050604061258387828801611d4a565b925050606085013567ffffffffffffffff8111156125a4576125a3610fb3565b5b6125b08782880161185e565b91505092959194509250565b7f50726f706f73616c20616c726561647920657865637574656400000000000000600082015250565b60006125f2601983611035565b91506125fd826125bc565b602082019050919050565b60006020820190508181036000830152612621816125e5565b9050919050565b600081905092915050565b600061263e8261111a565b6126488185612628565b9350612658818560208601611046565b80840191505092915050565b60006126708284612633565b915081905092915050565b7f50726f706f73616c20657865637574696f6e206661696c656400000000000000600082015250565b60006126b1601983611035565b91506126bc8261267b565b602082019050919050565b600060208201905081810360008301526126e0816126a4565b9050919050565b60006020820190506126fc600083018461101b565b9291505056fea2646970667358221220fef93c18603de4cb89463cb02a05a88255d7443abca9342827c8b6fd23bd804064736f6c63430008140033",
  "linkReferences": {},
  "deployedLinkReferences": {}
}