{
  "_format": "hh-sol-artifact-1",
  "contractName": "GovernanceProxy",
  "sourceName": "contracts/GovernanceProxy.sol",
  "abi": [
    {
      "inputs": [
        {
          "internalType": "address",
          "name": "_mailbox",
          "type": "address"
        },
        {
          "internalType": "address",
          "name": "_governanceToken",
          "type": "address"
        },
        {
          "internalType": "uint32",
          "name": "_homeDomain",
          "type": "uint32"
        },
        {
          "internalType": "bytes32",
          "name": "_homeCoreAddress",
          "type": "bytes32"
        }
      ],
      "stateMutability": "nonpayable",
      "type": "constructor"
    },
    {
      "anonymous": false,
      "inputs": [
        {
          "indexed": false,
          "internalType": "uint256",
          "name": "proposalId",
          "type": "uint256"
        }
      ],
      "name": "ProposalExecuted",
      "type": "event"
    },
    {
      "anonymous": false,
      "inputs": [
        {
          "indexed": false,
          "internalType": "uint256",
          "name": "proposalId",
          "type": "uint256"
        },
        {
          "indexed": false,
          "internalType": "string",
          "name": "description",
          "type": "string"
        },
        {
          "indexed": false,
          "internalType": "uint32",
          "name": "executionChain",
          "type": "uint32"
        }
      ],
      "name": "ProposalReceived",
      "type": "event"
    },
    {
      "anonymous": false,
      "inputs": [
        {
          "indexed": false,
          "internalType": "uint256",
          "name": "proposalId",
          "type": "uint256"
        },
        {
          "indexed": false,
          "internalType": "address",
          "name": "voter",
          "type": "address"
        },
        {
          "indexed": false,
          "internalType": "bool",
          "name": "support",
          "type": "bool"
        },
        {
          "indexed": false,
          "internalType": "uint256",
          "name": "weight",
          "type": "uint256"
        }
      ],
      "name": "Voted",
      "type": "event"
    },
    {
      "anonymous": false,
      "inputs": [
        {
          "indexed": false,
          "internalType": "uint256",
          "name": "proposalId",
          "type": "uint256"
        },
        {
          "indexed": false,
          "internalType": "uint256",
          "name": "forVotes",
          "type": "uint256"
        },
        {
          "indexed": false,
          "internalType": "uint256",
          "name": "againstVotes",
          "type": "uint256"
        }
      ],
      "name": "VotesCollected",
      "type": "event"
    },
    {
      "inputs": [
        {
          "internalType": "uint256",
          "name": "",
          "type": "uint256"
        }
      ],
      "name": "activeProposalIds",
      "outputs": [
        {
          "internalType": "uint256",
          "name": "",
          "type": "uint256"
        }
      ],
      "stateMutability": "view",
      "type": "function"
    },
    {
      "inputs": [],
      "name": "getActiveProposals",
      "outputs": [
        {
          "components": [
            {
              "internalType": "uint256",
              "name": "id",
              "type": "uint256"
            },
            {
              "internalType": "address",
              "name": "proposer",
              "type": "address"
            },
            {
              "internalType": "string",
              "name": "description",
              "type": "string"
            },
            {
              "internalType": "uint256",
              "name": "forVotes",
              "type": "uint256"
            },
            {
              "internalType": "uint256",
              "name": "againstVotes",
              "type": "uint256"
            },
            {
              "internalType": "uint256",
              "name": "startTime",
              "type": "uint256"
            },
            {
              "internalType": "uint256",
              "name": "endTime",
              "type": "uint256"
            },
            {
              "internalType": "uint32",
              "name": "executionChain",
              "type": "uint32"
            },
            {
              "internalType": "address",
              "name": "target",
              "type": "address"
            },
            {
              "internalType": "bytes",
              "name": "callData",
              "type": "bytes"
            },
            {
              "internalType": "bool",
              "name": "executed",
              "type": "bool"
            }
          ],
          "internalType": "struct GovernanceProxy.ProposalInfo[]",
          "name": "",
          "type": "tuple[]"
        }
      ],
      "stateMutability": "view",
      "type": "function"
    },
    {
      "inputs": [],
      "name": "governanceToken",
      "outputs": [
        {
          "internalType": "contract IGovernanceToken",
          "name": "",
          "type": "address"
        }
      ],
      "stateMutability": "view",
      "type": "function"
    },
    {
      "inputs": [
        {
          "internalType": "uint32",
          "name": "_origin",
          "type": "uint32"
        },
        {
          "internalType": "bytes32",
          "name": "_sender",
          "type": "bytes32"
        },
        {
          "internalType": "bytes",
          "name": "_body",
          "type": "bytes"
        }
      ],
      "name": "handle",
      "outputs": [],
      "stateMutability": "nonpayable",
      "type": "function"
    },
    {
      "inputs": [],
      "name": "homeCoreAddress",
      "outputs": [
        {
          "internalType": "bytes32",
          "name": "",
          "type": "bytes32"
        }
      ],
      "stateMutability": "view",
      "type": "function"
    },
    {
      "inputs": [],
      "name": "homeDomain",
      "outputs": [
        {
          "internalType": "uint32",
          "name": "",
          "type": "uint32"
        }
      ],
      "stateMutability": "view",
      "type": "function"
    },
    {
      "inputs": [],
      "name": "mailbox",
      "outputs": [
        {
          "internalType": "contract IMailbox",
          "name": "",
          "type": "address"
        }
      ],
      "stateMutability": "view",
      "type": "function"
    },
    {
      "inputs": [],
      "name": "owner",
      "outputs": [
        {
          "internalType": "address",
          "name": "",
          "type": "address"
        }
      ],
      "stateMutability": "view",
      "type": "function"
    },
    {
      "inputs": [
        {
          "internalType": "uint256",
          "name": "",
          "type": "uint256"
        }
      ],
      "name": "proposals",
      "outputs": [
        {
          "internalType": "uint256",
          "name": "id",
          "type": "uint256"
        },
        {
          "internalType": "address",
          "name": "proposer",
          "type": "address"
        },
        {
          "internalType": "string",
          "name": "description",
          "type": "string"
        },
        {
          "internalType": "uint256",
          "name": "forVotes",
          "type": "uint256"
        },
        {
          "internalType": "uint256",
          "name": "againstVotes",
          "type": "uint256"
        },
        {
          "internalType": "uint256",
          "name": "startTime",
          "type": "uint256"
        },
        {
          "internalType": "uint256",
          "name": "endTime",
          "type": "uint256"
        },
        {
          "internalType": "uint32",
          "name": "executionChain",
          "type": "uint32"
        },
        {
          "internalType": "address",
          "name": "target",
          "type": "address"
        },
        {
          "internalType": "bytes",
          "name": "callData",
          "type": "bytes"
        },
        {
          "internalType": "bool",
          "name": "executed",
          "type": "bool"
        }
      ],
      "stateMutability": "view",
      "type": "function"
    },
    {
      "inputs": [
        {
          "internalType": "bytes32",
          "name": "_homeCoreAddress",
          "type": "bytes32"
        }
      ],
      "name": "setHomeCoreAddress",
      "outputs": [],
      "stateMutability": "nonpayable",
      "type": "function"
    },
    {
      "inputs": [
        {
          "internalType": "uint256",
          "name": "proposalId",
          "type": "uint256"
        },
        {
          "internalType": "bool",
          "name": "support",
          "type": "bool"
        }
      ],
      "name": "vote",
      "outputs": [],
      "stateMutability": "nonpayable",
      "type": "function"
    }
  ],
  "bytecode": "0x60806040523480156200001157600080fd5b5060405162002f9a38038062002f9a833981810160405281019062000037919062000211565b336000806101000a81548173ffffffffffffffffffffffffffffffffffffffff021916908373ffffffffffffffffffffffffffffffffffffffff16021790555083600160006101000a81548173ffffffffffffffffffffffffffffffffffffffff021916908373ffffffffffffffffffffffffffffffffffffffff16021790555082600260006101000a81548173ffffffffffffffffffffffffffffffffffffffff021916908373ffffffffffffffffffffffffffffffffffffffff16021790555081600260146101000a81548163ffffffff021916908363ffffffff160217905550806003819055505050505062000283565b600080fd5b600073ffffffffffffffffffffffffffffffffffffffff82169050919050565b60006200015d8262000130565b9050919050565b6200016f8162000150565b81146200017b57600080fd5b50565b6000815190506200018f8162000164565b92915050565b600063ffffffff82169050919050565b620001b08162000195565b8114620001bc57600080fd5b50565b600081519050620001d081620001a5565b92915050565b6000819050919050565b620001eb81620001d6565b8114620001f757600080fd5b50565b6000815190506200020b81620001e0565b92915050565b600080600080608085870312156200022e576200022d6200012b565b5b60006200023e878288016200017e565b945050602062000251878288016200017e565b93505060406200026487828801620001bf565b92505060606200027787828801620001fa565b91505092959194509250565b612d0780620002936000396000f3fe608060405234801561001057600080fd5b50600436106100a95760003560e01c80638da5cb5b116100715780638da5cb5b146101705780639d21af381461018e578063c9d27afe146101aa578063d1437b8d146101c6578063d5438eae146101e4578063f96dae0a14610202576100a9565b8063013cf08b146100ae57806350c9457c146100e85780635584c4f91461011857806356d5d475146101365780638178672514610152575b600080fd5b6100c860048036038101906100c391906113e4565b610220565b6040516100df9b9a99989796959493929190611580565b60405180910390f35b61010260048036038101906100fd91906113e4565b6103e7565b60405161010f9190611639565b60405180910390f35b61012061040b565b60405161012d91906118dc565b60405180910390f35b610150600480360381019061014b91906119c5565b610702565b005b61015a610873565b6040516101679190611a39565b60405180910390f35b610178610889565b6040516101859190611a54565b60405180910390f35b6101a860048036038101906101a39190611a6f565b6108ad565b005b6101c460048036038101906101bf9190611ac8565b610945565b005b6101ce610c3b565b6040516101db9190611b17565b60405180910390f35b6101ec610c41565b6040516101f99190611b91565b60405180910390f35b61020a610c67565b6040516102179190611bcd565b60405180910390f35b60046020528060005260406000206000915090508060000154908060010160009054906101000a900473ffffffffffffffffffffffffffffffffffffffff169080600201805461026f90611c17565b80601f016020809104026020016040519081016040528092919081815260200182805461029b90611c17565b80156102e85780601f106102bd576101008083540402835291602001916102e8565b820191906000526020600020905b8154815290600101906020018083116102cb57829003601f168201915b5050505050908060030154908060040154908060050154908060060154908060070160009054906101000a900463ffffffff16908060070160049054906101000a900473ffffffffffffffffffffffffffffffffffffffff169080600801805461035190611c17565b80601f016020809104026020016040519081016040528092919081815260200182805461037d90611c17565b80156103ca5780601f1061039f576101008083540402835291602001916103ca565b820191906000526020600020905b8154815290600101906020018083116103ad57829003601f168201915b5050505050908060090160009054906101000a900460ff1690508b565b600581815481106103f757600080fd5b906000526020600020016000915090505481565b6060600060058054905067ffffffffffffffff81111561042e5761042d611c48565b5b60405190808252806020026020018201604052801561046757816020015b61045461130c565b81526020019060019003908161044c5790505b50905060005b6005805490508110156106fa576000600460006005848154811061049457610493611c77565b5b906000526020600020015481526020019081526020016000209050604051806101600160405280826000015481526020018260010160009054906101000a900473ffffffffffffffffffffffffffffffffffffffff1673ffffffffffffffffffffffffffffffffffffffff16815260200182600201805461051490611c17565b80601f016020809104026020016040519081016040528092919081815260200182805461054090611c17565b801561058d5780601f106105625761010080835404028352916020019161058d565b820191906000526020600020905b81548152906001019060200180831161057057829003601f168201915b50505050508152602001826003015481526020018260040154815260200182600501548152602001826006015481526020018260070160009054906101000a900463ffffffff1663ffffffff1681526020018260070160049054906101000a900473ffffffffffffffffffffffffffffffffffffffff1673ffffffffffffffffffffffffffffffffffffffff16815260200182600801805461062e90611c17565b80601f016020809104026020016040519081016040528092919081815260200182805461065a90611c17565b80156106a75780601f1061067c576101008083540402835291602001916106a7565b820191906000526020600020905b81548152906001019060200180831161068a57829003601f168201915b505050505081526020018260090160009054906101000a900460ff1615158152508383815181106106db576106da611c77565b5b60200260200101819052505080806106f290611cd5565b91505061046d565b508091505090565b600160009054906101000a900473ffffffffffffffffffffffffffffffffffffffff1673ffffffffffffffffffffffffffffffffffffffff163373ffffffffffffffffffffffffffffffffffffffff1614610792576040517f08c379a000000000000000000000000000000000000000000000000000000000815260040161078990611d8f565b60405180910390fd5b60035483146107d6576040517f08c379a00000000000000000000000000000000000000000000000000000000081526004016107cd90611dfb565b60405180910390fd5b600082828101906107e79190611f1c565b50905060008103610801576107fc8383610c8d565b61086c565b60018103610818576108138383610e83565b61086b565b6002810361082f5761082a8383611137565b61086a565b6040517f08c379a000000000000000000000000000000000000000000000000000000000815260040161086190611fc4565b60405180910390fd5b5b5b5050505050565b600260149054906101000a900463ffffffff1681565b60008054906101000a900473ffffffffffffffffffffffffffffffffffffffff1681565b60008054906101000a900473ffffffffffffffffffffffffffffffffffffffff1673ffffffffffffffffffffffffffffffffffffffff163373ffffffffffffffffffffffffffffffffffffffff161461093b576040517f08c379a000000000000000000000000000000000000000000000000000000000815260040161093290612056565b60405180910390fd5b8060038190555050565b600060046000848152602001908152602001600020905060008160000154036109a3576040517f08c379a000000000000000000000000000000000000000000000000000000000815260040161099a906120c2565b60405180910390fd5b80600a0160003373ffffffffffffffffffffffffffffffffffffffff1673ffffffffffffffffffffffffffffffffffffffff16815260200190815260200160002060009054906101000a900460ff1615610a32576040517f08c379a0000000000000000000000000000000000000000000000000000000008152600401610a299061212e565b60405180910390fd5b8060060154421115610a79576040517f08c379a0000000000000000000000000000000000000000000000000000000008152600401610a709061219a565b60405180910390fd5b6000600260009054906101000a900473ffffffffffffffffffffffffffffffffffffffff1673ffffffffffffffffffffffffffffffffffffffff166370a08231336040518263ffffffff1660e01b8152600401610ad69190611a54565b602060405180830381865afa158015610af3573d6000803e3d6000fd5b505050506040513d601f19601f82011682018060405250810190610b1791906121cf565b905060008111610b5c576040517f08c379a0000000000000000000000000000000000000000000000000000000008152600401610b5390612248565b60405180910390fd5b8215610b825780826003016000828254610b769190612268565b92505081905550610b9e565b80826004016000828254610b969190612268565b925050819055505b600182600a0160003373ffffffffffffffffffffffffffffffffffffffff1673ffffffffffffffffffffffffffffffffffffffff16815260200190815260200160002060006101000a81548160ff0219169083151502179055507f7c2de587c00d75474a0c6c6fa96fd3b45dc974cd4e8a75f712bb84c950dce1b584338584604051610c2d949392919061229c565b60405180910390a150505050565b60035481565b600160009054906101000a900473ffffffffffffffffffffffffffffffffffffffff1681565b600260009054906101000a900473ffffffffffffffffffffffffffffffffffffffff1681565b60008060008060008686810190610ca491906123c0565b95509550955095509550506000600460008781526020019081526020016000206000015414610d08576040517f08c379a0000000000000000000000000000000000000000000000000000000008152600401610cff906124d1565b60405180910390fd5b6000600460008781526020019081526020016000209050858160000181905550338160010160006101000a81548173ffffffffffffffffffffffffffffffffffffffff021916908373ffffffffffffffffffffffffffffffffffffffff16021790555084816002019081610d7c9190612693565b5042816005018190555062093a8042610d959190612268565b8160060181905550838160070160006101000a81548163ffffffff021916908363ffffffff160217905550828160070160046101000a81548173ffffffffffffffffffffffffffffffffffffffff021916908373ffffffffffffffffffffffffffffffffffffffff16021790555081816008019081610e1491906127c0565b5060058690806001815401808255809150506001900390600052602060002001600090919091909150557f4ba44b2f2cc6680ddb07ed1cbfec32eea742383066950efcb2305eab868e2161868686604051610e7193929190612892565b60405180910390a15050505050505050565b60008282810190610e9491906128d0565b91505060006004600083815260200190815260200160002090506000816000015403610ef5576040517f08c379a0000000000000000000000000000000000000000000000000000000008152600401610eec906120c2565b60405180910390fd5b80600601544211610f3b576040517f08c379a0000000000000000000000000000000000000000000000000000000008152600401610f329061295c565b60405180910390fd5b60005b600580549050811015611002578260058281548110610f6057610f5f611c77565b5b906000526020600020015403610fef5760056001600580549050610f84919061297c565b81548110610f9557610f94611c77565b5b906000526020600020015460058281548110610fb457610fb3611c77565b5b90600052602060002001819055506005805480610fd457610fd36129b0565b5b60019003818190600052602060002001600090559055611002565b8080610ffa90611cd5565b915050610f3e565b506000600183836003015484600401546040516020016110259493929190612a27565b6040516020818303038152906040529050600160009054906101000a900473ffffffffffffffffffffffffffffffffffffffff1673ffffffffffffffffffffffffffffffffffffffff1663fa31de01600260149054906101000a900463ffffffff16600354846040518463ffffffff1660e01b81526004016110a993929190612a6c565b6020604051808303816000875af11580156110c8573d6000803e3d6000fd5b505050506040513d601f19601f820116820180604052508101906110ec9190612abf565b507fb7a878643a82614f0ad3432ea0a03b82104efdb339035148b3655609341a37d4838360030154846004015460405161112893929190612aec565b60405180910390a15050505050565b6000806000848481019061114b9190612b23565b93509350935050600060046000858152602001908152602001600020905060008160000154036111b0576040517f08c379a00000000000000000000000000000000000000000000000000000000081526004016111a7906120c2565b60405180910390fd5b8060090160009054906101000a900460ff1615611202576040517f08c379a00000000000000000000000000000000000000000000000000000000081526004016111f990612bf2565b60405180910390fd5b60018160090160006101000a81548160ff02191690831515021790555060008373ffffffffffffffffffffffffffffffffffffffff16836040516112469190612c4e565b6000604051808303816000865af19150503d8060008114611283576040519150601f19603f3d011682016040523d82523d6000602084013e611288565b606091505b50509050806112cc576040517f08c379a00000000000000000000000000000000000000000000000000000000081526004016112c390612cb1565b60405180910390fd5b7f712ae1383f79ac853f8d882153778e0260ef8f03b504e2866e0593e04d2b291f856040516112fb9190611639565b60405180910390a150505050505050565b60405180610160016040528060008152602001600073ffffffffffffffffffffffffffffffffffffffff1681526020016060815260200160008152602001600081526020016000815260200160008152602001600063ffffffff168152602001600073ffffffffffffffffffffffffffffffffffffffff168152602001606081526020016000151581525090565b6000604051905090565b600080fd5b600080fd5b6000819050919050565b6113c1816113ae565b81146113cc57600080fd5b50565b6000813590506113de816113b8565b92915050565b6000602082840312156113fa576113f96113a4565b5b6000611408848285016113cf565b91505092915050565b61141a816113ae565b82525050565b600073ffffffffffffffffffffffffffffffffffffffff82169050919050565b600061144b82611420565b9050919050565b61145b81611440565b82525050565b600081519050919050565b600082825260208201905092915050565b60005b8381101561149b578082015181840152602081019050611480565b60008484015250505050565b6000601f19601f8301169050919050565b60006114c382611461565b6114cd818561146c565b93506114dd81856020860161147d565b6114e6816114a7565b840191505092915050565b600063ffffffff82169050919050565b61150a816114f1565b82525050565b600081519050919050565b600082825260208201905092915050565b600061153782611510565b611541818561151b565b935061155181856020860161147d565b61155a816114a7565b840191505092915050565b60008115159050919050565b61157a81611565565b82525050565b600061016082019050611596600083018e611411565b6115a3602083018d611452565b81810360408301526115b5818c6114b8565b90506115c4606083018b611411565b6115d1608083018a611411565b6115de60a0830189611411565b6115eb60c0830188611411565b6115f860e0830187611501565b611606610100830186611452565b818103610120830152611619818561152c565b9050611629610140830184611571565b9c9b505050505050505050505050565b600060208201905061164e6000830184611411565b92915050565b600081519050919050565b600082825260208201905092915050565b6000819050602082019050919050565b611689816113ae565b82525050565b61169881611440565b82525050565b600082825260208201905092915050565b60006116ba82611461565b6116c4818561169e565b93506116d481856020860161147d565b6116dd816114a7565b840191505092915050565b6116f1816114f1565b82525050565b600082825260208201905092915050565b600061171382611510565b61171d81856116f7565b935061172d81856020860161147d565b611736816114a7565b840191505092915050565b61174a81611565565b82525050565b6000610160830160008301516117696000860182611680565b50602083015161177c602086018261168f565b506040830151848203604086015261179482826116af565b91505060608301516117a96060860182611680565b5060808301516117bc6080860182611680565b5060a08301516117cf60a0860182611680565b5060c08301516117e260c0860182611680565b5060e08301516117f560e08601826116e8565b5061010083015161180a61010086018261168f565b506101208301518482036101208601526118248282611708565b91505061014083015161183b610140860182611741565b508091505092915050565b60006118528383611750565b905092915050565b6000602082019050919050565b600061187282611654565b61187c818561165f565b93508360208202850161188e85611670565b8060005b858110156118ca57848403895281516118ab8582611846565b94506118b68361185a565b925060208a01995050600181019050611892565b50829750879550505050505092915050565b600060208201905081810360008301526118f68184611867565b905092915050565b611907816114f1565b811461191257600080fd5b50565b600081359050611924816118fe565b92915050565b6000819050919050565b61193d8161192a565b811461194857600080fd5b50565b60008135905061195a81611934565b92915050565b600080fd5b600080fd5b600080fd5b60008083601f84011261198557611984611960565b5b8235905067ffffffffffffffff8111156119a2576119a1611965565b5b6020830191508360018202830111156119be576119bd61196a565b5b9250929050565b600080600080606085870312156119df576119de6113a4565b5b60006119ed87828801611915565b94505060206119fe8782880161194b565b935050604085013567ffffffffffffffff811115611a1f57611a1e6113a9565b5b611a2b8782880161196f565b925092505092959194509250565b6000602082019050611a4e6000830184611501565b92915050565b6000602082019050611a696000830184611452565b92915050565b600060208284031215611a8557611a846113a4565b5b6000611a938482850161194b565b91505092915050565b611aa581611565565b8114611ab057600080fd5b50565b600081359050611ac281611a9c565b92915050565b60008060408385031215611adf57611ade6113a4565b5b6000611aed858286016113cf565b9250506020611afe85828601611ab3565b9150509250929050565b611b118161192a565b82525050565b6000602082019050611b2c6000830184611b08565b92915050565b6000819050919050565b6000611b57611b52611b4d84611420565b611b32565b611420565b9050919050565b6000611b6982611b3c565b9050919050565b6000611b7b82611b5e565b9050919050565b611b8b81611b70565b82525050565b6000602082019050611ba66000830184611b82565b92915050565b6000611bb782611b5e565b9050919050565b611bc781611bac565b82525050565b6000602082019050611be26000830184611bbe565b92915050565b7f4e487b7100000000000000000000000000000000000000000000000000000000600052602260045260246000fd5b60006002820490506001821680611c2f57607f821691505b602082108103611c4257611c41611be8565b5b50919050565b7f4e487b7100000000000000000000000000000000000000000000000000000000600052604160045260246000fd5b7f4e487b7100000000000000000000000000000000000000000000000000000000600052603260045260246000fd5b7f4e487b7100000000000000000000000000000000000000000000000000000000600052601160045260246000fd5b6000611ce0826113ae565b91507fffffffffffffffffffffffffffffffffffffffffffffffffffffffffffffffff8203611d1257611d11611ca6565b5b600182019050919050565b7f4f6e6c79204d61696c626f782063616e2063616c6c20746869732066756e637460008201527f696f6e0000000000000000000000000000000000000000000000000000000000602082015250565b6000611d7960238361146c565b9150611d8482611d1d565b604082019050919050565b60006020820190508181036000830152611da881611d6c565b9050919050565b7f496e76616c69642073656e646572000000000000000000000000000000000000600082015250565b6000611de5600e8361146c565b9150611df082611daf565b602082019050919050565b60006020820190508181036000830152611e1481611dd8565b9050919050565b600080fd5b611e29826114a7565b810181811067ffffffffffffffff82111715611e4857611e47611c48565b5b80604052505050565b6000611e5b61139a565b9050611e678282611e20565b919050565b600067ffffffffffffffff821115611e8757611e86611c48565b5b611e90826114a7565b9050602081019050919050565b82818337600083830152505050565b6000611ebf611eba84611e6c565b611e51565b905082815260208101848484011115611edb57611eda611e1b565b5b611ee6848285611e9d565b509392505050565b600082601f830112611f0357611f02611960565b5b8135611f13848260208601611eac565b91505092915050565b60008060408385031215611f3357611f326113a4565b5b6000611f41858286016113cf565b925050602083013567ffffffffffffffff811115611f6257611f616113a9565b5b611f6e85828601611eee565b9150509250929050565b7f496e76616c696420616374696f6e207479706500000000000000000000000000600082015250565b6000611fae60138361146c565b9150611fb982611f78565b602082019050919050565b60006020820190508181036000830152611fdd81611fa1565b9050919050565b7f4f6e6c79206f776e65722063616e2063616c6c20746869732066756e6374696f60008201527f6e00000000000000000000000000000000000000000000000000000000000000602082015250565b600061204060218361146c565b915061204b82611fe4565b604082019050919050565b6000602082019050818103600083015261206f81612033565b9050919050565b7f50726f706f73616c20646f6573206e6f74206578697374000000000000000000600082015250565b60006120ac60178361146c565b91506120b782612076565b602082019050919050565b600060208201905081810360008301526120db8161209f565b9050919050565b7f416c726561647920766f746564206f6e20746869732070726f706f73616c0000600082015250565b6000612118601e8361146c565b9150612123826120e2565b602082019050919050565b600060208201905081810360008301526121478161210b565b9050919050565b7f566f74696e6720706572696f6420656e64656400000000000000000000000000600082015250565b600061218460138361146c565b915061218f8261214e565b602082019050919050565b600060208201905081810360008301526121b381612177565b9050919050565b6000815190506121c9816113b8565b92915050565b6000602082840312156121e5576121e46113a4565b5b60006121f3848285016121ba565b91505092915050565b7f4e6f20766f74696e6720706f7765720000000000000000000000000000000000600082015250565b6000612232600f8361146c565b915061223d826121fc565b602082019050919050565b6000602082019050818103600083015261226181612225565b9050919050565b6000612273826113ae565b915061227e836113ae565b925082820190508082111561229657612295611ca6565b5b92915050565b60006080820190506122b16000830187611411565b6122be6020830186611452565b6122cb6040830185611571565b6122d86060830184611411565b95945050505050565b600067ffffffffffffffff8211156122fc576122fb611c48565b5b612305826114a7565b9050602081019050919050565b6000612325612320846122e1565b611e51565b90508281526020810184848401111561234157612340611e1b565b5b61234c848285611e9d565b509392505050565b600082601f83011261236957612368611960565b5b8135612379848260208601612312565b91505092915050565b600061238d82611420565b9050919050565b61239d81612382565b81146123a857600080fd5b50565b6000813590506123ba81612394565b92915050565b60008060008060008060c087890312156123dd576123dc6113a4565b5b60006123eb89828a016113cf565b96505060206123fc89828a016113cf565b955050604087013567ffffffffffffffff81111561241d5761241c6113a9565b5b61242989828a01612354565b945050606061243a89828a01611915565b935050608061244b89828a016123ab565b92505060a087013567ffffffffffffffff81111561246c5761246b6113a9565b5b61247889828a01611eee565b9150509295509295509295565b7f50726f706f73616c20616c726561647920657869737473000000000000000000600082015250565b60006124bb60178361146c565b91506124c682612485565b602082019050919050565b600060208201905081810360008301526124ea816124ae565b9050919050565b60008190508160005260206000209050919050565b60006020601f8301049050919050565b600082821b905092915050565b6000600883026125537fffffffffffffffffffffffffffffffffffffffffffffffffffffffffffffffff82612516565b61255d8683612516565b95508019841693508086168417925050509392505050565b600061259061258b612586846113ae565b611b32565b6113ae565b9050919050565b6000819050919050565b6125aa83612575565b6125be6125b682612597565b848454612523565b825550505050565b600090565b6125d36125c6565b6125de8184846125a1565b505050565b5b81811015612602576125f76000826125cb565b6001810190506125e4565b5050565b601f82111561264757612618816124f1565b61262184612506565b81016020851015612630578190505b61264461263c85612506565b8301826125e3565b50505b505050565b600082821c905092915050565b600061266a6000198460080261264c565b1980831691505092915050565b60006126838383612659565b9150826002028217905092915050565b61269c82611461565b67ffffffffffffffff8111156126b5576126b4611c48565b5b6126bf8254611c17565b6126ca828285612606565b600060209050601f8311600181146126fd57600084156126eb578287015190505b6126f58582612677565b86555061275d565b601f19841661270b866124f1565b60005b828110156127335784890151825560018201915060208501945060208101905061270e565b86831015612750578489015161274c601f891682612659565b8355505b6001600288020188555050505b505050505050565b60008190508160005260206000209050919050565b601f8211156127bb5761278c81612765565b61279584612506565b810160208510156127a4578190505b6127b86127b085612506565b8301826125e3565b50505b505050565b6127c982611510565b67ffffffffffffffff8111156127e2576127e1611c48565b5b6127ec8254611c17565b6127f782828561277a565b600060209050601f83116001811461282a5760008415612818578287015190505b6128228582612677565b86555061288a565b601f19841661283886612765565b60005b828110156128605784890151825560018201915060208501945060208101905061283b565b8683101561287d5784890151612879601f891682612659565b8355505b6001600288020188555050505b505050505050565b60006060820190506128a76000830186611411565b81810360208301526128b981856114b8565b90506128c86040830184611501565b949350505050565b600080604083850312156128e7576128e66113a4565b5b60006128f5858286016113cf565b9250506020612906858286016113cf565b9150509250929050565b7f566f74696e6720706572696f64206e6f7420656e646564000000000000000000600082015250565b600061294660178361146c565b915061295182612910565b602082019050919050565b6000602082019050818103600083015261297581612939565b9050919050565b6000612987826113ae565b9150612992836113ae565b92508282039050818111156129aa576129a9611ca6565b5b92915050565b7f4e487b7100000000000000000000000000000000000000000000000000000000600052603160045260246000fd5b6000819050919050565b600060ff82169050919050565b6000612a11612a0c612a07846129df565b611b32565b6129e9565b9050919050565b612a21816129f6565b82525050565b6000608082019050612a3c6000830187612a18565b612a496020830186611411565b612a566040830185611411565b612a636060830184611411565b95945050505050565b6000606082019050612a816000830186611501565b612a8e6020830185611b08565b8181036040830152612aa0818461152c565b9050949350505050565b600081519050612ab981611934565b92915050565b600060208284031215612ad557612ad46113a4565b5b6000612ae384828501612aaa565b91505092915050565b6000606082019050612b016000830186611411565b612b0e6020830185611411565b612b1b6040830184611411565b949350505050565b60008060008060808587031215612b3d57612b3c6113a4565b5b6000612b4b878288016113cf565b9450506020612b5c878288016113cf565b9350506040612b6d878288016123ab565b925050606085013567ffffffffffffffff811115612b8e57612b8d6113a9565b5b612b9a87828801611eee565b91505092959194509250565b7f50726f706f73616c20616c726561647920657865637574656400000000000000600082015250565b6000612bdc60198361146c565b9150612be782612ba6565b602082019050919050565b60006020820190508181036000830152612c0b81612bcf565b9050919050565b600081905092915050565b6000612c2882611510565b612c328185612c12565b9350612c4281856020860161147d565b80840191505092915050565b6000612c5a8284612c1d565b915081905092915050565b7f50726f706f73616c20657865637574696f6e206661696c656400000000000000600082015250565b6000612c9b60198361146c565b9150612ca682612c65565b602082019050919050565b60006020820190508181036000830152612cca81612c8e565b905091905056fea264697066735822122054b3bb17e04c7b3932bc046b3d3d437e435b44c8f07cd5b0310494b2327d8ef164736f6c63430008140033",
  "linkReferences": {},
  "deployedLinkReferences": {}
}