{
  "address": "0x17c87634233C3e26DffFDAe63ddFb15bd633A615",
  "abi": [
    {
      "inputs": [
        {
          "internalType": "address",
          "name": "_mailbox",
          "type": "address"
        },
        {
          "internalType": "address",
          "name": "_governanceToken",
          "type": "address"
        },
        {
          "internalType": "uint32",
          "name": "_homeDomain",
          "type": "uint32"
        },
        {
          "internalType": "bytes32",
          "name": "_homeCoreAddress",
          "type": "bytes32"
        }
      ],
      "stateMutability": "nonpayable",
      "type": "constructor"
    },
    {
      "anonymous": false,
      "inputs": [
        {
          "indexed": false,
          "internalType": "uint256",
          "name": "proposalId",
          "type": "uint256"
        }
      ],
      "name": "ProposalExecuted",
      "type": "event"
    },
    {
      "anonymous": false,
      "inputs": [
        {
          "indexed": false,
          "internalType": "uint256",
          "name": "proposalId",
          "type": "uint256"
        },
        {
          "indexed": false,
          "internalType": "string",
          "name": "description",
          "type": "string"
        },
        {
          "indexed": false,
          "internalType": "uint32",
          "name": "executionChain",
          "type": "uint32"
        }
      ],
      "name": "ProposalReceived",
      "type": "event"
    },
    {
      "anonymous": false,
      "inputs": [
        {
          "indexed": false,
          "internalType": "uint256",
          "name": "proposalId",
          "type": "uint256"
        },
        {
          "indexed": false,
          "internalType": "address",
          "name": "voter",
          "type": "address"
        },
        {
          "indexed": false,
          "internalType": "bool",
          "name": "support",
          "type": "bool"
        },
        {
          "indexed": false,
          "internalType": "uint256",
          "name": "weight",
          "type": "uint256"
        }
      ],
      "name": "Voted",
      "type": "event"
    },
    {
      "anonymous": false,
      "inputs": [
        {
          "indexed": false,
          "internalType": "uint256",
          "name": "proposalId",
          "type": "uint256"
        },
        {
          "indexed": false,
          "internalType": "uint256",
          "name": "forVotes",
          "type": "uint256"
        },
        {
          "indexed": false,
          "internalType": "uint256",
          "name": "againstVotes",
          "type": "uint256"
        }
      ],
      "name": "VotesCollected",
      "type": "event"
    },
    {
      "inputs": [],
      "name": "governanceToken",
      "outputs": [
        {
          "internalType": "contract IGovernanceToken",
          "name": "",
          "type": "address"
        }
      ],
      "stateMutability": "view",
      "type": "function"
    },
    {
      "inputs": [
        {
          "internalType": "uint32",
          "name": "_origin",
          "type": "uint32"
        },
        {
          "internalType": "bytes32",
          "name": "_sender",
          "type": "bytes32"
        },
        {
          "internalType": "bytes",
          "name": "_body",
          "type": "bytes"
        }
      ],
      "name": "handle",
      "outputs": [],
      "stateMutability": "nonpayable",
      "type": "function"
    },
    {
      "inputs": [],
      "name": "homeCoreAddress",
      "outputs": [
        {
          "internalType": "bytes32",
          "name": "",
          "type": "bytes32"
        }
      ],
      "stateMutability": "view",
      "type": "function"
    },
    {
      "inputs": [],
      "name": "homeDomain",
      "outputs": [
        {
          "internalType": "uint32",
          "name": "",
          "type": "uint32"
        }
      ],
      "stateMutability": "view",
      "type": "function"
    },
    {
      "inputs": [],
      "name": "mailbox",
      "outputs": [
        {
          "internalType": "contract IMailbox",
          "name": "",
          "type": "address"
        }
      ],
      "stateMutability": "view",
      "type": "function"
    },
    {
      "inputs": [],
      "name": "owner",
      "outputs": [
        {
          "internalType": "address",
          "name": "",
          "type": "address"
        }
      ],
      "stateMutability": "view",
      "type": "function"
    },
    {
      "inputs": [
        {
          "internalType": "uint256",
          "name": "",
          "type": "uint256"
        }
      ],
      "name": "proposals",
      "outputs": [
        {
          "internalType": "uint256",
          "name": "id",
          "type": "uint256"
        },
        {
          "internalType": "string",
          "name": "description",
          "type": "string"
        },
        {
          "internalType": "uint256",
          "name": "forVotes",
          "type": "uint256"
        },
        {
          "internalType": "uint256",
          "name": "againstVotes",
          "type": "uint256"
        },
        {
          "internalType": "uint256",
          "name": "startTime",
          "type": "uint256"
        },
        {
          "internalType": "uint256",
          "name": "endTime",
          "type": "uint256"
        },
        {
          "internalType": "uint32",
          "name": "executionChain",
          "type": "uint32"
        },
        {
          "internalType": "address",
          "name": "target",
          "type": "address"
        },
        {
          "internalType": "bytes",
          "name": "callData",
          "type": "bytes"
        },
        {
          "internalType": "bool",
          "name": "executed",
          "type": "bool"
        }
      ],
      "stateMutability": "view",
      "type": "function"
    },
    {
      "inputs": [
        {
          "internalType": "bytes32",
          "name": "_homeCoreAddress",
          "type": "bytes32"
        }
      ],
      "name": "setHomeCoreAddress",
      "outputs": [],
      "stateMutability": "nonpayable",
      "type": "function"
    },
    {
      "inputs": [
        {
          "internalType": "uint256",
          "name": "proposalId",
          "type": "uint256"
        },
        {
          "internalType": "bool",
          "name": "support",
          "type": "bool"
        }
      ],
      "name": "vote",
      "outputs": [],
      "stateMutability": "nonpayable",
      "type": "function"
    }
  ],
  "transactionHash": "0xe603afb2ec21ee633163d00647cf5294ad2d8dee09dcd5aaf64f7d80109be6ec",
  "args": [
    "0x3C5154a193D6e2955650f9305c8d80c18C814A68",
    "0x7df9A5B92443B96bF876A43f3Af61d0f50bb61A0",
    11155111,
    "0x0000000000000000000000007201cc55ce8d1091cd708bcd7f7dda19b3403bce"
  ],
  "numDeployments": 1,
  "solcInputHash": "ca7ff2e54d8cafe7b5c696035f3a3a18",
  "bytecode": "0x60806040523480156200001157600080fd5b506040516200269f3803806200269f833981810160405281019062000037919062000211565b336000806101000a81548173ffffffffffffffffffffffffffffffffffffffff021916908373ffffffffffffffffffffffffffffffffffffffff16021790555083600160006101000a81548173ffffffffffffffffffffffffffffffffffffffff021916908373ffffffffffffffffffffffffffffffffffffffff16021790555082600260006101000a81548173ffffffffffffffffffffffffffffffffffffffff021916908373ffffffffffffffffffffffffffffffffffffffff16021790555081600260146101000a81548163ffffffff021916908363ffffffff160217905550806003819055505050505062000283565b600080fd5b600073ffffffffffffffffffffffffffffffffffffffff82169050919050565b60006200015d8262000130565b9050919050565b6200016f8162000150565b81146200017b57600080fd5b50565b6000815190506200018f8162000164565b92915050565b600063ffffffff82169050919050565b620001b08162000195565b8114620001bc57600080fd5b50565b600081519050620001d081620001a5565b92915050565b6000819050919050565b620001eb81620001d6565b8114620001f757600080fd5b50565b6000815190506200020b81620001e0565b92915050565b600080600080608085870312156200022e576200022d6200012b565b5b60006200023e878288016200017e565b945050602062000251878288016200017e565b93505060406200026487828801620001bf565b92505060606200027787828801620001fa565b91505092959194509250565b61240c80620002936000396000f3fe608060405234801561001057600080fd5b50600436106100935760003560e01c80639d21af38116100665780639d21af3814610129578063c9d27afe14610145578063d1437b8d14610161578063d5438eae1461017f578063f96dae0a1461019d57610093565b8063013cf08b1461009857806356d5d475146100d157806381786725146100ed5780638da5cb5b1461010b575b600080fd5b6100b260048036038101906100ad9190610e7c565b6101bb565b6040516100c89a99989796959493929190611018565b60405180910390f35b6100eb60048036038101906100e69190611189565b61035c565b005b6100f56104cd565b60405161010291906111fd565b60405180910390f35b6101136104e3565b6040516101209190611218565b60405180910390f35b610143600480360381019061013e9190611233565b610507565b005b61015f600480360381019061015a919061128c565b61059f565b005b610169610895565b60405161017691906112db565b60405180910390f35b61018761089b565b6040516101949190611355565b60405180910390f35b6101a56108c1565b6040516101b29190611391565b60405180910390f35b60046020528060005260406000206000915090508060000154908060010180546101e4906113db565b80601f0160208091040260200160405190810160405280929190818152602001828054610210906113db565b801561025d5780601f106102325761010080835404028352916020019161025d565b820191906000526020600020905b81548152906001019060200180831161024057829003601f168201915b5050505050908060020154908060030154908060040154908060050154908060060160009054906101000a900463ffffffff16908060060160049054906101000a900473ffffffffffffffffffffffffffffffffffffffff16908060070180546102c6906113db565b80601f01602080910402602001604051908101604052809291908181526020018280546102f2906113db565b801561033f5780601f106103145761010080835404028352916020019161033f565b820191906000526020600020905b81548152906001019060200180831161032257829003601f168201915b5050505050908060080160009054906101000a900460ff1690508a565b600160009054906101000a900473ffffffffffffffffffffffffffffffffffffffff1673ffffffffffffffffffffffffffffffffffffffff163373ffffffffffffffffffffffffffffffffffffffff16146103ec576040517f08c379a00000000000000000000000000000000000000000000000000000000081526004016103e39061147e565b60405180910390fd5b6003548314610430576040517f08c379a0000000000000000000000000000000000000000000000000000000008152600401610427906114ea565b60405180910390fd5b60008282810190610441919061163a565b5090506000810361045b5761045683836108e7565b6104c6565b600181036104725761046d8383610a71565b6104c5565b60028103610489576104848383610c5d565b6104c4565b6040517f08c379a00000000000000000000000000000000000000000000000000000000081526004016104bb906116e2565b60405180910390fd5b5b5b5050505050565b600260149054906101000a900463ffffffff1681565b60008054906101000a900473ffffffffffffffffffffffffffffffffffffffff1681565b60008054906101000a900473ffffffffffffffffffffffffffffffffffffffff1673ffffffffffffffffffffffffffffffffffffffff163373ffffffffffffffffffffffffffffffffffffffff1614610595576040517f08c379a000000000000000000000000000000000000000000000000000000000815260040161058c90611774565b60405180910390fd5b8060038190555050565b600060046000848152602001908152602001600020905060008160000154036105fd576040517f08c379a00000000000000000000000000000000000000000000000000000000081526004016105f4906117e0565b60405180910390fd5b8060090160003373ffffffffffffffffffffffffffffffffffffffff1673ffffffffffffffffffffffffffffffffffffffff16815260200190815260200160002060009054906101000a900460ff161561068c576040517f08c379a00000000000000000000000000000000000000000000000000000000081526004016106839061184c565b60405180910390fd5b80600501544211156106d3576040517f08c379a00000000000000000000000000000000000000000000000000000000081526004016106ca906118b8565b60405180910390fd5b6000600260009054906101000a900473ffffffffffffffffffffffffffffffffffffffff1673ffffffffffffffffffffffffffffffffffffffff166370a08231336040518263ffffffff1660e01b81526004016107309190611218565b602060405180830381865afa15801561074d573d6000803e3d6000fd5b505050506040513d601f19601f8201168201806040525081019061077191906118ed565b9050600081116107b6576040517f08c379a00000000000000000000000000000000000000000000000000000000081526004016107ad90611966565b60405180910390fd5b82156107dc57808260020160008282546107d091906119b5565b925050819055506107f8565b808260030160008282546107f091906119b5565b925050819055505b60018260090160003373ffffffffffffffffffffffffffffffffffffffff1673ffffffffffffffffffffffffffffffffffffffff16815260200190815260200160002060006101000a81548160ff0219169083151502179055507f7c2de587c00d75474a0c6c6fa96fd3b45dc974cd4e8a75f712bb84c950dce1b58433858460405161088794939291906119e9565b60405180910390a150505050565b60035481565b600160009054906101000a900473ffffffffffffffffffffffffffffffffffffffff1681565b600260009054906101000a900473ffffffffffffffffffffffffffffffffffffffff1681565b600080600080600086868101906108fe9190611b0d565b95509550955095509550506000600460008781526020019081526020016000206000015414610962576040517f08c379a000000000000000000000000000000000000000000000000000000000815260040161095990611c1e565b60405180910390fd5b6000600460008781526020019081526020016000209050858160000181905550848160010190816109939190611de0565b5042816004018190555062093a80426109ac91906119b5565b8160050181905550838160060160006101000a81548163ffffffff021916908363ffffffff160217905550828160060160046101000a81548173ffffffffffffffffffffffffffffffffffffffff021916908373ffffffffffffffffffffffffffffffffffffffff16021790555081816007019081610a2b9190611f0d565b507f4ba44b2f2cc6680ddb07ed1cbfec32eea742383066950efcb2305eab868e2161868686604051610a5f93929190611fdf565b60405180910390a15050505050505050565b60008282810190610a82919061201d565b91505060006004600083815260200190815260200160002090506000816000015403610ae3576040517f08c379a0000000000000000000000000000000000000000000000000000000008152600401610ada906117e0565b60405180910390fd5b80600501544211610b29576040517f08c379a0000000000000000000000000000000000000000000000000000000008152600401610b20906120a9565b60405180910390fd5b600060018383600201548460030154604051602001610b4b9493929190612111565b6040516020818303038152906040529050600160009054906101000a900473ffffffffffffffffffffffffffffffffffffffff1673ffffffffffffffffffffffffffffffffffffffff1663fa31de01600260149054906101000a900463ffffffff16600354846040518463ffffffff1660e01b8152600401610bcf93929190612156565b6020604051808303816000875af1158015610bee573d6000803e3d6000fd5b505050506040513d601f19601f82011682018060405250810190610c1291906121a9565b507fb7a878643a82614f0ad3432ea0a03b82104efdb339035148b3655609341a37d48383600201548460030154604051610c4e939291906121d6565b60405180910390a15050505050565b60008060008484810190610c71919061220d565b9350935093505060006004600085815260200190815260200160002090506000816000015403610cd6576040517f08c379a0000000000000000000000000000000000000000000000000000000008152600401610ccd906117e0565b60405180910390fd5b8060080160009054906101000a900460ff1615610d28576040517f08c379a0000000000000000000000000000000000000000000000000000000008152600401610d1f906122dc565b60405180910390fd5b60018160080160006101000a81548160ff02191690831515021790555060008373ffffffffffffffffffffffffffffffffffffffff1683604051610d6c9190612338565b6000604051808303816000865af19150503d8060008114610da9576040519150601f19603f3d011682016040523d82523d6000602084013e610dae565b606091505b5050905080610df2576040517f08c379a0000000000000000000000000000000000000000000000000000000008152600401610de99061239b565b60405180910390fd5b7f712ae1383f79ac853f8d882153778e0260ef8f03b504e2866e0593e04d2b291f85604051610e2191906123bb565b60405180910390a150505050505050565b6000604051905090565b600080fd5b600080fd5b6000819050919050565b610e5981610e46565b8114610e6457600080fd5b50565b600081359050610e7681610e50565b92915050565b600060208284031215610e9257610e91610e3c565b5b6000610ea084828501610e67565b91505092915050565b610eb281610e46565b82525050565b600081519050919050565b600082825260208201905092915050565b60005b83811015610ef2578082015181840152602081019050610ed7565b60008484015250505050565b6000601f19601f8301169050919050565b6000610f1a82610eb8565b610f248185610ec3565b9350610f34818560208601610ed4565b610f3d81610efe565b840191505092915050565b600063ffffffff82169050919050565b610f6181610f48565b82525050565b600073ffffffffffffffffffffffffffffffffffffffff82169050919050565b6000610f9282610f67565b9050919050565b610fa281610f87565b82525050565b600081519050919050565b600082825260208201905092915050565b6000610fcf82610fa8565b610fd98185610fb3565b9350610fe9818560208601610ed4565b610ff281610efe565b840191505092915050565b60008115159050919050565b61101281610ffd565b82525050565b60006101408201905061102e600083018d610ea9565b8181036020830152611040818c610f0f565b905061104f604083018b610ea9565b61105c606083018a610ea9565b6110696080830189610ea9565b61107660a0830188610ea9565b61108360c0830187610f58565b61109060e0830186610f99565b8181036101008301526110a38185610fc4565b90506110b3610120830184611009565b9b9a5050505050505050505050565b6110cb81610f48565b81146110d657600080fd5b50565b6000813590506110e8816110c2565b92915050565b6000819050919050565b611101816110ee565b811461110c57600080fd5b50565b60008135905061111e816110f8565b92915050565b600080fd5b600080fd5b600080fd5b60008083601f84011261114957611148611124565b5b8235905067ffffffffffffffff81111561116657611165611129565b5b6020830191508360018202830111156111825761118161112e565b5b9250929050565b600080600080606085870312156111a3576111a2610e3c565b5b60006111b1878288016110d9565b94505060206111c28782880161110f565b935050604085013567ffffffffffffffff8111156111e3576111e2610e41565b5b6111ef87828801611133565b925092505092959194509250565b60006020820190506112126000830184610f58565b92915050565b600060208201905061122d6000830184610f99565b92915050565b60006020828403121561124957611248610e3c565b5b60006112578482850161110f565b91505092915050565b61126981610ffd565b811461127457600080fd5b50565b60008135905061128681611260565b92915050565b600080604083850312156112a3576112a2610e3c565b5b60006112b185828601610e67565b92505060206112c285828601611277565b9150509250929050565b6112d5816110ee565b82525050565b60006020820190506112f060008301846112cc565b92915050565b6000819050919050565b600061131b61131661131184610f67565b6112f6565b610f67565b9050919050565b600061132d82611300565b9050919050565b600061133f82611322565b9050919050565b61134f81611334565b82525050565b600060208201905061136a6000830184611346565b92915050565b600061137b82611322565b9050919050565b61138b81611370565b82525050565b60006020820190506113a66000830184611382565b92915050565b7f4e487b7100000000000000000000000000000000000000000000000000000000600052602260045260246000fd5b600060028204905060018216806113f357607f821691505b602082108103611406576114056113ac565b5b50919050565b7f4f6e6c79204d61696c626f782063616e2063616c6c20746869732066756e637460008201527f696f6e0000000000000000000000000000000000000000000000000000000000602082015250565b6000611468602383610ec3565b91506114738261140c565b604082019050919050565b600060208201905081810360008301526114978161145b565b9050919050565b7f496e76616c69642073656e646572000000000000000000000000000000000000600082015250565b60006114d4600e83610ec3565b91506114df8261149e565b602082019050919050565b60006020820190508181036000830152611503816114c7565b9050919050565b600080fd5b7f4e487b7100000000000000000000000000000000000000000000000000000000600052604160045260246000fd5b61154782610efe565b810181811067ffffffffffffffff821117156115665761156561150f565b5b80604052505050565b6000611579610e32565b9050611585828261153e565b919050565b600067ffffffffffffffff8211156115a5576115a461150f565b5b6115ae82610efe565b9050602081019050919050565b82818337600083830152505050565b60006115dd6115d88461158a565b61156f565b9050828152602081018484840111156115f9576115f861150a565b5b6116048482856115bb565b509392505050565b600082601f83011261162157611620611124565b5b81356116318482602086016115ca565b91505092915050565b6000806040838503121561165157611650610e3c565b5b600061165f85828601610e67565b925050602083013567ffffffffffffffff8111156116805761167f610e41565b5b61168c8582860161160c565b9150509250929050565b7f496e76616c696420616374696f6e207479706500000000000000000000000000600082015250565b60006116cc601383610ec3565b91506116d782611696565b602082019050919050565b600060208201905081810360008301526116fb816116bf565b9050919050565b7f4f6e6c79206f776e65722063616e2063616c6c20746869732066756e6374696f60008201527f6e00000000000000000000000000000000000000000000000000000000000000602082015250565b600061175e602183610ec3565b915061176982611702565b604082019050919050565b6000602082019050818103600083015261178d81611751565b9050919050565b7f50726f706f73616c20646f6573206e6f74206578697374000000000000000000600082015250565b60006117ca601783610ec3565b91506117d582611794565b602082019050919050565b600060208201905081810360008301526117f9816117bd565b9050919050565b7f416c726561647920766f74656400000000000000000000000000000000000000600082015250565b6000611836600d83610ec3565b915061184182611800565b602082019050919050565b6000602082019050818103600083015261186581611829565b9050919050565b7f566f74696e6720706572696f6420656e64656400000000000000000000000000600082015250565b60006118a2601383610ec3565b91506118ad8261186c565b602082019050919050565b600060208201905081810360008301526118d181611895565b9050919050565b6000815190506118e781610e50565b92915050565b60006020828403121561190357611902610e3c565b5b6000611911848285016118d8565b91505092915050565b7f4e6f20766f74696e6720706f7765720000000000000000000000000000000000600082015250565b6000611950600f83610ec3565b915061195b8261191a565b602082019050919050565b6000602082019050818103600083015261197f81611943565b9050919050565b7f4e487b7100000000000000000000000000000000000000000000000000000000600052601160045260246000fd5b60006119c082610e46565b91506119cb83610e46565b92508282019050808211156119e3576119e2611986565b5b92915050565b60006080820190506119fe6000830187610ea9565b611a0b6020830186610f99565b611a186040830185611009565b611a256060830184610ea9565b95945050505050565b600067ffffffffffffffff821115611a4957611a4861150f565b5b611a5282610efe565b9050602081019050919050565b6000611a72611a6d84611a2e565b61156f565b905082815260208101848484011115611a8e57611a8d61150a565b5b611a998482856115bb565b509392505050565b600082601f830112611ab657611ab5611124565b5b8135611ac6848260208601611a5f565b91505092915050565b6000611ada82610f67565b9050919050565b611aea81611acf565b8114611af557600080fd5b50565b600081359050611b0781611ae1565b92915050565b60008060008060008060c08789031215611b2a57611b29610e3c565b5b6000611b3889828a01610e67565b9650506020611b4989828a01610e67565b955050604087013567ffffffffffffffff811115611b6a57611b69610e41565b5b611b7689828a01611aa1565b9450506060611b8789828a016110d9565b9350506080611b9889828a01611af8565b92505060a087013567ffffffffffffffff811115611bb957611bb8610e41565b5b611bc589828a0161160c565b9150509295509295509295565b7f50726f706f73616c20616c726561647920657869737473000000000000000000600082015250565b6000611c08601783610ec3565b9150611c1382611bd2565b602082019050919050565b60006020820190508181036000830152611c3781611bfb565b9050919050565b60008190508160005260206000209050919050565b60006020601f8301049050919050565b600082821b905092915050565b600060088302611ca07fffffffffffffffffffffffffffffffffffffffffffffffffffffffffffffffff82611c63565b611caa8683611c63565b95508019841693508086168417925050509392505050565b6000611cdd611cd8611cd384610e46565b6112f6565b610e46565b9050919050565b6000819050919050565b611cf783611cc2565b611d0b611d0382611ce4565b848454611c70565b825550505050565b600090565b611d20611d13565b611d2b818484611cee565b505050565b5b81811015611d4f57611d44600082611d18565b600181019050611d31565b5050565b601f821115611d9457611d6581611c3e565b611d6e84611c53565b81016020851015611d7d578190505b611d91611d8985611c53565b830182611d30565b50505b505050565b600082821c905092915050565b6000611db760001984600802611d99565b1980831691505092915050565b6000611dd08383611da6565b9150826002028217905092915050565b611de982610eb8565b67ffffffffffffffff811115611e0257611e0161150f565b5b611e0c82546113db565b611e17828285611d53565b600060209050601f831160018114611e4a5760008415611e38578287015190505b611e428582611dc4565b865550611eaa565b601f198416611e5886611c3e565b60005b82811015611e8057848901518255600182019150602085019450602081019050611e5b565b86831015611e9d5784890151611e99601f891682611da6565b8355505b6001600288020188555050505b505050505050565b60008190508160005260206000209050919050565b601f821115611f0857611ed981611eb2565b611ee284611c53565b81016020851015611ef1578190505b611f05611efd85611c53565b830182611d30565b50505b505050565b611f1682610fa8565b67ffffffffffffffff811115611f2f57611f2e61150f565b5b611f3982546113db565b611f44828285611ec7565b600060209050601f831160018114611f775760008415611f65578287015190505b611f6f8582611dc4565b865550611fd7565b601f198416611f8586611eb2565b60005b82811015611fad57848901518255600182019150602085019450602081019050611f88565b86831015611fca5784890151611fc6601f891682611da6565b8355505b6001600288020188555050505b505050505050565b6000606082019050611ff46000830186610ea9565b81810360208301526120068185610f0f565b90506120156040830184610f58565b949350505050565b6000806040838503121561203457612033610e3c565b5b600061204285828601610e67565b925050602061205385828601610e67565b9150509250929050565b7f566f74696e6720706572696f64206e6f7420656e646564000000000000000000600082015250565b6000612093601783610ec3565b915061209e8261205d565b602082019050919050565b600060208201905081810360008301526120c281612086565b9050919050565b6000819050919050565b600060ff82169050919050565b60006120fb6120f66120f1846120c9565b6112f6565b6120d3565b9050919050565b61210b816120e0565b82525050565b60006080820190506121266000830187612102565b6121336020830186610ea9565b6121406040830185610ea9565b61214d6060830184610ea9565b95945050505050565b600060608201905061216b6000830186610f58565b61217860208301856112cc565b818103604083015261218a8184610fc4565b9050949350505050565b6000815190506121a3816110f8565b92915050565b6000602082840312156121bf576121be610e3c565b5b60006121cd84828501612194565b91505092915050565b60006060820190506121eb6000830186610ea9565b6121f86020830185610ea9565b6122056040830184610ea9565b949350505050565b6000806000806080858703121561222757612226610e3c565b5b600061223587828801610e67565b945050602061224687828801610e67565b935050604061225787828801611af8565b925050606085013567ffffffffffffffff81111561227857612277610e41565b5b6122848782880161160c565b91505092959194509250565b7f50726f706f73616c20616c726561647920657865637574656400000000000000600082015250565b60006122c6601983610ec3565b91506122d182612290565b602082019050919050565b600060208201905081810360008301526122f5816122b9565b9050919050565b600081905092915050565b600061231282610fa8565b61231c81856122fc565b935061232c818560208601610ed4565b80840191505092915050565b60006123448284612307565b915081905092915050565b7f50726f706f73616c20657865637574696f6e206661696c656400000000000000600082015250565b6000612385601983610ec3565b91506123908261234f565b602082019050919050565b600060208201905081810360008301526123b481612378565b9050919050565b60006020820190506123d06000830184610ea9565b9291505056fea264697066735822122060397ef1b64f5018c2802c36920bf2fd64faaeb7e3da0d69e1edbb218856b44764736f6c63430008140033",
  "devdoc": {
    "kind": "dev",
    "methods": {},
    "version": 1
  },
  "userdoc": {
    "kind": "user",
    "methods": {},
    "version": 1
  },
  "storageLayout": {
    "storage": [
      {
        "astId": 2699,
        "contract": "contracts/GovernanceProxy.sol:GovernanceProxy",
        "label": "owner",
        "offset": 0,
        "slot": "0",
        "type": "t_address"
      },
      {
        "astId": 2702,
        "contract": "contracts/GovernanceProxy.sol:GovernanceProxy",
        "label": "mailbox",
        "offset": 0,
        "slot": "1",
        "type": "t_contract(IMailbox)2689"
      },
      {
        "astId": 2705,
        "contract": "contracts/GovernanceProxy.sol:GovernanceProxy",
        "label": "governanceToken",
        "offset": 0,
        "slot": "2",
        "type": "t_contract(IGovernanceToken)2697"
      },
      {
        "astId": 2707,
        "contract": "contracts/GovernanceProxy.sol:GovernanceProxy",
        "label": "homeDomain",
        "offset": 20,
        "slot": "2",
        "type": "t_uint32"
      },
      {
        "astId": 2709,
        "contract": "contracts/GovernanceProxy.sol:GovernanceProxy",
        "label": "homeCoreAddress",
        "offset": 0,
        "slot": "3",
        "type": "t_bytes32"
      },
      {
        "astId": 2739,
        "contract": "contracts/GovernanceProxy.sol:GovernanceProxy",
        "label": "proposals",
        "offset": 0,
        "slot": "4",
        "type": "t_mapping(t_uint256,t_struct(Proposal)2734_storage)"
      }
    ],
    "types": {
      "t_address": {
        "encoding": "inplace",
        "label": "address",
        "numberOfBytes": "20"
      },
      "t_bool": {
        "encoding": "inplace",
        "label": "bool",
        "numberOfBytes": "1"
      },
      "t_bytes32": {
        "encoding": "inplace",
        "label": "bytes32",
        "numberOfBytes": "32"
      },
      "t_bytes_storage": {
        "encoding": "bytes",
        "label": "bytes",
        "numberOfBytes": "32"
      },
      "t_contract(IGovernanceToken)2697": {
        "encoding": "inplace",
        "label": "contract IGovernanceToken",
        "numberOfBytes": "20"
      },
      "t_contract(IMailbox)2689": {
        "encoding": "inplace",
        "label": "contract IMailbox",
        "numberOfBytes": "20"
      },
      "t_mapping(t_address,t_bool)": {
        "encoding": "mapping",
        "key": "t_address",
        "label": "mapping(address => bool)",
        "numberOfBytes": "32",
        "value": "t_bool"
      },
      "t_mapping(t_uint256,t_struct(Proposal)2734_storage)": {
        "encoding": "mapping",
        "key": "t_uint256",
        "label": "mapping(uint256 => struct GovernanceProxy.Proposal)",
        "numberOfBytes": "32",
        "value": "t_struct(Proposal)2734_storage"
      },
      "t_string_storage": {
        "encoding": "bytes",
        "label": "string",
        "numberOfBytes": "32"
      },
      "t_struct(Proposal)2734_storage": {
        "encoding": "inplace",
        "label": "struct GovernanceProxy.Proposal",
        "members": [
          {
            "astId": 2711,
            "contract": "contracts/GovernanceProxy.sol:GovernanceProxy",
            "label": "id",
            "offset": 0,
            "slot": "0",
            "type": "t_uint256"
          },
          {
            "astId": 2713,
            "contract": "contracts/GovernanceProxy.sol:GovernanceProxy",
            "label": "description",
            "offset": 0,
            "slot": "1",
            "type": "t_string_storage"
          },
          {
            "astId": 2715,
            "contract": "contracts/GovernanceProxy.sol:GovernanceProxy",
            "label": "forVotes",
            "offset": 0,
            "slot": "2",
            "type": "t_uint256"
          },
          {
            "astId": 2717,
            "contract": "contracts/GovernanceProxy.sol:GovernanceProxy",
            "label": "againstVotes",
            "offset": 0,
            "slot": "3",
            "type": "t_uint256"
          },
          {
            "astId": 2719,
            "contract": "contracts/GovernanceProxy.sol:GovernanceProxy",
            "label": "startTime",
            "offset": 0,
            "slot": "4",
            "type": "t_uint256"
          },
          {
            "astId": 2721,
            "contract": "contracts/GovernanceProxy.sol:GovernanceProxy",
            "label": "endTime",
            "offset": 0,
            "slot": "5",
            "type": "t_uint256"
          },
          {
            "astId": 2723,
            "contract": "contracts/GovernanceProxy.sol:GovernanceProxy",
            "label": "executionChain",
            "offset": 0,
            "slot": "6",
            "type": "t_uint32"
          },
          {
            "astId": 2725,
            "contract": "contracts/GovernanceProxy.sol:GovernanceProxy",
            "label": "target",
            "offset": 4,
            "slot": "6",
            "type": "t_address"
          },
          {
            "astId": 2727,
            "contract": "contracts/GovernanceProxy.sol:GovernanceProxy",
            "label": "callData",
            "offset": 0,
            "slot": "7",
            "type": "t_bytes_storage"
          },
          {
            "astId": 2729,
            "contract": "contracts/GovernanceProxy.sol:GovernanceProxy",
            "label": "executed",
            "offset": 0,
            "slot": "8",
            "type": "t_bool"
          },
          {
            "astId": 2733,
            "contract": "contracts/GovernanceProxy.sol:GovernanceProxy",
            "label": "hasVoted",
            "offset": 0,
            "slot": "9",
            "type": "t_mapping(t_address,t_bool)"
          }
        ],
        "numberOfBytes": "320"
      },
      "t_uint256": {
        "encoding": "inplace",
        "label": "uint256",
        "numberOfBytes": "32"
      },
      "t_uint32": {
        "encoding": "inplace",
        "label": "uint32",
        "numberOfBytes": "4"
      }
    }
  }
}